:100000000C946E000C9496000C9496000C94960040
:100010000C9496000C9496000C9496000C94960008
:100020000C9496000C9496000C9496000C949600F8
:100030000C9496000C9496000C9496000C949600E8
:100040000C94A01C0C9496000C949F020C947902C2
:100050000C9496000C9496000C9496000C949600C8
:100060000C9496000C949600EC05320489068807DF
:10007000B007CE07D8077C07000000080002010087
:100080000003040700000000000000000000000062
:10009000250028002B0000000000240027002A0073
:1000A000040404040404040402020202020203031E
:1000B0000303030301020408102040800102040826
:1000C000102001020408102000010203040511128F
:1000D000131415160A0B0C0D0E0F032311241FBE4B
:1000E000CFEFD8E0DEBFCDBF12E0A0E0B1E0EEEF91
:1000F000FAE402C005900D92A837B107D9F726E0BF
:10010000A8E7B2E001C01D92AC3EB207E1F710E0F3
:10011000CEE6D0E004C02197FE010E943C24CD36FB
:10012000D107C9F70E94EA1C0C947D250C940000AD
:10013000CF92DF92EF92FF920F931F93CF93DF93B3
:100140006C017A018B01C0E0D0E0CE15DF0589F0AB
:10015000D8016D918D01D601ED91FC910190F08156
:10016000E02DC6010995892B11F47E0102C021966C
:10017000ECCFC701DF91CF911F910F91FF90EF90CE
:10018000DF90CF900895FC01538D448D252F30E0F2
:10019000842F90E0821B930B541710F0CF96089594
:1001A00001970895FC01918D828D981761F0828DE1
:1001B000DF01A80FB11D5D968C91928D9F5F9F739B
:1001C000928F90E008958FEF9FEF0895FC01918D3D
:1001D000828D981731F0828DE80FF11D858D90E0AA
:1001E00008958FEF9FEF0895FC01918D228D892F47
:1001F00090E0805C9F4F821B91098F73992708952F
:1002000088EB93E00E94F40021E0892B09F420E0C0
:10021000822F0895FC01848DDF01A80FB11DA35A20
:10022000BF4F2C91848D90E001968F739927848F16
:10023000A689B7892C93A089B1898C9180648C930D
:10024000938D848D981306C00288F389E02D8081F8
:100250008F7D80830895EF92FF920F931F93CF932A
:10026000DF93EC0181E0888F9B8D8C8D981305C006
:10027000E889F989808185FD24C0F62E0B8D10E078
:100280000F5F1F4F0F731127E02E8C8DE8120CC0EB
:100290000FB607FCFACFE889F989808185FFF5CF91
:1002A000CE010E940A01F1CF8B8DFE01E80FF11DF6
:1002B000E35AFF4FF0820B8FEA89FB8980818062CD
:1002C00007C0EE89FF896083E889F98980818064AD
:1002D000808381E090E0DF91CF911F910F91FF909B
:1002E000EF900895CF93DF93EC01888D8823C9F0B8
:1002F000EA89FB89808185FD05C0A889B9898C912F
:1003000086FD0FC00FB607FCF5CF808185FFF2CFC9
:10031000A889B9898C9185FFEDCFCE010E940A0191
:10032000E7CFDF91CF91089580E090E0892B29F00D
:100330000E94000181110C94000008950E946F2515
:100340000F931F93CF93DF930091AE031091AF03F0
:10035000F801C281D0E0DC2FCC278381C80FD11DEA
:10036000B801645F7F4F48E050E0CE010E970E94D5
:10037000FF09AE0144515109B8016C5E7F4F0E94E4
:10038000FF09009721F098278927982702C08FEF4F
:100390009FEFDF91CF911F910F910895DC01ED91B7
:1003A000FC910190F081E02D09946115710579F0BF
:1003B000FB0101900020E9F73197AF01461B570B75
:1003C000DC01ED91FC910280F381E02D099480E045
:1003D00090E008954F925F926F927F92EF92FF921A
:1003E0000F931F93CF93DF93CDB7DEB7A1970FB6CF
:1003F000F894DEBF0FBECDBF7C01FA01CB0119A27C
:10040000223008F42AE08E010F5D1F4F422E512C3E
:10041000612C712CBF01A30192010E941A24F901E1
:10042000CA01015011096A3014F4605D01C0695CB1
:10043000D8016C93232B242B252B61F7B801C7011E
:100440000E94D501A1960FB6F894DEBF0FBECDBFB6
:10045000DF91CF911F910F91FF90EF907F906F9060
:100460005F904F9008958F929F92AF92BF92CF92DC
:10047000DF92EF92FF920F931F93CF93DF937C0154
:100480008B016C0182E0C80ED11C4701E5E08E0EA5
:10049000911CC0E0D0E0F60141916F0150E060E0B6
:1004A00070E02AE0C8010E94EA015C016EE2C80126
:1004B0000E94CE018A0D9B1DC80FD91FC814D904F4
:1004C00051F7F701458150E060E070E02AE0C80193
:1004D0000E94EA018C0F9D1FDF91CF911F910F9118
:1004E000FF90EF90DF90CF90BF90AF909F908F9054
:1004F00008951F920F920FB60F9211242F933F93DE
:100500004F935F936F937F938F939F93AF93BF931B
:10051000EF93FF9388EB93E00E940A01FF91EF9124
:10052000BF91AF919F918F917F916F915F914F910B
:100530003F912F910F900FBE0F901F9018951F9213
:100540000F920FB60F9211242F938F939F93EF93D7
:10055000FF93E091C803F091C9038081E091CE033D
:10056000F091CF0382FD12C090818091D1038F5F03
:100570008F732091D203821751F0E091D103F0E004
:10058000E854FC4F958F8093D10301C08081FF9187
:10059000EF919F918F912F910F900FBE0F901F9011
:1005A0001895CF92DF92EF92FF920F931F93CF9304
:1005B000DF93C0918E02D0918F020091AE03109113
:1005C000AF03680128E2C20ED11CD0928D02C09206
:1005D0008C02D0928B02C0928A02833059F4898DAA
:1005E0008F70833009F062C588899989892B09F059
:1005F0005DC57EC0823009F081C0809188028F5F26
:1006000080938802811113C0809187028F5F80934D
:10061000870281110CC0809186028F5F80938602D1
:10062000811105C0809185028F5F809385021092B1
:100630008402109283021092820210928102898DAC
:10064000982F9D7F953041F48A8D8F5F8A8F8837F0
:1006500009F02CC5198E2AC5882309F427C52889D5
:100660003989232B09F440C09A8D2FEF290F2A8F47
:1006700091111CC59B8D9A3031F02FEF280F22303D
:1006800048F4933039F4198E80E8809389020E94EF
:10069000160CCCC3953038F428E0092E01C0220F87
:1006A0000A94EAF701C020E82A8F9F5F9B8F8F7022
:1006B0008330A1F048F4813009F4C6C1823009F0DA
:1006C000F5C4F80111A2C6C1863009F450C38830C0
:1006D00009F44DC3843009F0E9C449C384E0809330
:1006E00089020E94160CDAC38F70833009F0DEC4D1
:1006F00088E0809389020E94160C8FC3F8018081E4
:10070000853409F0D3C4E280F12CFE2CEE248381E1
:10071000E80EF11C80918302909184028E159F0552
:1007200008F4C4C4F0928402E092830286818F733D
:1007300009F0BCC487818111B9C4C091AA03D091CA
:10074000AB03209731F48091AC039091AD03892BDA
:1007500089F0F801808991898C179D0709F0A6C45A
:10076000228933898091AC039091AD032817390712
:1007700009F09CC40E94240A019609F097C4F8016C
:100780008185863031F1813009F090C484898830C8
:1007900009F08CC4148A86899789873FFFEF9F07E9
:1007A00010F0099601C00896F801978B868BF80126
:1007B00084859585918B808B86859785938B828B9D
:1007C000D587C4878091AC039091AD0397878687C6
:1007D00071C40E94A001019609F068C49091A2031F
:1007E000F80181A1992329F14689578920918D0328
:1007F00030918E0342175307E1F4448955892091C3
:100800008F03309190034217530799F4448555851F
:100810002091890330918A034217530751F446858A
:10082000578520918B0330918C034217530709F4AD
:1008300027C18F73823009F5F801268937893093F3
:100840009402209393024091A7035091A803241788
:10085000350709F03AC4911161C01092A903C9E8A3
:10086000D3E066C08091890280FDCEC180E2809392
:1008700089020E94160C1092A203E091AE03F0913F
:10088000AF0381A182FD12C484E181A388E290E0DC
:10089000909384028093830280E580A3338D878DBB
:1008A000838F228D868D828F268F918D858D818F6E
:1008B000958F808D8093A903448D408F848F3F5FF7
:1008C000378F31110AC02F5F268F211106C09F5F1D
:1008D000958F911102C08F5F848F84899589909341
:1008E00094028093930226893789358B248B978BCA
:1008F000868B84859585918B808B86859785938B58
:10090000828B8091AA039091AB0395878487809115
:10091000AC039091AD039787868799C3973019F000
:10092000C0E0D0E002C0C9E8D3E081E08093A90331
:10093000209709F4BBC3D0938F02C0938E0288E046
:100940008A8F888F1E8A84E08F8B1B8EF8018689A0
:1009500097899D838C83848995899F838E838485E1
:10096000958599838883868597859B838A8381E093
:10097000898F809185028C87809186028D878091F6
:1009800087028E87809188028F8781E090E0998B23
:10099000888B838D8B87828D8A87818D8987808DD7
:1009A000888781E090E00E94B522A091AE03B091CB
:1009B000AF0390968C919097982F907F913508F483
:1009C00043C01092A90382958F7090E00597880F1D
:1009D000991F880F991F209192023091A903E32F4C
:1009E000F0E0E817F90774F5EA0FFB1F20A52111C5
:1009F00003C01092920228C0213011F43F5F1FC043
:100A00002230C9F441A54430B1F42093920282A56A
:100A100090E0982F882723A5822B909394028093AF
:100A200093028836910510F087E690E09B8B8A8BC5
:100A30009D8B8C8B09C041A5442321F0340F30934A
:100A4000A903CBCF20939202E091AE03F091AF03C4
:100A500080E181A3E091AE03F091AF0381A18260B8
:100A600081A382E080A784E081A712A687E683A7FE
:100A70008CE290E0909384028093830280E6ABC284
:100A800029E833E030938F0220938E02109289027E
:100A900082FF04C01092A20380E235C2F80120A1B7
:100AA00022952F70220F220F2093A903E21AF1083A
:100AB000E7016497D0938402C09383029F709230C1
:100AC00021F4982F9F739231D1F0209719F4982F29
:100AD0009370A9F0F801208D90919103291368C2B9
:100AE000218D90919203291363C2228D90919303DB
:100AF00029135EC2238D90919403291359C284FF58
:100B00005BC06091990370919A036115710509F4B6
:100B100053C085E993E00E94CD22E091AE03F091AD
:100B2000AF03348D80917D02381346C0258D8091AE
:100B30007E02281341C0968D80917F0298133CC09D
:100B4000878D40918002841337C0309395032093A2
:100B5000960390939703809398038091A403811147
:100B600020C090919F038091A1032091A303821B39
:100B7000292F269526952695821B980F90939F03E3
:100B800087FD81952091A003322F36953695231B42
:100B9000820F8093A003969596959695890F8093E2
:100BA000A10381E0809389028091A1038093A30334
:100BB00010929A03109299032091A203E22FEF70F2
:100BC0008E2F90E0FC013197E830F10508F06EC2FD
:100BD000EC5CFF4F0C943C248091890280FF66C23C
:100BE00083E08093A20380E48093890210929A03A9
:100BF00010929903209709F483C082E480938902BC
:100C0000CE010E94B5227CC0E091AE03F091AF030B
:100C100081A18F73823109F029CE80A1982F907F16
:100C2000913508F44FC01092A90382958F7090E01F
:100C30000597880F991F880F991F20919202309174
:100C4000A903A32FB0E0A817B907D4F5AE0FBF1FB3
:100C500098962C919897211103C01092920232C05D
:100C6000213011F43F5F29C0223011F599964C9143
:100C700099974430E9F4209392029A968C919A972E
:100C800090E0982F88279B962C91822B909394022A
:100C9000809393028836910510F087E690E0909358
:100CA0009C0380939B0390939E0380939D030AC0B3
:100CB00099964C91442321F0340F3093A903BFCF70
:100CC0002093920283E08093A203808D809391030E
:100CD000818D80939203828D80939303838D809383
:100CE000940381E090E00E94B52282E4809389021F
:100CF00010929A0310929903109284021092830228
:100D000010928202109281020E94160CC9E8D3E070
:100D100084C0E091AE03F091AF0381A180FF2EC0AB
:100D200024FD2CC08091990390919A03892B09F09E
:100D3000BDC1C70143970E94B52280918902982FB7
:100D4000906190938902CD2B19F082618093890282
:100D50000E94160C81E090E090939A03809399038F
:100D600088E08093A2031092A403C9E8D3E0E09145
:100D7000AE03F091AF0381E181A322C185FF12C0D0
:100D800086A190E0982F882737A1832BC80ED91E03
:100D9000D0928D02C0928C02C81BD90BD0938402D2
:100DA000C093830240918302509184024115510502
:100DB00051F024FD08C090918902926090938902BD
:100DC000CA010E94B522E091AE03F091AF0382A167
:100DD00090E0982F882723A1820F911D9093940271
:100DE0008093930220919D0330919E032817390729
:100DF00010F0892B21F43093940220939302809178
:100E000093029091940290939C0380939B03809112
:100E10008902837009F44AC173CF8091890285FFEA
:100E20000BC01092820210928102198EE091AE03E3
:100E3000F091AF0384E1A0CF84FF0CC01092820236
:100E40001092810281E090E0998B888B84E0898FF9
:100E50001B8E8DCF209181023091820221153105A8
:100E6000E1F080FF02C0198A188A88899989009761
:100E700081F48A899B898217930720F490938202D8
:100E8000809381028091810290918202998B888B5C
:100E900004C090938202809381021B8E80918A020B
:100EA00090918B0290938D0280938C0280918102AD
:100EB00090918202892B79F088899989009759F05D
:100EC00088969093840280938302E091AE03F09120
:100ED000AF0388E10FC08091890281FFE7C088E2FB
:100EE00090E09093840280938302E091AE03F091AE
:100EF000AF0380E181A36AC08091890280FFD6C0E0
:100F00001092A20380E1809389020E94160CCEC049
:100F1000209719F0CE010E94B522E091AE03F09126
:100F2000AF0391A18091890290FF10C080FF0AC099
:100F300087E08093A2031092A30310929A03109269
:100F400099031FC086E08093A2031BC080FF23C0CB
:100F500085E08093A20310929A0310929903A6C091
:100F6000209719F0CE010E94B522E091AE03F091D6
:100F7000AF0381A180FF0FC087E08093A20310928E
:100F8000A30381E090E00E94B52280E18093890272
:100F90000E94160C0DC0CD2B59F488C08091890297
:100FA00080FF84C087E08093A2031092A3037EC0D9
:100FB000E091AE03F091AF0380E181A3C9E8D3E0F3
:100FC00088E290E09093840280938302E091AE03E4
:100FD000F091AF0380E580A3E091AE03F091AF0301
:100FE0008885848F8985858F8A85868F8B85878F75
:100FF0008C85808F8D85818F8E85828F8F85838F65
:1010000086E081878C819D81958B848B8E819F81E9
:10101000978B868B8091AA039091AB0395878487E9
:101020008091AC039091AD039787868788819981E1
:10103000918B808B8A819B81938B828B898D84FF9E
:1010400003C013A212A203C012A28DE583A3C09114
:10105000AE03D091AF0380E48887809183029091A2
:1010600084029A838B831FA21EA21DA21CA20E942F
:10107000A001809590959DA38CA385E48883198217
:101080001F821E828091900290919102019690930E
:101090009102809390029C838D831B861A860E9406
:1010A000240A809590959B878A8704C010928402B9
:1010B0001092830210928902DF91CF911F910F91BC
:1010C000FF90EF90DF90CF90089581E08093A90387
:1010D000D4CBCF93DF93EC01E881F981008CF18DC3
:1010E000E02D0995882339F0EC85FD851182EA51C0
:1010F000FF4F11821082DF91CF910895CF93DF933C
:10110000EC01E881F9810084F185E02D0995892BB6
:1011100071F0EC85FD85DF01AC51BF4F8D919C9145
:10112000E80FF91FE358FF4F808190E002C08FEF76
:101130009FEFDF91CF910895CF93DF931F92CDB7AB
:10114000DEB7DC01ED91FC910288F389E02D41E0EE
:1011500050E0BE016F5F7F4F099597FD03C0898105
:1011600090E002C08FEF9FEF0F90DF91CF91089535
:10117000FC01448555854115510551F0FB0124853D
:1011800035852115310521F081E04217530709F01B
:1011900080E0089580E090E00895DC011C96ED91D8
:1011A000FC911D97309739F08181811106C08081B3
:1011B00082958170089580E0089581E00895DC01B2
:1011C000ED91FC91028CF38DE02D099591E089273A
:1011D0000895089580E090E00895CF93DF93DC01B7
:1011E000FB01EC01C359DE4F688179812296988119
:1011F000828140815181823028F0BA0181E083836D
:1012000090E027C0ED01C059DE4F28813981EA0105
:10121000C223D323D2960D90BC91A02DCA17DB0711
:10122000C1F4C9018095909563E0880F991F6A9574
:10123000E1F784239523892B51F083E0220F331F9C
:101240008A95E1F72760BA016223732301C0BA01CE
:1012500095E071836083928381E0DF91CF9108955F
:101260000F931F93CF93DF93CDB7DEB728970FB6B9
:10127000F894DEBF0FBECDBF1C821B82809100019F
:10128000909101019C012F5F3F4F3093010120930A
:1012900000019E838D8383E88F83209183023091A8
:1012A00084024091AE035091AF0308E310E0BE0109
:1012B0006F5F7F4F80910C0590910D050E94121A6F
:1012C00028960FB6F894DEBF0FBECDBFDF91CF9149
:1012D0001F910F910895CF92DF92EF92FF920F939B
:1012E0001F93CF93DF9300D0CDB7DEB78C017B0186
:1012F000DC01ED91FC91008CF18DE02D49835A8346
:10130000099549815A81882309F46CC0F801A485A4
:10131000B58511968C911197882309F463C0FD015E
:10132000EA51FF4F808191816A018C159D0508F477
:101330006C01FD01EC51FF4F2081318123583F4F5B
:10134000BD01620F731FA601C7010E947425D80159
:101350001C96ED91FC911D97DF01AA51BF4F8D9115
:101360009C9111978C199D0911969C938E931297BD
:101370002D913C9111972C0D3D1D11963C932E9370
:10138000892B71F511821D921C928081A82FAF705C
:101390009EE1A99FD0011124A757BC4F59969C915B
:1013A00094FF0EC0982F907659F480688083D801FE
:1013B0001C96ED91FC911D97128613861486158656
:1013C000D8011C96ED91FC911D978181811108C077
:1013D000808186FF05C010821D961C921E921C976C
:1013E000C60102C08FEF9FEF0F900F90DF91CF915A
:1013F0001F910F91FF90EF90DF90CF900895FB0128
:1014000041505109460F571FE417F50778F4208122
:1014100030E0322F22276181260F311D820F931F6A
:101420008217930708F401963296EECFE417F5077A
:1014300051F4208130E0322F2227820F931F821730
:10144000930708F4019608956091AE037091AF037D
:1014500044E150E080E090E00E94FF09009721F015
:1014600098278927982708958FEF9FEF0895CF92A7
:10147000DF92EF92FF920F931F9380910C05909152
:101480000D050E946518833869F4E0910C05F09110
:101490000D0507A0F0A5E02D80859185909384022D
:1014A000809383028091830290918402892B89F03A
:1014B00081E00E94D1028091830290918402892B65
:1014C000D9F11F910F91FF90EF90DF90CF900C9486
:1014D00030090E940E11C0901105D0901205E090C5
:1014E0001305F09014050091150510911605209133
:1014F000170530911805AB01BC014C195D096E0947
:101500007F094017510762077307B0F0D901C8017E
:101510008C0D9D1DAE1DBF1D80931105909312056E
:10152000A0931305B093140589E893E090938F027C
:1015300080938E0282E0BDCF1F910F91FF90EF90BC
:10154000DF90CF900895CF93DF93EC010E94370A8C
:10155000E881F981008CF18DE02DCE010995882379
:1015600051F0EC85FD858181882329F0EA51FF4FF8
:101570008081918102C080E090E0DF91CF91089559
:101580007F928F929F92AF92BF92CF92DF92EF9213
:10159000FF920F931F93CF93DF93EC016B017A01BE
:1015A0008A014836510510F007E610E00E940E113E
:1015B000812C912C5E01E8EEAE0EB11C7724739461
:1015C0000E94370A209781F18881982F907661F5E3
:1015D00084FF2AC08B819C819801280F391F2836EF
:1015E000310570F7F50120812111EACF4696B60149
:1015F000680D791DA8018C0F9D1F0E9474257A82A9
:101600008B819C81800F911F9C838B83800E911E08
:101610008E149F0470F48701081919090836110502
:1016200078F207E610E0CCCFC851DF4F18828FEF79
:101630009FEFDF91CF911F910F91FF90EF90DF907F
:10164000CF90BF90AF909F908F907F900895FC01B6
:10165000848595850C94C00ACF93DF931F92CDB7F4
:10166000DEB7698341E050E0BE016F5F7F4FFC0150
:10167000848595850E94C00A0F90DF91CF910895CF
:10168000CF93DF93EC010E94370AEC85FD853097FC
:1016900029F0808186FF04C0818103C080E001C001
:1016A00081E0DF91CF910895CF93DF93DC011C9609
:1016B000ED91FC911D97309779F09081992361F01D
:1016C0001182EF01CA51DF4F1982188296FF02C0C2
:1016D000108202C0906290831D961C921E921C97ED
:1016E000DF91CF910C94370AEF92FF920F931F93E3
:1016F000CF93DF938C017B01EA010E940E11D80188
:10170000ED91FC910488F589E02DC8010995F70158
:10171000828190E0982F88272381822B9827892720
:101720009827248130E0322F22274581242B32272D
:1017300023273227FC2FED2F6091870370918803B8
:101740005091A203C0918D03D0918E036F5F7F4FA4
:1017500061154DE7740710F060E070E1B62FA72F18
:10176000552319F0CA17DB0789F370938803609338
:101770008703511105C01092A903C9E8D3E00AC03C
:10178000573019F0C0E0D0E002C0C9E8D3E041E032
:101790004093A903209719F480E090E040C042E014
:1017A000498F409185024C87409186024D87409138
:1017B00087024E87409188024F8767E670E07B8BF7
:1017C0006A8B7D8B6C8B41E050E0598B488B1B8E74
:1017D0004A8F48E0488F1E8A40E14F8B6091870313
:1017E000709188037627672776277D836C83FF8334
:1017F000EE83998388833B832A83898D8F7061F27E
:101800000E94370A898D8F708330B9F78C8D9D8D3A
:10181000D8011D969C938E931C9781E090E0DF91F8
:10182000CF911F910F91FF90EF9008950F931F9309
:10183000CF93DF93E0918E02F0918F02C48DD58D0E
:1018400080918902209701F586FF6BC190919502E6
:10185000911167C190E190939502109296021092B7
:10186000970210927C0310927B0310927A031092DD
:101870007903109299021092980210927D0325E943
:1018800032E0358F248FE90181FF4FC0DE01A7517F
:10189000BF4F8C91882331F01A8219861C821B82DB
:1018A00011971C928091830290918402892B09F4F4
:1018B000ECC08881807609F0E8C0818D8061818FDD
:1018C00088818F77888319860E940E116A877B87AB
:1018D0008C879D876A8B7B8B8C8B9D8B8E010A51AD
:1018E0001F4FF80120813181329780819181820FD1
:1018F000931F83589F4F60918C0270918D0240918D
:101900008302509184028C0F9D1F0E9474252091A8
:10191000830230918402F80180819181820F931FAC
:101920009183808381E08983B0C084FD04C087FDFA
:1019300002C085FF10C01A828981882341F084810A
:1019400095819B838A8388818064888301C0188203
:10195000158E148E9AC080FF15C088818F7788837A
:101960001A8219861C821B82FE01E851FF4F1082E9
:101970000E940E116A877B878C879D876A8B7B8B81
:101980008C8B9D8B809189028C7009F466C08A8152
:10199000882309F14B815C81509384024093830238
:1019A000BE016A5E7F4F50938202409381021416FB
:1019B00015064CF480918A0290918B026817790782
:1019C00011F00E94742581E0FE01E851FF4F8083F1
:1019D000319680835AC08881982F9076F1F5998549
:1019E0009923D9F187FF39C00E940E110A851B8502
:1019F0002C853D85DC01CB01801B910BA20BB30B29
:101A00000E851F8528893989081719072A073B077A
:101A100008F465C022C08E859F85A889B9898C503D
:101A20009E4FAF4FBF4F8935FBE19F07A105B10521
:101A300020F088E59BE1A0E0B0E08E879F87A88B2F
:101A4000B98B80918902826080938902E0918E0235
:101A5000F0918F02818D8F7E818F888185FF15C0E7
:101A60008A8181110BC01882E0918E02F0918F0261
:101A7000158E148E80E18093890207C0E0918E025A
:101A8000F0918F02818D8061818F888187FF49C0AD
:101A90009985911146C0807609F043C080918902F2
:101AA000826080938902E0918E02F0918F02818D95
:101AB0008F7E818F81E089878EE194E1A0E0B0E0A4
:101AC0008E879F87A88BB98B0E940E116A8B7B8BA8
:101AD0008C8B9D8B6A877B878C879D8722C00E9419
:101AE0000E116A877B878C879D870E940E110A8959
:101AF0001B892C893D89DC01CB01801B910BA20B3A
:101B0000B30B80339547A105B10508F484CF19863E
:101B10001882E0918E02F0918F02158E148E80E271
:101B2000AACFDF91CF911F910F910895CF93DF93AB
:101B3000CDB7DEB728970FB6F894DEBF0FBECDBF86
:101B4000AC019CEC99839A839B839C839D831E822A
:101B50001F8218869A01E1E021153105C9F0611153
:101B600003C04115510569F4D901A770BB27A15FD6
:101B7000BE4F8C91A1E0B0E0AC0FBD1FAE0FB11D08
:101B80008C9383E0369527958A95E1F7EF5FE4CF54
:101B9000611102C0452B39F4E62FF0E0E15FFE4F02
:101BA0008081898305C0F0E0E25FFE4F80818A83F7
:101BB00029813A814B815C816D817E818F819885FD
:101BC00028960FB6F894DEBF0FBECDBFDF91CF9140
:101BD00008956F927F928F929F92AF92BF92CF9211
:101BE000DF92EF92FF920F931F93CF93DF93CDB7C6
:101BF000DEB728970FB6F894DEBF0FBECDBF8C01BD
:101C0000CB01D22E642F0E94960D39014A015B014F
:101C10007C01F80182A582FD04C087A590A90E94DD
:101C2000CC16F80187A590A9DD2011F060E001C075
:101C300061E00E94FB1AF801C7A4D0A869827A82E9
:101C40008B829C82AD82BE82EF82F886F601268569
:101C5000AE014F5F5F4F6AE0C6010E942116F60198
:101C60002685AE014F5F5F4F60E1C6010E942116DD
:101C7000F601478161E1C6010E94FD15F801B4A893
:101C8000C7A4D0A86FEFC6010E94DE1580FF0DC06B
:101C90006FEFC6010E94DE1584FFF4CF40E167E0DC
:101CA000C6010E94FD15F12C30C0F601F780EF2C23
:101CB000BF1408F4EB2CF6018085811102C0FE18D8
:101CC00001C0F12CC6010E94D41580EA0E94D715EC
:101CD0005801F7E0AF0EB11CEA0CEA1431F0F5013F
:101CE00081915F010E94D715F8CFFF2029F080E095
:101CF0000E94D715FA94F9CFC6010E94D11561E070
:101D0000C6010E94AD15FF24F394F80182A582FD5F
:101D10000FC0418152816381748187A590A90E947F
:101D2000101BF82E60E0F80187A590A90E94FB1A0D
:101D30008F2D28960FB6F894DEBF0FBECDBFDF9172
:101D4000CF911F910F91FF90EF90DF90CF90BF90B8
:101D5000AF909F908F907F906F900895CF92DF9279
:101D6000EF92FF920F931F93CF93DF9300D000D099
:101D7000CDB7DEB7FC0195859B012115310561F0DA
:101D8000822F8770863030F483E0369527958A95C8
:101D9000E1F7F3CF80E097C09154EE24E3949F37AE
:101DA00008F0E12CF42E6B018F0119821A821B823C
:101DB0001C827A8369834B83BE016F5F7F4FCF01A3
:101DC0000E94ED0869817A812C814B81C8010E94B3
:101DD000E90DF1E0FF1227C0811102C0F12C6AC0A9
:101DE00089819A818C159D0501F5EE20F1F081EC39
:101DF000F801858787819085928781879A83898377
:101E0000FB821C82BE016F5F7F4FC8010E94ED08FC
:101E100088E0F80184AB69817A812C814B81C8010B
:101E20000E94E90D02C08823C9F289819A818C152C
:101E30009D0519F4FF24F3943DC0FF2019F0F3E051
:101E4000FF12F8CFEE20B1F3F80182A582FF11C096
:101E5000418152816381748187A590A90E94101BE2
:101E6000F80182A58B7F82A760E087A590A90E94D8
:101E7000FB1AF80187A590A90E94CC190E940E11A7
:101E80006B017C01C8010E946518813C99F20E9497
:101E90000E11AB01BC014C195D096E097F09F801F7
:101EA00085819681A0E0B0E084179507A607B70763
:101EB00048F794CFF80182A582FD04C087A590A9B8
:101EC0000E94CC198F2D0F900F900F900F90DF91E3
:101ED000CF911F910F91FF90EF90DF90CF900895D9
:101EE000EF92FF920F931F93CF93DF93EC017B014F
:101EF000BA018AA99BA9F70191838083DE01179615
:101F000088E001900D928A95E1F72115310529F0BD
:101F1000A901CE010F960E947425F7016281738199
:101F20000833110561F06034710511F444E001C01B
:101F300043E06017710709F442E0B80101C040E0D6
:101F4000CE01DF91CF911F910F91FF90EF900C94F4
:101F5000AE0E3FB7F8948091830390918403A091D3
:101F60008503B091860326B5A89B05C02F3F19F0C5
:101F70000196A11DB11D3FBFBA2FA92F982F882709
:101F8000820F911DA11DB11DBC01CD0142E0660F64
:101F9000771F881F991F4A95D1F7089590E0FC019B
:101FA000EC54FF4F2491FC01E056FF4F84918823AD
:101FB00099F090E0880F991FFC01EA56FF4FA59118
:101FC000B491FC01E457FF4F859194918FB7F89439
:101FD000EC91E22BEC938FBF0895FC01248130E05B
:101FE000322F22278581282B322723273227A4EB63
:101FF000B3E09281892F90E0982F88274381842B2A
:1020000098278927982711969C938E9313963C9333
:102010002E9312970895FC0182819381A481B5814A
:102020008093EC049093ED04A093EE04B093EF043E
:102030008BE597E09093F3048093F2041092F104FF
:102040001092F0048BE594E0089580915B049091E8
:102050005C04009759F1DC01ED91FC910688F78949
:10206000E02D0995811124C08091F6049091F70428
:10207000892BE1F48DEF9FEF9093F7048093F604A2
:1020800080915B0490915C04DC01ED91FC910680F1
:10209000F781E02D099580915B0490915C04DC014F
:1020A000ED91FC910488F589E02D099580E0089573
:1020B00081E00895CF93DF93DC014E5F5F4FFC0119
:1020C0009F012A1B3B0B9191992339F0EB01C40F1F
:1020D000D51F98834F5F5F4FF3CFCA01821B930BCD
:1020E000680F791FFB013297308331962083CA0134
:1020F000DF91CF91089590E0FC01E858FF4F3491B3
:10210000FC01EC54FF4F2491FC01E056FF4FE49199
:10211000EE2309F43BC0332339F1333091F038F426
:102120003130A9F0323001F584B58F7D12C03730DF
:1021300091F03830A1F03430B9F4809180008F7D77
:1021400003C0809180008F77809380000DC084B59C
:102150008F7784BD09C08091B0008F7703C08091D4
:10216000B0008F7D8093B000F0E0EE0FFF1FE457CA
:10217000FF4FA591B4918FB7F894EC91611103C012
:1021800020952E2301C02E2B2C938FBF08958230D3
:10219000910538F0880F991F880F991F05970197AF
:1021A000F1F708958F929F92AF92BF92CF92DF92F4
:1021B000EF92FF926B017C010E94A90F4B015C0121
:1021C000C114D104E104F10401F10E94370A0E9414
:1021D000A90FDC01CB0188199909AA09BB09883E1E
:1021E0009340A105B10560F321E0C21AD108E108CE
:1021F000F10888EE880E83E0981EA11CB11CC11462
:10220000D104E104F10419F7DBCFFF90EF90DF90E8
:10221000CF90BF90AF909F908F9008952FB7F89474
:1022200060917F037091800380918103909182037C
:102230002FBF08952F923F924F925F926F927F929D
:102240008F929F92AF92BF92CF92DF92EF92FF92C6
:102250000F931F93CF93DF93CDB7DEB761970FB680
:10226000F894DEBF0FBECDBF67E180911F0590914E
:1022700020050E94581680FD03C080E090E06EC1EA
:1022800080911F05909120050E94CC16E0912105B8
:10229000F091220582A5826082A76AE070E080E06A
:1022A00090E00E94D21064E279E080912105909143
:1022B00022050E94731B84E299E090931A05809393
:1022C00019050E940E112B013C01C12CE12C90E458
:1022D000292E312C3C862B868091000190910101A2
:1022E0009C012F5F3F4F30930101209300019E8797
:1022F0008D8782EC8F878091210590912205FC01CA
:1023000022A933A93A872987EE2089F02E2D30E0C3
:1023100021503109A901440F551F240F351F01E039
:1023200010E002C0000F111F2A95E2F702C000E082
:1023300010E020E030E040E050E0BE01675F7F4FFA
:102340000E94121A0E940E114B015C01F12C809127
:102350002105909122050E946518823C89F4FE01B6
:102360003196EF0DF11DEF0DF11DA0912105B091FA
:10237000220517968D919C91189791838083F394F1
:102380000E940E11DC01CB0188199909AA09BB0929
:10239000C897A105B10520F4F3E0FF15C0F633C0DE
:1023A000F11031C00E940E11DC01CB018419950996
:1023B000A609B70981369A4EA105B10508F05DCF8F
:1023C0002C2D30E02F5F3F4F8E2D90E00196289FFF
:1023D000B001299F700D389F700D1124675E7F4FEB
:1023E000660F771F072E000C880B990B0E94D210E6
:1023F00081E08E0D8370E82E81E08C0D6AE00E94F2
:10240000FA23C92E67CFD12C198ADF1408F03FC0F8
:1024100023EC2F8780911B05888BFE013196ED0DF3
:10242000F11DED0DF11D008111811C870B8720E04E
:1024300030E040E050E0BE01675F7F4F80912105B2
:10244000909122050E94121A0E940E114B015C010C
:102450000E940E11DC01CB0188199909AA09BB0958
:10246000813E9105A105B10550F48091210590911F
:1024700022050E946518898B803851F7DF2C65E0B2
:1024800070E080E090E00E94D210D394BECF8989A2
:10249000803809F087CFE0912105F09122058785EA
:1024A0009089009709F47ECF368520911B05321361
:1024B00079CF90931A058093190580911F0590910B
:1024C00020050E94CC166AE070E080E090E00E9457
:1024D000D2106091190570911A0580912105909193
:1024E00022050E94731B1C861B86E1E8EF8787E0AC
:1024F000F82E08E310E020E030E040E050E0BE01BC
:10250000675F7F4F80912105909122050E94121AEA
:10251000811119C0FA94F1100FC064E279E0809142
:102520002105909122050E94731B84E299E090930B
:102530001A058093190536CF63E070E080E090E0E3
:102540000E94D210D6CFE0912105F091220582A5FC
:102550008D7F82A78091190590911A0561960FB61B
:10256000F894DEBF0FBECDBFDF91CF911F910F91C9
:10257000FF90EF90DF90CF90BF90AF909F908F90A3
:102580007F906F905F904F903F902F900895CF92E3
:10259000DF92EF92FF921F93CF93DF93CDB7DEB719
:1025A000C254D1090FB6F894DEBF0FBECDBFDC0117
:1025B00012963C91129713964C91139714962C9166
:1025C000149715968C913FAF21964FAF2197229685
:1025D0002FAF229711E023961FAF23972396CCAC01
:1025E000DDACEEACFFAC2397CBAADCAAEDAAFEAA29
:1025F00039AF4AAF2BAF8CAF3DA74EA72FA718AB73
:10260000CDA4DEA4EFA4F8A8CFA2D8A6E9A6FAA686
:102610001EABCBA8DCA8EDA8FEA8C9A2DAA2EBA24B
:10262000FCA23B8F4C8F2D8F8E8F1AA77FA168A5A0
:1026300059A591E07D8B6E8B5F8B988F1CA3C9A0F1
:10264000DAA0EBA0FCA0CF86D88AE98AFA8A39877B
:102650004A872B878C87262F652F1A8B8F85988921
:10266000A989BA898B839C83AD83BE83DB848C85E7
:102670009AE0E92E95E0F92ED7011496ED91FC91A0
:10268000159782831296ED91FC91139707A0F0A500
:10269000E02D0284F385E02DF093AF03E093AE03C9
:1026A000EAEAF3E050E0532B54274527542751839F
:1026B000408390E09D2998278927982793838283D8
:1026C000E4EBF3E0822F90E0972B9227892798275D
:1026D00091838083862F90E0916093838283E0EBE7
:1026E000F3E08FEF9FEF918380838FEF90E09383F0
:1026F00082831E838B819C81AD81BE818093570430
:1027000090935804A0935904B0935A048EE390E038
:10271000A0E0B0E0F70183879487A587B6870E9481
:102720000E11D70117966D937D938D939C931A97F5
:102730001092A8031092A7031092A2031093A9036A
:1027400080E094E09093880380938703CE5BDF4F13
:102750000FB6F894DEBF0FBECDBFDF91CF911F91B2
:10276000FF90EF90DF90CF900895CF92DF92EF929D
:10277000FF92CF93DF93EC010E940E116B017C015D
:1027800080915B0490915C04DC01ED91FC910084EC
:10279000F185E02D0995892B79F40E940E11AB018A
:1027A000BC014C195D096E097F0948395A4361051E
:1027B000710530F380E00DC080915B0490915C0462
:1027C000DC01ED91FC910284F385E02D099588836D
:1027D00081E0DF91CF91FF90EF90DF90CF9008954F
:1027E0005F926F927F928F929F92AF92BF92CF92A1
:1027F000DF92EF92FF920F931F93CF93DF931F927D
:10280000CDB7DEB74C018DE594E00E94B513811180
:1028100026C022C00F5F1F4F8981F801E55AFB4F88
:102820008183282F2F7730E02C9DA0012D9D500D06
:102830003C9D500D1124A40EB51E37E0CC0CDD1CC0
:10284000EE1CFF1C3A95D1F787FF15C0CE0101960B
:102850000E94B5138111DECF80E090E088C07090B7
:102860005D04198201E010E0A12CB12CC12CD12C07
:102870007601C394EBCF872D807F5524539480330A
:1028800009F0512C8FEF800FD4018C93552021F14A
:10289000C801835A9B4F0E94B5138823E9F2C801EF
:1028A000825A9B4F0E94B5138823B1F20E5F1F4FCF
:1028B000D401EC91F0E0E55AFB4FE380F12CFE2CC3
:1028C000EE248481E80EF11C80915D0481FF08C034
:1028D000B2E0EB0EF11C04C080E0E12CF12C01C051
:1028E00082E0C82ED12CC01AD10A9EEF692E77241F
:1028F0007A94C601800F911F8A159B0568F5CE0159
:1029000001960E94B513882309F4A6CF8091F404A0
:102910009091F5040097A9F0552099F0F4012081D9
:10292000A301421B51099A01200F311FE216F30641
:1029300040F4DC01ED91FC910190F081E02D698182
:1029400009950038110528F48981F801E55AFB4FF3
:1029500082830F5F1F4FCDCF8091F4049091F504D7
:10296000892B21F40138110508F076CFC8010F90AA
:10297000DF91CF911F910F91FF90EF90DF90CF905B
:10298000BF90AF909F908F907F906F905F900895D1
:10299000CF92DF92EF92FF920F931F93CF93DF932B
:1029A00000D000D0CDB7DEB79A01E0E0922F9F773C
:1029B000220F232F221F330B31952115310509F0EA
:1029C000906801E00E0FA1E0B0E0AC0FBD1FAE0FAC
:1029D000B11DFD0190832115310511F0E02FE6CFE7
:1029E00010E0DB01A01BB10B14968C93FE01319615
:1029F0006F0180E090E08017910764F4F601F19098
:102A00006F019C01201B310B260F371FF901F58246
:102A10000196F1CF80915B0490915C044F5F5F4F12
:102A2000040F151FFC0120813181F90122813381BE
:102A3000A801BD01F90109957C010E940E11609366
:102A4000DF047093E0048093E1049093E20481E05A
:102A5000E016F10609F080E00F900F900F900F90B4
:102A6000DF91CF911F910F91FF90EF90DF90CF906A
:102A700008950F931F93CF93DF938C01EC0109907E
:102A80000020E9F72197C81BD90B0E942510882345
:102A900061F1CE0147968138910538F545E050E067
:102AA0006DE574E08EE492E00E945A10F80120E097
:102AB00030E02C173D0759F04191D901A80FB91FFB
:102AC000A55ABB4F12964C932F5F3F4FF2CF255024
:102AD0003109A901480F591F6DE574E080E3DF91CA
:102AE000CF911F910F910C94C81480E0DF91CF918A
:102AF0001F910F910895EF92FF920F931F93CF9321
:102B0000DF93EC017B018A016FE572E088EB93E0D3
:102B10000E94D501BE0188EB93E00E94D50161E7D8
:102B200072E088EB93E00E94D501E7010E0D1F1DB6
:102B3000C017D10731F0699188EB93E00E94CE0174
:102B4000F7CF64E772E088EB93E0DF91CF911F91BC
:102B50000F91FF90EF900C94D501FC012081318101
:102B6000828193812817390719F0822F0C947B10EA
:102B70000895CF93DF93EC019CB59F7D9CBD9CB5E0
:102B8000937F9CBD9CB59C7F9CBD9DB591609DBD78
:102B90008A810E947B108C899D89DF91CF910C9452
:102BA000C71061E00C94B91560E00C94B9158EBDA6
:102BB00000000DB407FEFDCF8EB50895EF92FF9291
:102BC0001F93CF93DF931F92CDB7DEB77C0169834C
:102BD0000E94D4156981862F0E94D715182FC7012E
:102BE0000E94D115812F0F90DF91CF911F91FF90FF
:102BF000EF90089561EE0C94DE15EF92FF921F9313
:102C0000CF93DF9300D0CDB7DEB77C014A836983D1
:102C10000E94D4156981862F8F7180620E94D7151A
:102C2000182F4A81842F0E94D715C7010E94D11501
:102C3000812F0F900F90DF91CF911F91FF90EF9018
:102C40000895CF92DF92EF92FF920F931F93CF934D
:102C5000DF9300D01F92CDB7DEB77C01142F2A83FB
:102C60005B8369830E94D4156981862F8F7180628E
:102C70000E94D715082FC12E5B81D52E2A81120FF5
:102C80001C1531F0F60181916F010E94D715F8CF24
:102C9000C7010E94D115802F0F900F900F90DF91E8
:102CA000CF911F910F91FF90EF90DF90CF900895FB
:102CB000EF92FF921F93CF93DF931F92CDB7DEB7B2
:102CC0007C0169830E94D4156981862F8F710E94CF
:102CD000D7158FEF0E94D715182FC7010E94D11565
:102CE000812F0F90DF91CF911F91FF90EF9008956A
:102CF000EF92FF920F931F93CF938C017B0166E0BD
:102D00000E945816C82FC77D82E0E816F10431F4FE
:102D1000C0628BE990E0A0E0B0E00DC0EA94EF283B
:102D200029F085E590E0A0E0B0E005C0C86081E44E
:102D300090E0A0E0B0E0F801808B918BA28BB38B88
:102D40004C2F66E0C8010E94FD1566E0C8010E9494
:102D5000581691E08C1390E0892FCF911F910F911D
:102D6000FF90EF900895CF93DF93EC0160E00E9415
:102D7000581681FD0EC0482F426060E0CE010E94CF
:102D8000FD1565E070E080E090E0DF91CF910C945C
:102D9000D210DF91CF910895CF93DF93EC0160E0E3
:102DA0000E94AD15888999890E94C7106DE1CE01F6
:102DB0000E94581681FF07C0888999890E94C71010
:102DC000CE010E94FA1560E0CE010E945816482FED
:102DD0004E7F60E0CE010E94FD1562E0CE010E94B0
:102DE0005816E8ECF0E0E49141E050E001C0440FF7
:102DF000EA95EAF7482B62E0CE01DF91CF910C947F
:102E0000FD158F929F92AF92BF92CF92DF92EF9279
:102E1000FF920F931F93CF93DF93EC017B01CCA81C
:102E2000D12C860108501109DB0116969C918CE685
:102E3000890F833020F0983C09F0CFC003C094394B
:102E400009F4E4C08BE6890F823018F0983C09F051
:102E50008EC06E0159EDC50ED11CD6012D913C914D
:102E6000A801420F531F4139510520F0C852DF4FCE
:102E70001882B1C05E01B8EDAB0EB11CF5018081C6
:102E8000882309F415C1963929F0D70117969C912A
:102E90009813A1C0FE01EB52FF4F40815181F70111
:102EA000848195814817590709F095C04E01FBEDC3
:102EB0008F0E911CD4018D919C91A801BE01615F80
:102EC0007F4F820F931F0E947425F60180819181AC
:102ED000080F191F11830083D70116968C9186392C
:102EE00029F0F50180818150808373C0D5011C9247
:102EF000F7018781FE01E952FF4F8083833809F48F
:102F000083C07E01FFECEF0EF11CF701A081B181BF
:102F1000CE018A1B9B0B8B539F4F80179107F8F0B4
:102F200032968AE001900D928A95E1F7D7018D9152
:102F30009C91F40160817181D6014D915C910A965A
:102F40000E947425F601808191810A96D7012D9106
:102F50003C911197820F931F8D939C933AC08FA53C
:102F600098A90E94CC168AA581608AA734C07E01E8
:102F7000BFECEB0EF11CF701A081B181CE01C5962B
:102F80009D01281B390BC901800F911F8B399105B9
:102F900010F5E85CF10988E001900D928A95E1F75F
:102FA000D701ED91FC911197118700878D919C912C
:102FB000BE01615F7F4FA8010A960E947425B2E0AE
:102FC000CB0ED11CF70180819181C80ED91ED18210
:102FD000C08281E06DC080E06BC0933841F6DE01B5
:102FE000AF52BF4FFE01379688E001900D928A954F
:102FF000E1F7FE01E552FF4FCE010F9691838083EA
:10300000C752DF4F1983088382E052C0F7018781DE
:10301000873008F02BCFFE01EB52FF4F40815181EA
:10302000D70114962D913C91159734976F01421753
:10303000530739F4408151812D913C914217530738
:1030400041F2F8E18F9FC0011124FE01E153FF4FCF
:1030500020813181AE01421B530B9A012B533F4F0C
:10306000281739073CF48AA581608AA78FA598A9FB
:103070000E94CC16FE01379688E0D60101900D9291
:103080008A95E1F7FE01E552FF4FBE01615F7F4F78
:10309000A801808191810E947425FE01E752FF4FB3
:1030A00011830083C852DF4F88818150888391CF7C
:1030B000DF91CF911F910F91FF90EF90DF90CF9014
:1030C000BF90AF909F908F9008953F924F925F92E4
:1030D0006F927F928F929F92AF92BF92CF92DF9228
:1030E000EF92FF920F931F93CF93DF93EC019AA57A
:1030F000892F827091FD17C0FE01E153FF4FAE0191
:103100004B5C5F4F90FD07C020813181241B350B44
:103110002937310544F0208131814217530708F4E3
:1031200029C19E7F9AA78E01095F1F4F502EEE2462
:10313000E394F12C6E0181E9C81A8EEFD80A74E28B
:10314000A72E79E0B72E8FA498A8F40180819181F1
:103150008F3F910511F480E00DC1F40182819381CC
:103160008F3F9105C1F367E1C4010E945816982F63
:103170009170792E80FDEFCF6FEFC4010E94DE15B4
:103180008FA498A8C4010E94D41580E60E94D71588
:103190008FEF0E94D715682EC4010E94D115F0E26E
:1031A000F61508F056C062EEC4010E94DE1562E01A
:1031B00070E080E090E00E94D2107CAA97E0971522
:1031C00038F06AE070E080E090E00E94D210BBCF5F
:1031D0008FA498A8F4018781472C871508F4482EFE
:1031E000F4019085911103C0382E341801C0312CA0
:1031F000C4010E94D41581E60E94D7153801450C00
:10320000461439F08FEF0E94D715F30181933F01E7
:10321000F7CF732C772029F08FEF0E94D7157A947F
:10322000F9CFC4010E94D11540E767E0C4010E94B4
:10323000FD1569857A85CB01009769F0282F2770E5
:10324000263008F080CF53E0969587955A95E1F7A0
:10325000F3CF762CB2CF8D852AA93BA962177307CD
:10326000E1F5823809F46FCF803881F46432794017
:10327000D1F0BA86A98642E064E279E0CE010E94EC
:10328000AE0E6AE070E080E090E040C0833C59F40C
:103290006115710541F078876F831A86198640E0C1
:1032A00060E070E063C099A5992319F087FF0CC016
:1032B00002C0813C49F49CE6980F933028F0883C8A
:1032C00019F0833809F056C0B801CE010E940117E9
:1032D000823009F038CF83E84DC06034710509F0C1
:1032E00044C0823CC9F48AA583FD2DCF243289E0F5
:1032F000380709F428CF8F8198859A87898738877E
:103300002F83F601608170E080E090E00E94D2108F
:1033100069857A8542E02AC0B801CE010E94011772
:10332000982E88818823E9F029A9222379F030E0BA
:1033300021503109C901880F991F280F391FB70182
:1033400002C0660F771F2A95E2F702C060E070E0C6
:1033500083E0660F771F8A95E1F744E0CE010E9473
:10336000AE0EF2E09F12EFCEB6CF41E0CE010E944A
:10337000AE0EE9CEDF91CF911F910F91FF90EF90AC
:10338000DF90CF90BF90AF909F908F907F906F9085
:103390005F904F903F900895CF93DF93EC010E9490
:1033A000B31660E0CE010E945816482F416060E0DD
:1033B000CE010E94FD1540E767E0CE010E94FD1599
:1033C00061E0CE010E94AD158985882349F02E85E4
:1033D000AE01475F5F4F6AE0CE010E94211614C024
:1033E00062E0CE010E945816E8ECF0E0E49121E0A2
:1033F00030E001C0220FEA95EAF72095422F4823DA
:1034000062E0CE010E94FD156DE1CE010E945816CA
:1034100081FF05C0CE01DF91CF910C94FA15DF91A9
:10342000CF9108952F923F924F925F926F927F9229
:103430008F929F92AF92BF92CF92DF92EF92FF92C4
:103440000F931F93CF93DF93EC017B015A01690126
:1034500048010E940E114BA45CA46DA47EA4DC0163
:10346000CB0184199509A609B7094997A105B105AA
:1034700028F4CE010E94651887FFEBCF8BE193E023
:103480000197F1F789E1C816D104B0F488E08C0DFA
:103490008CAB84019601A501B701CE010E94700F8B
:1034A000182F882311F011E092C00E940E116BA713
:1034B0007CA78DA79EA78BC0E1E9CE16D10408F0AA
:1034C00085C0C60168E170E00E94062421E0892BD6
:1034D00009F420E0C60168E170E00E940624722E23
:1034E000760EF701828193818034910539F08AA5A7
:1034F00084608AA78FA598A90E94CC16F701468000
:10350000512C612C84E9282E96E9392EF701778217
:10351000F1E07F1204C0F7013682478208C06110D3
:1035200003C0F701268203C085E9F7018683E8E13D
:103530006E9EA00111249601241B350B2931310503
:1035400010F028E130E088E0820F8CAB4A0D5B1D63
:103550008401B701CE010E94700F182F81110BC09A
:1035600062E070E080E090E00E94D2105394F2E0BC
:10357000F51560F606C07A946394772011F0512C0B
:10358000C5CFF70146828AA582FF12C049815A81C0
:103590006B817C818FA598A90E94101B182F8FA585
:1035A00098A90E94CC1960E08FA598A90E94FB1AE7
:1035B0008AA58B7F8AA7112349F0772009F473CF5E
:1035C0000E940E116BA77CA78DA79EA710E0812FEC
:1035D000DF91CF911F910F91FF90EF90DF90CF90EF
:1035E000BF90AF909F908F907F906F905F904F9023
:1035F0003F902F9008951F93CF93DF93EC01162FE8
:1036000061E00E945816482F112311F0416001C05B
:103610004E7F61E0CE01DF91CF911F910C94FD159B
:103620008F929F92AF92BF92CF92DF92EF92FF92D2
:10363000CF93DF93EC014A015B010E940E116B01F5
:103640007C0167E1CE010E94581684FD29C06FEF0E
:10365000CE010E94DE1584FFF4CF40E167E0CE0189
:103660000E94FD1560E0CE010E94AD1561E0CE0123
:103670000E94AD150E940E11DC01CB018C199D0931
:10368000AE09BF0988159905AA05BB05D0F260E00F
:10369000CE010E94AD15CE010E94FA1580E005C052
:1036A00060E0CE010E94AD1581E0DF91CF91FF90E7
:1036B000EF90DF90CF90BF90AF909F908F90089544
:1036C000CF93DF93BC0188EB93E00E94D501EC011E
:1036D00064E772E088EB93E00E94D5018C0F9D1F98
:1036E000DF91CF9108957F928F929F92AF92BF9278
:1036F000CF92DF92EF92FF920F931F93CF93DF93BE
:10370000CDB7DEB728970FB6F894DEBF0FBECDBF9A
:10371000FC019B012115310559F0822F87708630FD
:1037200008F0FAC0A3E036952795AA95E1F7F2CF05
:1037300062AB73AB87A590A9DC012D913C912F3F23
:10374000310509F4E9C0DC0112962D913C911397E3
:103750002F3F310509F4E0C0E72EF62E8F0160E01F
:103760000E94FB1AF801C7A4D0A86DE1C6010E940F
:103770005816482F44606DE1C6010E94FD156CE1AA
:10378000C6010E945816482F4F636CE1C6010E9483
:10379000FD1581E0D60118968C93F80182A993A9B2
:1037A00066E070E00E940624482F440F4B5FF0E172
:1037B0004F9FA0011124456064E0D8019F968D9130
:1037C0009C91D0970E94FD1589E190E0A0E0B0E0C7
:1037D000F80181839283A383B4838BE490E0968382
:1037E000858382A993A940E02FEF3FEFB9016823B9
:1037F0007923672B39F073E0220F331F7A95E1F7B5
:103800004F5FF4CFF80141AB20953095E059FE4F62
:103810003183208363E0369527956A95E1F73397E6
:10382000A90148235923518340832115310559F0BB
:1038300043E0969587954A95E1F753E036952795AD
:103840005A95E1F7F2CFF801E159FE4F808386E007
:10385000782E88248394912C7A94FFEF7F1609F4B4
:1038600054C0672D8F2D9E2D0E94960DD8019F96D6
:10387000CD90DC90D09729833A834B835C836D8312
:103880007E838F839887A72CB12C71100BC0F60113
:10389000468550E0BE016F5F7F4FC60109960E94CA
:1038A000742503C0F1E07F1208C0F501EC52FF4F10
:1038B0006491D6011E962C9105C0F501EC52FF4F84
:1038C000649121E0AE014F5F5F4FC6010E94211657
:1038D000F501E253FF4F6491F6014781C6010E9452
:1038E000FD1562E0C6010E945816F501E853FF4F2E
:1038F000E491940101C0220FEA95EAF7482F422B88
:1039000062E0C6010E94FD15A7CFD8019F968D9158
:103910009C91D0970E94CC1928960FB6F894DEBFE0
:103920000FBECDBFDF91CF911F910F91FF90EF9010
:10393000DF90CF90BF90AF909F908F907F90089531
:103940001F920F920FB60F9211242F933F938F93D4
:103950009F93AF93BF9380917F0390918003A09139
:103960008103B09182033091E70623E0230F2D37C6
:1039700020F40196A11DB11D05C026E8230F029673
:10398000A11DB11D2093E70680937F0390938003D0
:10399000A0938103B0938203809183039091840369
:1039A000A0918503B09186030196A11DB11D80935E
:1039B000830390938403A0938503B0938603BF9100
:1039C000AF919F918F913F912F910F900FBE0F90CC
:1039D0001F901895CF93DF93CDB7DEB72D970FB615
:1039E000F894DEBF0FBECDBF789484B5826084BDED
:1039F00084B5816084BD85B5826085BD85B58160F3
:103A000085BD80916E00816080936E001092810070
:103A1000809181008260809381008091810081602B
:103A200080938100809180008160809380008091EC
:103A3000B10084608093B1008091B0008160809378
:103A4000B00080917A00846080937A0080917A003F
:103A5000826080937A0080917A00816080937A00FE
:103A600080917A00806880937A001092C100E09182
:103A7000C803F091C90382E08083E091C403F09110
:103A8000C5031082E091C603F091C70380E18083F3
:103A90001092D003E091CC03F091CD0386E08083B7
:103AA000E091CA03F091CB03808180618083E09133
:103AB000CA03F091CB03808188608083E091CA03C0
:103AC000F091CB03808180688083E091CA03F091FC
:103AD000CB0380818F7D80830EE411E01A830983FC
:103AE0008091FA049091FB04A091FC04B091FD0434
:103AF0008B839C83AD83BE83CE0101960E940B1005
:103B00008BE795E19093E9048093E80486E591E0E2
:103B10000E94601B1A830983809106059091070516
:103B2000A0910805B09109058B839C83AD83BE836A
:103B3000CE0101960E94C7121A8309838091000565
:103B400090910105A0910205B09103058B839C83A0
:103B5000AD83BE83CE0101960E94ED0F83E691E016
:103B60000E94601BAAEAEA2EA0E0FA2EBEEBCB2E42
:103B7000B0E0DB2E11E6912E04E2A02E09E0B02E7B
:103B800000911F0510912005D8018D919C911197EE
:103B900012962D913C9113978217930711F00E9472
:103BA000CE0FF80182819381208131812817390756
:103BB00011F00E94CE0F8FB6F89480917802811197
:103BC00022C0F7018491F601249190E0880F991F9B
:103BD0008A569F4FFC01A591B4918C91282321F422
:103BE00061E08AE00E947B108AE00E94CE0F8CB5D3
:103BF00080618CBD8CB580648CBD8DE00E94CE0F41
:103C00008BE00E94CE0F809178028F5F80937802C4
:103C10008FBE60E0C8010E94AD1561E0C8010E943E
:103C2000B91565E070E080E090E00E94D2104CE0B1
:103C300060E0C8010E94FD154FE564E0C8010E94E4
:103C4000FD1562E070E0C8010E947816882321F01B
:103C500081E0D80116968C9366E0C8010E94581640
:103C600060E070E0C8010E947816C8010E94D41577
:103C700080E50E94D71583E70E94D715C8010E94EE
:103C8000D11540E06DE1C8010E94FD1540E06CE1F6
:103C9000C8010E94FD15F801108640E767E0C801E1
:103CA0000E94FD154CE465E0C8010E94FD1562EE1E
:103CB000C8010E94DE15C8010E94FA15C8010E94C1
:103CC000B31660E0C8010E945816482F4E7F60E08E
:103CD000C8010E94FD1590922C0541E665E0809197
:103CE0001F05909120050E94FD1560E070E0809115
:103CF0001F05909120050E947816009121051091D2
:103D0000220581E0D80199968C9380911B05882328
:103D100051F0B0921A05A09219050E941A11892B30
:103D200009F424C313C086E090E00E9442249093DB
:103D30001D0580931C0510921E0510921A05109205
:103D4000190560E070E0C8010E94731B8AED91E0E4
:103D50000E94601B11E064E670E080E090E00E9449
:103D6000D210112309F40CCF80910905805D809356
:103D70007C01E6EC2E2E2E01B8E04B0E511C0E9469
:103D80000E110091790210917A0220917B023091FC
:103D90007C02DC01CB01801B910BA20BB30B813D9C
:103DA0009740A105B10508F45EC00E94251081115D
:103DB000E3C259C08091210590912205DC019A96B9
:103DC0002C9120FD50C01C821B822091000130915B
:103DD0000101A9014F5F5F4F509301014093000122
:103DE0003E832D83B2E8BF8308E310E020E030E09B
:103DF00040E050E0BE016F5F7F4F0E94121A8111B8
:103E000032C067E670E080E090E00E94D210DA9461
:103E1000DD2009F4A1C38091190590911A0584321F
:103E2000994009F499C380912105909122050E943F
:103E300065182091190530911A052432E9E03E07F2
:103E400049F0833C11F4C092230590911B059923FE
:103E500009F4A9C267E180911F05909120050E9495
:103E6000581681FFA7CF0E942510811138C16DE738
:103E700071E088EB93E00E94D5010E94251081112A
:103E8000C9C06091F0047091F10480915B0490913D
:103E90005C044091F2045091F304DC01ED91FC913B
:103EA0006115710521F00088F189E02D16C00684A6
:103EB000F785E02D2EE431E03A8329830091EC046C
:103EC0001091ED042091EE043091EF040B831C83DC
:103ED0002D833E83BE016F5F7F4F09958130910531
:103EE00009F091C09093DE048093DD0487E0E8E060
:103EF000F1E0DE01119601900D928A95E1F7FE0145
:103F00003196A2E6B4E081918D93E415F505D9F7D9
:103F100082E08093690410926A048FE080936B04BE
:103F20004FE050E06DE574E08FE691E00E945A109A
:103F3000AC01455051096DE574E080E10E94C81460
:103F40000E940E116093DF047093E0048093E104FB
:103F50009093E2046093E3047093E4048093E50497
:103F60009093E60480915B0490915C04DC01ED91F8
:103F7000FC910084F185E02D0995892BC1F40E9404
:103F80000E110091E3041091E4042091E5043091B6
:103F9000E604DC01CB01801B910BA20BB30B88392B
:103FA0009A43A105B105F0F28CEF9FEF1CC0CE0142
:103FB0000B960E94F0130497D1F480916004811154
:103FC00011C00E940E116093E3047093E404809387
:103FD000E5049093E6041092E7041092F70410921F
:103FE000F60418C090E09093F7048093F604809153
:103FF0005B0490915C04DC01ED91FC910488F589EF
:10400000E02D09953DC08EEF9FEF9093F7048093CC
:10401000F60436C08BE991E00E94601B85EA91E0CE
:104020000E9439150E942510882309F458C08091F8
:10403000DD049091DE04019611F481E090E090930C
:10404000DE048093DD048091DD049091DE04909382
:1040500062048093630447E050E06DE574E081EB17
:1040600091E00E945A10FC01E55AFB4F1282AC010C
:10407000445051096DE574E082E80E94C8142FC0D5
:1040800069EB71E088EB93E00E94D501C090F604E3
:10409000D090F7040D2C000CEE08FF08F7FE0EC0C0
:1040A0006DE288EB93E00E94CE0144275527BA01C8
:1040B0004C195D096E097F092AE003C02AE0B701A7
:1040C000A60188EB93E00E94EA0185EC91E00E9452
:1040D000601B60ED77E080E090E00E94D2100E94CB
:1040E0002510882309F43FC10E940E116B017C0149
:1040F0008091E3049091E404A091E504B091E6047A
:10410000A7019601281B390B4A0B5B0BDA01C90189
:1041100089399A43A105B105A8F48091DF049091F3
:10412000E004A091E104B091E204A7019601281BEC
:10413000390B4A0B5B0BDA01C90189399A43A10596
:10414000B105C8F12091E70480915B0490915C0473
:10415000222371F02CEF3FEF3093F7042093F60405
:10416000DC01ED91FC910488F589E02D0995FBC0F7
:1041700020EC20935D0410925E04DC01ED91FC9133
:104180000280F381E02D42E050E06DE574E0099596
:10419000C092DF04D092E004E092E104F092E204E5
:1041A000C092E304D092E404E092E504F092E604C5
:1041B00081E08093E70480915B0490915C04DC01D2
:1041C000ED91FC910084F185E02D0995892B09F48E
:1041D000CAC0CE0101960E94F0138C01892B09F40C
:1041E000C2C0C092E304D092E404E092E504F092ED
:1041F000E60490905D04892D807F803309F098C09B
:10420000E091E804F091E904FD87EC87EF2B09F4D5
:10421000AAC06DB67EB6A981B0E0CD01855A9B4F8C
:10422000FC01A380B12CBA2CAA248481A80EB11C55
:10423000C50101962DB73EB7281B390B0FB6F89470
:104240003EBF0FBE2DBF8DB79EB70196BC0120E0CB
:1042500030E02A153B0569F0A9014A0F5B1F455A5A
:104260005B4FFA014581FB014193BF012F5F3F4F37
:10427000F0CFAC01420F531FFA011082F92DF670F6
:104280003F2E42E0F4133EC05901AA0EBB1EB501F9
:10429000655A7B4FFB01458150E0542F44276681CE
:1042A0004A01860E911C4BEF5FEF4A1B5B0B421BD2
:1042B000530B400F511FB5016E597B4FEC85FD85A7
:1042C000099580E480935D0430925E0490925F04CF
:1042D0008092600480915B0490915C04DC01ED911C
:1042E000FC910280F381E02D44E050E06DE574E044
:1042F0000995C092DF04D092E004E092E104F092CC
:10430000E20410C04DEF5FEF4A1B5B0B421B530BE7
:10431000400F511F2A0F3B1FB901605A7B4FEC859C
:10432000FD8509950FB6F8947EBE0FBE6DBE1BC00D
:10433000803CA9F480ED80935D0410925E0480912E
:104340005B0490915C04DC01ED91FC910280F381AF
:10435000E02D42E050E06DE574E0099504C0803D39
:1043600011F41092E7040E94940109CD8EED91E0C2
:104370000E94601B10E0EFCC86EE91E00E943915A0
:1043800085E492E00E94601B0E940E116093790206
:1043900070937A0280937B0290937C0284E0D82E03
:1043A000CC24C39434CD982F9D7F943C09F0B0C0A9
:1043B000E0912105F09122057F0147E0E40EF11C18
:1043C00047815085528741876785843C49F58091B4
:1043D0001E0520911C0530911D0590E0981791F065
:1043E00089012D5F3F4FA90143505109DA014C91DA
:1043F000461306C0D80111968D919C91129704C066
:104400009F5FECCF8FEF9FEF9A83898308E310E0E3
:1044100022E030E0AE014F5F5F4FB701CF0175C0C2
:10442000862F90E09A878987009709F45EC0232B36
:10443000C9F450911E0520911C0530911D0540E0E6
:10444000451709F44FC0F9012D5F3F4FD90112976D
:104450006D917C916817790719F4808190E047C0CD
:104460004F5FEECF1C821B82809100019091010171
:104470009C012F5F3F4F30930101209300019E83E9
:104480008D832F8208E310E022E030E0AE01475F29
:104490005F4FBE016F5F7F4FCF010E94121A8823CA
:1044A00009F10E940E114B015C0180912105909150
:1044B00022050E946518863C71F00E940E11DC01F5
:1044C000CB0188199909AA09BB09853F9140A1052B
:1044D000B10558F307C0E0912105F09122058785C9
:1044E000908905C08FEF9FEF02C080E090E09A8333
:1044F000898308E310E022E030E0AE014F5F5F4FB8
:10450000B70180912105909122050E94121AA2CC38
:10451000853C09F09FCCA0912105B0912205209106
:104520001C0530911D0580E090911E05891708F04B
:1045300091CCF90143E0849FE00DF11D11246181CC
:10454000728117964D915C9118976417750711F455
:10455000128211828F5FE8CF80911F059091200514
:104560000E94CC160E941A117ECCCF93DF93C0918B
:104570008E02D0918F02BC01CE0108960E94CD22FE
:10458000EDE7F2E0808188878181898782818A874F
:1045900083818B87DF91CF910895FC012381260FC2
:1045A00020938002A72FBB2792819A0F90937F02BE
:1045B000318130937E02408140937D02E92FF0E00B
:1045C000EA17FB0748F481E0830F80937E02811194
:1045D00003C04F5F40937D0230E0772726173707EF
:1045E00088F49F5F90937F0291110CC080917E02AE
:1045F0008F5F80937E02811105C080917D028F5F65
:1046000080937D0208950F931F93CF93DF93E1E38F
:10461000F5E08EE491E0918380831282138214820C
:104620001582E8EBF3E01382128248EE53E060E07B
:1046300070E044835583668377832AE131E03183D8
:10464000208325EC30E03587248724EC30E0378761
:10465000268720EC30E0318B208B21EC30E0338B4F
:10466000228B22EC30E0358B248B26EC30E0378B2C
:10467000268B118E128E138E148EE7E3F5E0918354
:1046800080831282138214821582EDE3F5E0918318
:1046900080831282138214821582E5E5F4E091830F
:1046A00080831282138214821582E3E4F5E0918301
:1046B00080831282138214821582E1EEF6E09183E8
:1046C00080831282138214821582E9ECF6E027E0DF
:1046D00030E03183208328E030E033832283168268
:1046E00020E22783108625E0268705E010E020E001
:1046F00030E0048B158B268B378B1186A7E5B5E050
:10470000D096FC93EE939F972CE835E030932706E4
:104710002093260624E336E03093330620933206B6
:1047200028E236E098963C932E9397979B961D929D
:104730001D921D921C929E979A961C929A979996FA
:104740001C9299971C9229E135E0E901FF83EE83E1
:10475000B987A887CAE0D5E0F983E883BB83AA8339
:104760003D832C83E4E0F5E0918380832AE022837B
:10477000238332E03483A9E0A583EEEFF4E0918354
:1047800080832283238334833583E8EFF4E09183AD
:1047900080832283238334833583E9E4F5E0138225
:1047A000128244835583668377832CE231E0318320
:1047B0002083158614869093EB048093EA0410926C
:1047C000EC041092ED041092EE041092EF048FEFBF
:1047D0009FEF9093F7048093F604F0935C04E093CA
:1047E0005B041092F5041092F404DF91CF911F91B5
:1047F0000F910895991B79E004C0991F961708F04E
:10480000961B881F7A95C9F780950895AA1BBB1B34
:1048100051E107C0AA1FBB1FA617B70710F0A61BC0
:10482000B70B881F991F5A95A9F780959095BC01E1
:10483000CD010895A1E21A2EAA1BBB1BFD010DC0DC
:10484000AA1FBB1FEE1FFF1FA217B307E407F50740
:1048500020F0A21BB30BE40BF50B661F771F881F1C
:10486000991F1A9469F760957095809590959B01B2
:10487000AC01BD01CF010895EE0FFF1F0590F4912B
:10488000E02D0994CF93DF938230910510F482E0FC
:1048900090E0E091EA06F091EB0620E030E0C0E025
:1048A000D0E0309711F14081518148175907C0F08D
:1048B0004817590761F482819381209719F09B83EF
:1048C0008A832BC09093EB068093EA0626C02115BD
:1048D000310519F04217530718F49A01BE01DF01A0
:1048E000EF010280F381E02DDCCF2115310509F1C4
:1048F000281B390B2430310590F412968D919C9130
:1049000013976115710521F0FB019383828304C025
:104910009093EB068093EA06FD01329644C0FD01B8
:10492000E20FF31F81939193225031092D933C9311
:104930003AC02091E8063091E906232B41F42091FA
:104940000401309105013093E9062093E806209197
:104950000201309103012115310541F42DB73EB715
:104960004091060150910701241B350BE091E806A8
:10497000F091E906E217F307A0F42E1B3F0B28176E
:10498000390778F0AC014E5F5F4F2417350748F0C8
:104990004E0F5F1F5093E9064093E8068193919371
:1049A00002C0E0E0F0E0CF01DF91CF9108950F93D6
:1049B0001F93CF93DF93009709F48CC0FC013297CB
:1049C000138212820091EA061091EB06011511057F
:1049D00081F420813181820F931F2091E80630916C
:1049E000E9062817390779F5F093E906E093E80618
:1049F00071C0D80140E050E0AE17BF0750F41296E6
:104A00002D913C911397AD012115310509F1D90183
:104A1000F3CF9D01DA013383228360817181860F98
:104A2000971F8217930769F4EC0128813981260FBB
:104A3000371F2E5F3F4F318320838A819B81938371
:104A40008283452B29F4F093EB06E093EA0642C0FB
:104A50001396FC93EE931297ED01499159919E01A3
:104A6000240F351FE217F30771F480819181840FC1
:104A7000951F029611969C938E9382819381139633
:104A80009C938E931297E0E0F0E0D80112968D91FE
:104A90009C911397009719F0F8018C01F6CF8D9136
:104AA0009C9198012E5F3F4F820F931F2091E80643
:104AB0003091E9062817390769F4309729F41092E4
:104AC000EB061092EA0602C0138212821093E906E6
:104AD0000093E806DF91CF911F910F91089581E037
:104AE00090E0F8940C947D25FB01DC0102C001905C
:0E4AF0000D9241505040D8F70895F894FFCF32
:104AFE0001000000EC06800000044D51545404C324
:104B0E003C33CE3EE3EC000000002B019800C300C6
:104B1E007201F400D200E600000000002C0B270BFF
:104B2E00EA086908A30A9C087E08740BCA086B0978
:104B3E00540BCD08400BB808DF080000000033020C
:104B4E00000000009E014265666F7265205374611D
:104B5E007274004265666F7265204D657368006100
:104B6E00726475696E6F436C69656E74004174741E
:104B7E00656D7074696E67204D51545420636F6E6D
:104B8E006E656374696F6E2E2E2E00636F6E6E658A
:104B9E00637465640068656C6C6F20776F726C640B
:104BAE0000696E546F706963006661696C65642C90
:104BBE002072633D002074727920696E20696E2028
:104BCE0032207365636F6E647300204F4B00204676
:104BDE0061696C65640031323134313234323134D2
:104BEE0023313223313233233333332331313123E3
:104BFE0034343423313131233434342339393923A5
:104C0E0032303030233230303023323030302332B5
:104C1E0030303023323030302332303030233230A7
:104C2E0030302332303030233023313234233123AD
:104C3E00302337350053656E64206D736700736DD6
:104C4E00617274666163746F72792F667473004D4E
:104C5E006573736167652061727269766564205B46
:084C6E00005D20000D0A0000AA
:00000001FF
