:100000000C946E000C9496000C9496000C94960040
:100010000C9496000C9496000C9496000C94960008
:100020000C9496000C9496000C9496000C949600F8
:100030000C9496000C9496000C9496000C949600E8
:100040000C9451170C9496000C9475020C944F026A
:100050000C9496000C9496000C9496000C949600C8
:100060000C9496000C9496003E0E840CDB0EDA0F76
:10007000021020102A10CE0F0000000025002800DA
:100080002B0000000000240027002A0004040404C0
:100090000404040402020202020203030303030332
:1000A000010204081020408001020408102001020F
:1000B0000408102000010203040511121314151680
:1000C0000A0B0C0D0E0F00000008000201000003D7
:1000D000040700000000000000001D2111241FBEC5
:1000E000CFEFD8E0DEBFCDBF12E0A0E0B1E0E2E4A8
:1000F000F7E402C005900D92A832B107D9F726E0C7
:10010000A8E2B2E001C01D92A03AB207E1F710E008
:10011000CEE6D0E004C02197FE010E945E22CD36DB
:10012000D107C9F70E94C91A0C949F230C940000B0
:10013000DC01ED91FC910190F081E02D0994CF92CA
:10014000DF92EF92FF920F931F93CF93DF936C0197
:100150007A018B01C0E0D0E0CE15DF0589F0D8012F
:100160006D918D01D601ED91FC910190F081E02D12
:10017000C6010995892B11F47E0102C02196ECCFAE
:10018000C701DF91CF911F910F91FF90EF90DF900A
:10019000CF900895089580E090E00895FC01538D7C
:1001A000448D252F30E0842F90E0821B930B541751
:1001B00010F0CF96089501970895FC01918D828DDE
:1001C000981761F0828DDF01A80FB11D5D968C91AB
:1001D000928D9F5F9F73928F90E008958FEF9FEFB6
:1001E0000895FC01918D828D981731F0828DE80F72
:1001F000F11D858D90E008958FEF9FEF0895FC012C
:10020000918D228D892F90E0805C9F4F821B9109F8
:100210008F739927089587E393E00E94FF0021E000
:10022000892B09F420E0822F0895FC01848DDF01E1
:10023000A80FB11DA35ABF4F2C91848D90E0019659
:100240008F739927848FA689B7892C93A089B18948
:100250008C9180648C93938D848D981306C0028852
:10026000F389E02D80818F7D80830895EF92FF9246
:100270000F931F93CF93DF93EC0181E0888F9B8DC9
:100280008C8D981305C0E889F989808185FD24C08B
:10029000F62E0B8D10E00F5F1F4F0F731127E02E0E
:1002A0008C8DE8120CC00FB607FCFACFE889F989EB
:1002B000808185FFF5CFCE010E941501F1CF8B8D96
:1002C000FE01E80FF11DE35AFF4FF0820B8FEA8920
:1002D000FB898081806207C0EE89FF896083E8899D
:1002E000F98980818064808381E090E0DF91CF9103
:1002F0001F910F91FF90EF900895CF93DF93EC0142
:10030000888D8823C9F0EA89FB89808185FD05C035
:10031000A889B9898C9186FD0FC00FB607FCF5CF6F
:10032000808185FFF2CFA889B9898C9185FFEDCFB7
:10033000CE010E941501E7CFDF91CF91089580E0B3
:1003400090E0892B29F00E940B0181110C94000090
:1003500008950E9491236115710579F0FB010190C8
:100360000020E9F73197AF01461B570BDC01ED91F7
:10037000FC910280F381E02D099480E090E00895E3
:100380004F925F926F927F92EF92FF920F931F9323
:10039000CF93DF93CDB7DEB7A1970FB6F894DEBF4A
:1003A0000FBECDBF7C01FA01CB0119A2223008F4A7
:1003B0002AE08E010F5D1F4F422E512C612C712CB3
:1003C000BF01A30192010E943C22F901CA01015020
:1003D00011096A3014F4605D01C0695CD8016C9346
:1003E000232B242B252B61F7B801C7010E94AB01F9
:1003F000A1960FB6F894DEBF0FBECDBFDF91CF91AF
:100400001F910F91FF90EF907F906F905F904F90B2
:1004100008958F929F92AF92BF92CF92DF92EF9208
:10042000FF920F931F93CF93DF937C018B016C019D
:1004300082E0C80ED11C4701E5E08E0E911CC0E0A1
:10044000D0E0F60141916F0150E060E070E02AE0F9
:10045000C8010E94C0015C016EE2C8010E949800C0
:100460008A0D9B1DC80FD91FC814D90451F7F70175
:10047000458150E060E070E02AE0C8010E94C001C0
:100480008C0F9D1FDF91CF911F910F91FF90EF90E7
:10049000DF90CF90BF90AF909F908F9008951F9264
:1004A0000F920FB60F9211242F933F934F935F93A8
:1004B0006F937F938F939F93AF93BF93EF93FF932C
:1004C00087E393E00E941501FF91EF91BF91AF91F7
:1004D0009F918F917F916F915F914F913F912F915C
:1004E0000F900FBE0F901F9018951F920F920FB68E
:1004F0000F9211242F938F939F93EF93FF93E0918B
:100500004703F09148038081E0914D03F0914E0341
:1005100082FD12C09081809150038F5F8F73209174
:100520005103821751F0E0915003F0E0E95CFC4F79
:10053000958F8093500301C08081FF91EF919F912F
:100540008F912F910F900FBE0F901F901895FC0167
:10055000448555854115510551F0FB0124853585AC
:100560002115310521F081E04217530709F080E0A1
:10057000089580E090E00895DC011C96ED91FC91D7
:100580001D97309739F08181811106C08081829555
:100590008170089580E0089581E00895DC01ED9177
:1005A000FC91028CF38DE02D099591E08927089547
:1005B000CF93DF93DC01FB01EC01C359DE4F68816F
:1005C000798122969881828140815181823028F000
:1005D000BA0181E0838390E027C0ED01C059DE4F6E
:1005E00028813981EA01C223D323D2960D90BC9190
:1005F000A02DCA17DB07C1F4C9018095909563E06F
:10060000880F991F6A95E1F784239523892B51F070
:1006100083E0220F331F8A95E1F72760BA01622336
:10062000732301C0BA0195E071836083928381E0F6
:10063000DF91CF910895CF93DF93EC010E948A114F
:10064000E881F981008CF18DE02DCE010995882398
:1006500051F0EC85FD858181882329F0EA51FF4F17
:100660008081918102C080E090E0DF91CF91089578
:10067000CF93DF93EC010E948A11EC85FD853097C2
:1006800029F0808186FF04C0818103C080E001C021
:1006900081E0DF91CF910895CF93DF93DC011C9629
:1006A000ED91FC911D97309779F09081992361F03D
:1006B0001182EF01CA51DF4F1982188296FF02C0E2
:1006C000108202C0906290831D961C921E921C970D
:1006D000DF91CF910C948A11EF92FF920F931F93A9
:1006E000CF93DF938C017B01EA010E944517D8016B
:1006F000ED91FC910488F589E02DC8010995F70179
:10070000828190E0982F88272381822B9827892740
:100710009827248130E0322F22274581242B32274D
:1007200023273227FC2FED2F60916F067091700602
:1007300050918A06C0917506D09176066F5F7F4F03
:1007400061154DE7740710F060E070E1B62FA72F38
:10075000552319F0CA17DB0789F37093700660936D
:100760006F06511105C010929106C1E7D6E00AC08C
:10077000573019F0C0E0D0E002C0C1E7D6E041E058
:1007800040939106209719F480E090E040C042E049
:10079000498F409119034C8740911A034D8740912E
:1007A0001B034E8740911C034F8767E670E07B8BED
:1007B0006A8B7D8B6C8B41E050E0598B488B1B8E94
:1007C0004A8F48E0488F1E8A40E14F8B60916F0648
:1007D000709170067627672776277D836C83FF8369
:1007E000EE83998388833B832A83898D8F7061F29E
:1007F0000E948A11898D8F708330B9F78C8D9D8D01
:10080000D8011D969C938E931C9781E090E0DF9118
:10081000CF911F910F91FF90EF9008957F928F924B
:100820009F92AF92BF92CF92DF92EF92FF920F937F
:100830001F93CF93DF93EC016B017A018A01483655
:10084000510510F007E610E00E944517812C912C0D
:100850005E01E8EEAE0EB11C772473940E948A11FB
:10086000209781F18881982F907661F584FF2AC0C6
:100870008B819C819801280F391F2836310570F72C
:10088000F50120812111EACF4696B601680D791D48
:10089000A8018C0F9D1F0E9496237A828B819C81D8
:1008A000800F911F9C838B83800E911E8E149F045A
:1008B00070F48701081919090836110578F207E65E
:1008C00010E0CCCFC851DF4F18828FEF9FEFDF9140
:1008D000CF911F910F91FF90EF90DF90CF90BF903D
:1008E000AF909F908F907F900895FC0184859585AF
:1008F0000C940E04CF93DF931F92CDB7DEB76983BC
:1009000041E050E0BE016F5F7F4FFC01848595851B
:100910000E940E040F90DF91CF9108950F931F93C3
:10092000CF93DF93E0912203F0912303C48DD58D03
:1009300080911D03209701F586FF6BC190912B02DA
:10094000911167C190E190932B0210922C021092AA
:100950002D021092120310921103109210031092A4
:100960000F0310922F0210922E02109213032BE20B
:1009700032E0358F248FE90181FF4FC0DE01A7519E
:10098000BF4F8C91882331F01A8219861C821B82FA
:1009900011971C928091170390911803892B09F4E9
:1009A000ECC08881807609F0E8C0818D8061818FFC
:1009B00088818F77888319860E9445176A877B878D
:1009C0008C879D876A8B7B8B8C8B9D8B8E010A51CC
:1009D0001F4FF80120813181329780819181820FF0
:1009E000931F83589F4F6091200370912103409182
:1009F0001703509118038C0F9D1F0E94962320917E
:100A0000170330911803F80180819181820F931FA1
:100A10009183808381E08983B0C084FD04C087FD19
:100A200002C085FF10C01A828981882341F0848129
:100A300095819B838A8388818064888301C0188222
:100A4000158E148E9AC080FF15C088818F77888399
:100A50001A8219861C821B82FE01E851FF4F108208
:100A60000E9445176A877B878C879D876A8B7B8B63
:100A70008C8B9D8B80911D038C7009F466C08A81DC
:100A8000882309F14B815C8150931803409317032D
:100A9000BE016A5E7F4F50931603409315031416F0
:100AA00015064CF480911E0390911F036817790777
:100AB00011F00E94962381E0FE01E851FF4F8083F0
:100AC000319680835AC08881982F9076F1F5998568
:100AD0009923D9F187FF39C00E9445170A851B85E4
:100AE0002C853D85DC01CB01801B910BA20BB30B48
:100AF0000E851F8528893989081719072A073B079A
:100B000008F465C022C08E859F85A889B9898C505C
:100B10009E4FAF4FBF4F8935FBE19F07A105B10540
:100B200020F088E59BE1A0E0B0E08E879F87A88B4E
:100B3000B98B80911D03826080931D03E091220395
:100B4000F0912303818D8F7E818F888185FF15C071
:100B50008A8181110BC01882E0912203F091230356
:100B6000158E148E80E180931D0307C0E09122034F
:100B7000F0912303818D8061818F888187FF49C037
:100B80009985911146C0807609F043C080911D037C
:100B9000826080931D03E0912203F0912303818DF5
:100BA0008F7E818F81E089878EE194E1A0E0B0E0C3
:100BB0008E879F87A88BB98B0E9445176A8B7B8B8A
:100BC0008C8B9D8B6A877B878C879D8722C00E9438
:100BD00045176A877B878C879D870E9445170A89FE
:100BE0001B892C893D89DC01CB01801B910BA20B59
:100BF000B30B80339547A105B10508F484CF19865E
:100C00001882E0912203F0912303158E148E80E266
:100C1000AACFDF91CF911F910F910895CF93DF93CA
:100C2000CDB7DEB728970FB6F894DEBF0FBECDBFA5
:100C3000AC019CEC99839A839B839C839D831E8249
:100C40001F8218869A01E1E021153105C9F0611172
:100C500003C04115510569F4D901A770BB27A15FF5
:100C6000BE4F8C91A1E0B0E0AC0FBD1FAE0FB11D27
:100C70008C9383E0369527958A95E1F7EF5FE4CF73
:100C8000611102C0452B39F4E62FF0E0E15FFE4F21
:100C90008081898305C0F0E0E25FFE4F80818A8316
:100CA00029813A814B815C816D817E818F8198851C
:100CB00028960FB6F894DEBF0FBECDBFDF91CF915F
:100CC00008956F927F928F929F92AF92BF92CF9230
:100CD000DF92EF92FF920F931F93CF93DF93CDB7E5
:100CE000DEB728970FB6F894DEBF0FBECDBF8C01DC
:100CF000CB01D22E642F0E940E0639014A015B01FE
:100D00007C01F80182A582FD04C087A590A90E94FC
:100D10000E15F80187A590A9DD2011F060E001C053
:100D200061E00E940912F801C7A4D0A869827A8202
:100D30008B829C82AD82BE82EF82F886F601268588
:100D4000AE014F5F5F4F6AE0C6010E947C14F6015E
:100D50002685AE014F5F5F4F60E1C6010E947C14A3
:100D6000F601478161E1C6010E945814F801B4A858
:100D7000C7A4D0A86FEFC6010E94391480FF0DC030
:100D80006FEFC6010E94391484FFF4CF40E167E0A1
:100D9000C6010E945814F12C30C0F601F780EF2CE8
:100DA000BF1408F4EB2CF6018085811102C0FE18F7
:100DB00001C0F12CC6010E942F1480EA0E94321457
:100DC0005801F7E0AF0EB11CEA0CEA1431F0F5015E
:100DD00081915F010E943214F8CFFF2029F080E05A
:100DE0000E943214FA94F9CFC6010E942C1461E0DB
:100DF000C6010E940814FF24F394F80182A582FD25
:100E00000FC0418152816381748187A590A90E949E
:100E10001E12F82E60E0F80187A590A90E94091221
:100E20008F2D28960FB6F894DEBF0FBECDBFDF9191
:100E3000CF911F910F91FF90EF90DF90CF90BF90D7
:100E4000AF909F908F907F906F900895CF92DF9298
:100E5000EF92FF920F931F93CF93DF9300D000D0B8
:100E6000CDB7DEB7FC0195859B012115310561F0F9
:100E7000822F8770863030F483E0369527958A95E7
:100E8000E1F7F3CF80E097C09154EE24E3949F37CD
:100E900008F0E12CF42E6B018F0119821A821B825B
:100EA0001C827A8369834B83BE016F5F7F4FCF01C2
:100EB0000E94D80269817A812C814B81C8010E94ED
:100EC0006106F1E0FF1227C0811102C0F12C6AC057
:100ED00089819A818C159D0501F5EE20F1F081EC58
:100EE000F801858787819085928781879A83898396
:100EF000FB821C82BE016F5F7F4FC8010E94D80237
:100F000088E0F80184AB69817A812C814B81C8012A
:100F10000E94610602C08823C9F289819A818C15DA
:100F20009D0519F4FF24F3943DC0FF2019F0F3E070
:100F3000FF12F8CFEE20B1F3F80182A582FF11C0B5
:100F4000418152816381748187A590A90E941E12FC
:100F5000F80182A58B7F82A760E087A590A90E94F7
:100F60000912F80187A590A90E94FF160E94451753
:100F70006B017C01C8010E947F15813C99F20E949F
:100F80004517AB01BC014C195D096E097F09F801D9
:100F900085819681A0E0B0E084179507A607B70782
:100FA00048F794CFF80182A582FD04C087A590A9D7
:100FB0000E94FF168F2D0F900F900F900F90DF91D2
:100FC000CF911F910F91FF90EF90DF90CF900895F8
:100FD000EF92FF920F931F93CF93DF93EC017B016E
:100FE000BA018AA99BA9F70191838083DE01179634
:100FF00088E001900D928A95E1F72115310529F0DD
:10100000A901CE010F960E949623F7016281738198
:101010000833110561F06034710511F444E001C03A
:1010200043E06017710709F442E0B80101C040E0F5
:10103000CE01DF91CF911F910F91FF90EF900C9413
:1010400026072F923F924F925F926F927F928F92DC
:101050009F92AF92BF92CF92DF92EF92FF920F9347
:101060001F93CF93DF93EC017B015A016901480183
:101070000E9445174BA45CA46DA47EA4DC01CB01A7
:1010800084199509A609B7094997A105B10528F45E
:10109000CE010E947F1587FFEBCF8BE193E0019794
:1010A000F1F789E1C816D104B0F488E08C0D8CAB5F
:1010B00084019601A501B701CE010E94E807182F0F
:1010C000882311F011E092C00E9445176BA77CA7FE
:1010D0008DA79EA78BC0E1E9CE16D10408F085C08C
:1010E000C60168E170E00E94282221E0892B09F402
:1010F00020E0C60168E170E00E942822722E760E80
:10110000F701828193818034910539F08AA584604A
:101110008AA78FA598A90E940E15F7014680512C29
:10112000612C84E9282E96E9392EF7017782F1E0C7
:101130007F1204C0F7013682478208C0611003C0E5
:10114000F701268203C085E9F7018683E8E16E9EF8
:10115000A00111249601241B350B2931310510F013
:1011600028E130E088E0820F8CAB4A0D5B1D8401E2
:10117000B701CE010E94E807182F81110BC062E071
:1011800070E080E090E00E9443155394F2E0F51582
:1011900060F606C07A946394772011F0512CC5CF85
:1011A000F70146828AA582FF12C049815A816B816C
:1011B0007C818FA598A90E941E12182F8FA598A92F
:1011C0000E94FF1660E08FA598A90E9409128AA5C7
:1011D0008B7F8AA7112349F0772009F473CF0E94EF
:1011E00045176BA77CA78DA79EA710E0812FDF91E5
:1011F000CF911F910F91FF90EF90DF90CF90BF9014
:10120000AF909F908F907F906F905F904F903F90A6
:101210002F9008958F929F92AF92BF92CF92DF92BC
:10122000EF92FF920F931F93CF93DF93EC017B011B
:10123000CCA8D12C860108501109DB0116969C918F
:101240008CE6890F833020F0983C09F0CFC003C0B2
:10125000943909F4E4C08BE6890F823018F0983C89
:1012600009F08EC06E0159EDC50ED11CD6012D912D
:101270003C91A801420F531F4139510520F0C8523B
:10128000DF4F1882B1C05E01B8EDAB0EB11CF501A5
:101290008081882309F415C1963929F0D701179662
:1012A0009C919813A1C0FE01EB52FF4F40815181E8
:1012B000F701848195814817590709F095C04E01BF
:1012C000FBED8F0E911CD4018D919C91A801BE0164
:1012D000615F7F4F820F931F0E949623F6018081EA
:1012E0009181080F191F11830083D70116968C91E5
:1012F000863929F0F50180818150808373C0D50142
:101300001C92F7018781FE01E952FF4F80838338E9
:1013100009F483C07E01FFECEF0EF11CF701A08100
:10132000B181CE018A1B9B0B8B539F4F8017910776
:10133000F8F032968AE001900D928A95E1F7D70194
:101340008D919C91F40160817181D6014D915C91E8
:101350000A960E949623F601808191810A96D70110
:101360002D913C911197820F931F8D939C933AC0BE
:101370008FA598A90E940E158AA581608AA734C0FE
:101380007E01BFECEB0EF11CF701A081B181CE0113
:10139000C5969D01281B390BC901800F911F8B3900
:1013A000910510F5E85CF10988E001900D928A95AD
:1013B000E1F7D701ED91FC911197118700878D918D
:1013C0009C91BE01615F7F4FA8010A960E949623FF
:1013D000B2E0CB0ED11CF70180819181C80ED91EDD
:1013E000D182C08281E06DC080E06BC0933841F64D
:1013F000DE01AF52BF4FFE01379688E001900D929B
:101400008A95E1F7FE01E552FF4FCE010F969183D9
:101410008083C752DF4F1983088382E052C0F701EF
:101420008781873008F02BCFFE01EB52FF4F4081C0
:101430005181D70114962D913C91159734976F01E6
:101440004217530739F4408151812D913C91421745
:10145000530741F2F8E18F9FC0011124FE01E153CF
:10146000FF4F20813181AE01421B530B9A012B5358
:101470003F4F281739073CF48AA581608AA78FA5BA
:1014800098A90E940E15FE01379688E0D6010190BA
:101490000D928A95E1F7FE01E552FF4FBE01615FB3
:1014A0007F4FA801808191810E949623FE01E7521F
:1014B000FF4F11830083C852DF4F8881815088839A
:1014C00091CFDF91CF911F910F91FF90EF90DF901F
:1014D000CF90BF90AF909F908F900895FB014150A7
:1014E0005109460F571FE417F50778F4208130E0C3
:1014F000322F22276181260F311D820F931F821701
:10150000930708F401963296EECFE417F50751F4ED
:10151000208130E0322F2227820F931F82179307FA
:1015200008F4019608950F931F93CF93DF930091D2
:10153000960610919706F801C281D0E0DC2FCC27E7
:101540008381C80FD11DB801645F7F4F48E050E030
:10155000CE010E970E946E0AAE0144515109B801A6
:101560006C5E7F4F0E946E0A009721F098278927B2
:10157000982702C08FEF9FEFDF91CF911F910F91BE
:101580000895609196067091970644E150E080E0DE
:1015900090E00E946E0A009721F0982789279827EB
:1015A00008958FEF9FEF0895CF93DF93EC01E881CB
:1015B000F981008CF18DE02D0995882339F0EC85B7
:1015C000FD851182EA51FF4F11821082DF91CF9188
:1015D0000895CF93DF93EC01E881F9810084F185D0
:1015E000E02D0995892B71F0EC85FD85DF01AC516B
:1015F000BF4F8D919C91E80FF91FE358FF4F8081F9
:1016000090E002C08FEF9FEFDF91CF910895CF93CD
:10161000DF931F92CDB7DEB7DC01ED91FC9102881C
:10162000F389E02D41E050E0BE016F5F7F4F0995E7
:1016300097FD03C0898190E002C08FEF9FEF0F906C
:10164000DF91CF910895CF92DF92EF92FF920F93A7
:101650001F93CF93DF93C0912203D0912303009176
:10166000960610919706680128E2C20ED11CD0920E
:101670002103C0922003D0921F03C0921E03833027
:1016800059F4898D8F70833009F062C588899989F2
:10169000892B09F05DC57EC0823009F081C0809140
:1016A0001C038F5F80931C03811113C080911B0367
:1016B0008F5F80931B0381110CC080911A038F5F91
:1016C00080931A03811105C0809119038F5F809365
:1016D0001903109218031092170310921603109218
:1016E0001503898D982F9D7F953041F48A8D8F5FEA
:1016F0008A8F883709F02CC5198E2AC5882309F4EA
:1017000027C528893989232B09F440C09A8D2FEFEA
:10171000290F2A8F91111CC59B8D9A3031F02FEF24
:10172000280F223048F4933039F4198E80E88093E2
:101730001D030E948E04CCC3953038F428E0092E96
:1017400001C0220F0A94EAF701C020E82A8F9F5FA8
:101750009B8F8F708330A1F048F4813009F4C6C1AB
:10176000823009F0F5C4F80111A2C6C1863009F42F
:1017700050C3883009F44DC3843009F0E9C449C32B
:1017800084E080931D030E948E04DAC38F7083303F
:1017900009F0DEC488E080931D030E948E048FC38D
:1017A000F8018081853409F0D3C4E280F12CFE2C4D
:1017B000EE248381E80EF11C8091170390911803A9
:1017C0008E159F0508F4C4C4F0921803E092170325
:1017D00086818F7309F0BCC487818111B9C4C0911F
:1017E0009206D0919306209731F4809194069091BF
:1017F0009506892B89F0F801808991898C179D07BE
:1018000009F0A6C4228933898091940690919506A7
:101810002817390709F09CC40E94C10A019609F0F3
:1018200097C4F8018185863031F1813009F090C488
:101830008489883009F08CC4148A86899789873F07
:10184000FFEF9F0710F0099601C00896F801978BEB
:10185000868BF80184859585918B808B868597850D
:10186000938B828BD587C48780919406909195063F
:101870009787868771C40E94930A019609F068C40D
:1018800090918A06F80181A1992329F14689578907
:10189000209175063091760642175307E1F444898A
:1018A000558920917706309178064217530799F4AD
:1018B0004485558520917106309172064217530771
:1018C00051F446855785209173063091740642176E
:1018D000530709F427C18F73823009F5F80126896F
:1018E000378930932C0320932B0340918F0650911E
:1018F00090062417350709F03AC4911161C010927F
:101900009106C1E7D6E066C080911D0380FDCEC17F
:1019100080E280931D030E948E0410928A06E0915B
:101920009606F091970681A182FD12C484E181A3FD
:1019300088E290E0909318038093170380E580A3DA
:10194000338D878D838F228D868D828F268F918D0B
:10195000858D818F958F808D80939106448D408FEA
:10196000848F3F5F378F31110AC02F5F268F21117F
:1019700006C09F5F958F911102C08F5F848F84890D
:10198000958990932C0380932B0326893789358B77
:10199000248B978B868B84859585918B808B868510
:1019A0009785938B828B8091920690919306958771
:1019B000848780919406909195069787868799C32E
:1019C000973019F0C0E0D0E002C0C1E7D6E081E076
:1019D00080939106209709F4BBC3D0932303C0934F
:1019E000220388E08A8F888F1E8A84E08F8B1B8E6B
:1019F000F801868997899D838C83848995899F8343
:101A00008E838485958599838883868597859B8336
:101A10008A8381E0898F809119038C8780911A03D2
:101A20008D8780911B038E8780911C038F8781E0B7
:101A300090E0998B888B838D8B87828D8A87818DAF
:101A40008987808D888781E090E00E940521A091A0
:101A50009606B091970690968C919097982F907FCC
:101A6000913508F443C01092910682958F7090E0F2
:101A70000597880F991F880F991F20912A0330918D
:101A80009106E32FF0E0E817F90774F5EA0FFB1F62
:101A900020A5211103C010922A0328C0213011F47F
:101AA0003F5F1FC02230C9F441A54430B1F42093F8
:101AB0002A0382A590E0982F882723A5822B909354
:101AC0002C0380932B038836910510F087E690E075
:101AD0009B8B8A8B9D8B8C8B09C041A5442321F065
:101AE000340F30939106CBCF20932A03E0919606D2
:101AF000F091970680E181A3E0919606F091970618
:101B000081A1826081A382E080A784E081A712A6E0
:101B100087E683A78CE290E09093180380931703E5
:101B200080E6ABC221E736E0309323032093220303
:101B300010921D0382FF04C010928A0680E235C213
:101B4000F80120A122952F70220F220F20939106D9
:101B5000E21AF108E7016497D0931803C0931703C2
:101B60009F70923021F4982F9F739231D1F020977B
:101B700019F4982F9370A9F0F801208D90917906AF
:101B8000291368C2218D90917A06291363C2228D90
:101B900090917B0629135EC2238D90917C062913B8
:101BA00059C284FF5BC06091810670918206611505
:101BB000710509F453C08DE796E00E94CF20E091B3
:101BC0009606F0919706348D80912603381346C00F
:101BD000258D80912703281341C0968D809128037D
:101BE00098133CC0878D40912903841337C03093EC
:101BF0007D0620937E0690937F06809380068091D9
:101C00008C06811120C090918706809189062091D1
:101C10008B06821B292F269526952695821B980FC9
:101C20009093870687FD819520918806322F3695FF
:101C30003695231B820F80938806969596959695E8
:101C4000890F8093890681E080931D038091890626
:101C500080938B06109282061092810620918A064C
:101C6000E22FEF708E2F90E0FC013197E830F10504
:101C700008F06EC2EC5CFF4F0C945E2280911D0355
:101C800080FF66C283E080938A0680E480931D0310
:101C90001092820610928106209709F483C082E494
:101CA00080931D03CE010E9405217CC0E091960621
:101CB000F091970681A18F73823109F029CE80A11E
:101CC000982F907F913508F44FC01092910682951D
:101CD0008F7090E00597880F991F880F991F2091AA
:101CE0002A0330919106A32FB0E0A817B907D4F5C5
:101CF000AE0FBF1F98962C919897211103C0109298
:101D00002A0332C0213011F43F5F29C0223011F57F
:101D100099964C9199974430E9F420932A039A9626
:101D20008C919A9790E0982F88279B962C91822BE4
:101D300090932C0380932B038836910510F087E64F
:101D400090E0909384068093830690938606809318
:101D500085060AC099964C91442321F0340F3093A4
:101D60009106BFCF20932A0383E080938A06808D5B
:101D700080937906818D80937A06828D80937B068D
:101D8000838D80937C0681E090E00E94052182E4AF
:101D900080931D0310928206109281061092180300
:101DA0001092170310921603109215030E948E04CE
:101DB000C1E7D6E084C0E0919606F091970681A134
:101DC00080FF2EC024FD2CC0809181069091820658
:101DD000892B09F0BDC1C70143970E94052180915D
:101DE0001D03982F906190931D03CD2B19F08261F4
:101DF00080931D030E948E0481E090E09093820600
:101E00008093810688E080938A0610928C06C1E751
:101E1000D6E0E0919606F091970681E181A322C178
:101E200085FF12C086A190E0982F882737A1832BC9
:101E3000C80ED91ED0922103C0922003C81BD90B13
:101E4000D0931803C09317034091170350911803C0
:101E50004115510551F024FD08C090911D03926079
:101E600090931D03CA010E940521E0919606F0910E
:101E7000970682A190E0982F882723A1820F911DB9
:101E800090932C0380932B03209185063091860636
:101E90002817390710F0892B21F430932C03209355
:101EA0002B0380912B0390912C03909384068093B5
:101EB000830680911D03837009F44AC173CF80911A
:101EC0001D0385FF0BC01092160310921503198E87
:101ED000E0919606F091970684E1A0CF84FF0CC0B4
:101EE000109216031092150381E090E0998B888B75
:101EF00084E0898F1B8E8DCF2091150330911603BE
:101F000021153105E1F080FF02C0198A188A8889FD
:101F10009989009781F48A899B898217930720F415
:101F200090931603809315038091150390911603E7
:101F3000998B888B04C090931603809315031B8E96
:101F400080911E0390911F0390932103809320039F
:101F50008091150390911603892B79F088899989CE
:101F6000009759F088969093180380931703E09197
:101F70009606F091970688E10FC080911D0381FFBE
:101F8000E7C088E290E09093180380931703E091F4
:101F90009606F091970680E181A36AC080911D03A7
:101FA00080FFD6C010928A0680E180931D030E94B4
:101FB0008E04CEC0209719F0CE010E940521E09139
:101FC0009606F091970691A180911D0390FF10C095
:101FD00080FF0AC087E080938A0610928B061092D9
:101FE0008206109281061FC086E080938A061BC07D
:101FF00080FF23C085E080938A06109282061092AB
:102000008106A6C0209719F0CE010E940521E0911B
:102010009606F091970681A180FF0FC087E080931C
:102020008A0610928B0681E090E00E94052180E1F3
:1020300080931D030E948E040DC0CD2B59F488C0DF
:1020400080911D0380FF84C087E080938A061092F0
:102050008B067EC0E0919606F091970680E181A301
:10206000C1E7D6E088E290E09093180380931703CD
:10207000E0919606F091970680E580A3E0919606A0
:10208000F09197068885848F8985858F8A85868FCC
:102090008B85878F8C85808F8D85818F8E85828FB4
:1020A0008F85838F86E081878C819D81958B848B42
:1020B0008E819F81978B868B80919206909193065B
:1020C0009587848780919406909195069787868757
:1020D00088819981918B808B8A819B81938B828B64
:1020E000898D84FF03C013A212A203C012A28DE542
:1020F00083A3C0919606D091970680E4888780914B
:102100001703909118039A838B831FA21EA21DA20E
:102110001CA20E94930A809590959DA38CA385E4B0
:10212000888319821F821E82809124039091250347
:10213000019690932503809324039C838D831B86B3
:102140001A860E94C10A809590959B878A8704C051
:10215000109218031092170310921D03DF91CF9174
:102160001F910F91FF90EF90DF90CF90089581E045
:1021700080939106D4CB0F931F93CF93DF93CDB76A
:10218000DEB728970FB6F894DEBF0FBECDBF1C8216
:102190001B8280910001909101019C012F5F3F4FB4
:1021A00030930101209300019E838D8383E88F8308
:1021B000209117033091180340919606509197068D
:1021C00008E310E0BE016F5F7F4F8091850490911E
:1021D00086040E94210828960FB6F894DEBF0FBE31
:1021E000CDBFDF91CF911F910F910895CF92DF92D4
:1021F000EF92FF920F931F93CF93DF9300D0CDB751
:10220000DEB78C017B01DC01ED91FC91008CF18D3E
:10221000E02D49835A83099549815A81882309F41D
:102220006CC0F801A485B58511968C91119788230F
:1022300009F463C0FD01EA51FF4F808191816A0179
:102240008C159D0508F46C01FD01EC51FF4F2081B8
:10225000318123583F4FBD01620F731FA601C70193
:102260000E949623D8011C96ED91FC911D97DF01E9
:10227000AA51BF4F8D919C9111978C199D09119670
:102280009C938E9312972D913C9111972C0D3D1D8F
:1022900011963C932E93892B71F511821D921C92FD
:1022A0008081A82FAF709EE1A99FD0011124AF5863
:1022B000B94F59969C9194FF0EC0982F907659F47F
:1022C00080688083D8011C96ED91FC911D97128641
:1022D000138614861586D8011C96ED91FC911D97E6
:1022E0008181811108C0808186FF05C010821D9602
:1022F0001C921E921C97C60102C08FEF9FEF0F9099
:102300000F90DF91CF911F910F91FF90EF90DF9091
:10231000CF900895CF92DF92EF92FF920F931F9389
:1023200080918504909186040E947F15833869F41A
:10233000E0918504F091860407A0F0A5E02D80854A
:1023400091859093180380931703809117039091C0
:102350001803892B89F081E00E94230B80911703D9
:1023600090911803892BD9F11F910F91FF90EF9055
:10237000DF90CF900C94BB100E944517C0908A0448
:10238000D0908B04E0908C04F0908D0400918E042A
:1023900010918F042091900430919104AB01BC0105
:1023A0004C195D096E097F094017510762077307D1
:1023B000B0F0D901C8018C0D9D1DAE1DBF1D8093CD
:1023C0008A0490938B04A0938C04B0938D0481E7CE
:1023D00096E0909323038093220382E0BDCF1F9168
:1023E0000F91FF90EF90DF90CF900895CF93DF9300
:1023F000BC0187E393E00E94AB01EC0164E272E070
:1024000087E393E00E94AB018C0F9D1FDF91CF917A
:1024100008951F93CF93DF93EC01162F61E00E9484
:10242000B314482F112311F0416001C04E7F61E0C9
:10243000CE01DF91CF911F910C9458148F929F92EF
:10244000AF92BF92CF92DF92EF92FF92CF93DF9342
:10245000EC014A015B010E9445176B017C0167E1B9
:10246000CE010E94B31484FD29C06FEFCE010E94FB
:10247000391484FFF4CF40E167E0CE010E94581484
:1024800060E0CE010E94081461E0CE010E940814B1
:102490000E944517DC01CB018C199D09AE09BF09CB
:1024A00088159905AA05BB05D0F260E0CE010E940F
:1024B0000814CE010E94551480E005C060E0CE01F2
:1024C0000E94081481E0DF91CF91FF90EF90DF90A0
:1024D000CF90BF90AF909F908F9008957F928F92F2
:1024E0009F92AF92BF92CF92DF92EF92FF920F93A3
:1024F0001F93CF93DF93CDB7DEB728970FB6F8942D
:10250000DEBF0FBECDBFFC019B012115310559F087
:10251000822F8770863008F0FAC0A3E036952795A1
:10252000AA95E1F7F2CF62AB73AB87A590A9DC0166
:102530002D913C912F3F310509F4E9C0DC01129641
:102540002D913C9113972F3F310509F4E0C0E72E00
:10255000F62E8F0160E00E940912F801C7A4D0A8EE
:102560006DE1C6010E94B314482F44606DE1C601BD
:102570000E9458146CE1C6010E94B314482F4F63A7
:102580006CE1C6010E94581481E0D60118968C9324
:10259000F80182A993A966E070E00E942822482FE2
:1025A000440F4B5FF0E14F9FA0011124456064E0B0
:1025B000D8019F968D919C91D0970E94581489E1E3
:1025C00090E0A0E0B0E0F80181839283A383B4831C
:1025D0008BE490E09683858382A993A940E02FEF56
:1025E0003FEFB90168237923672B39F073E0220F9D
:1025F000331F7A95E1F74F5FF4CFF80141AB209597
:102600003095E059FE4F3183208363E0369527955E
:102610006A95E1F73397A9014823592351834083F1
:102620002115310559F043E0969587954A95E1F7D4
:1026300053E0369527955A95E1F7F2CFF801E15925
:10264000FE4F808386E0782E88248394912C7A94A0
:10265000FFEF7F1609F454C0672D8F2D9E2D0E9429
:102660000E06D8019F96CD90DC90D09729833A83AF
:102670004B835C836D837E838F839887A72CB12CDB
:1026800071100BC0F601468550E0BE016F5F7F4FB1
:10269000C60109960E94962303C0F1E07F1208C08C
:1026A000F501E054FF4F6491D6011E962C9105C0B0
:1026B000F501E054FF4F649121E0AE014F5F5F4FA1
:1026C000C6010E947C14F501E654FF4F6491F601A7
:1026D0004781C6010E94581462E0C6010E94B314EB
:1026E000F501EC54FF4FE491940101C0220FEA95EB
:1026F000EAF7482F422B62E0C6010E945814A7CF88
:10270000D8019F968D919C91D0970E94FF16289694
:102710000FB6F894DEBF0FBECDBFDF91CF911F91F2
:102720000F91FF90EF90DF90CF90BF90AF909F9070
:102730008F907F90089590E0FC01E056FF4F249128
:10274000FC01E457FF4F8491882399F090E0880FB3
:10275000991FFC01EE57FF4FA591B491FC01E85879
:10276000FF4F859194918FB7F894EC91E22BEC9305
:102770008FBF0895FC01248130E0322F222785810C
:10278000282B322723273227ADE2B3E09281892F0D
:1027900090E0982F88274381842B982789279827B2
:1027A00011969C938E9313963C932E9312970895B3
:1027B0008230910538F0880F991F880F991F05976F
:1027C0000197F1F708953FB7F89480916B069091C7
:1027D0006C06A0916D06B0916E0626B5A89B05C04B
:1027E0002F3F19F00196A11DB11D3FBFBA2FA92F90
:1027F000982F8827820F911DA11DB11DBC01CD010D
:1028000042E0660F771F881F991F4A95D1F70895F8
:10281000FC0120813181828193812817390719F0C9
:10282000822F0C947D1A0895CF93DF93EC019CB511
:102830009F7D9CBD9CB5937F9CBD9CB59C7F9CBDA2
:102840009DB591609DBD8A810E947D1A8C899D896C
:10285000DF91CF910C94D81361E00C94141460E0D4
:102860000C9414148EBD00000DB407FEFDCF8EB580
:102870000895EF92FF921F93CF93DF931F92CDB7EE
:10288000DEB77C0169830E942F146981862F0E9424
:102890003214182FC7010E942C14812F0F90DF9142
:1028A000CF911F91FF90EF90089561EE0C94391431
:1028B000EF92FF921F93CF93DF9300D0CDB7DEB797
:1028C0007C014A8369830E942F146981862F8F714E
:1028D00080620E943214182F4A81842F0E94321481
:1028E000C7010E942C14812F0F900F90DF91CF9180
:1028F0001F91FF90EF900895CF92DF92EF92FF9299
:102900000F931F93CF93DF9300D01F92CDB7DEB705
:102910007C01142F2A835B8369830E942F146981B1
:10292000862F8F7180620E943214082FC12E5B8126
:10293000D52E2A81120F1C1531F0F60181916F01FD
:102940000E943214F8CFC7010E942C14802F0F90E0
:102950000F900F90DF91CF911F910F91FF90EF900B
:10296000DF90CF900895EF92FF921F93CF93DF9364
:102970001F92CDB7DEB77C0169830E942F14698155
:10298000862F8F710E9432148FEF0E943214182FFD
:10299000C7010E942C14812F0F90DF91CF911F91BE
:1029A000FF90EF900895EF92FF920F931F93CF93B4
:1029B0008C017B0166E00E94B314C82FC77D82E0C2
:1029C000E816F10431F4C0628BE990E0A0E0B0E0D9
:1029D0000DC0EA94EF2829F085E590E0A0E0B0E092
:1029E00005C0C86081E490E0A0E0B0E0F801808B11
:1029F000918BA28BB38B4C2F66E0C8010E945814B8
:102A000066E0C8010E94B31491E08C1390E0892F16
:102A1000CF911F910F91FF90EF900895CF93DF9387
:102A2000EC0160E00E940814888999890E94D813FB
:102A30006DE1CE010E94B31481FF07C08889998996
:102A40000E94D813CE010E94551460E0CE010E946E
:102A5000B314482F4E7F60E0CE010E94581462E00C
:102A6000CE010E94B314E4EBF0E0E49141E050E0C9
:102A700001C0440FEA95EAF7482B62E0CE01DF91EE
:102A8000CF910C9458148F929F92AF92BF92CF9295
:102A9000DF92EF92FF926B017C010E94E3134B01E6
:102AA0005C01C114D104E104F10401F10E948A1116
:102AB0000E94E313DC01CB0188199909AA09BB091B
:102AC000883E9340A105B10560F321E0C21AD10808
:102AD000E108F10888EE880E83E0981EA11CB11C65
:102AE000C114D104E104F10419F7DBCFFF90EF909A
:102AF000DF90CF90BF90AF909F908F9008953F92BE
:102B00004F925F926F927F928F929F92AF92BF92FD
:102B1000CF92DF92EF92FF920F931F93CF93DF93A9
:102B2000EC019AA5892F827091FD17C0FE01E15337
:102B3000FF4FAE014B5C5F4F90FD07C0208131819C
:102B4000241B350B2937310544F020813181421790
:102B5000530708F429C19E7F9AA78E01095F1F4F72
:102B6000502EEE24E394F12C6E0181E9C81A8EEF09
:102B7000D80A74E2A72E79E0B72E8FA498A8F401A2
:102B8000808191818F3F910511F480E00DC1F401A6
:102B9000828193818F3F9105C1F367E1C4010E9457
:102BA000B314982F9170792E80FDEFCF6FEFC40191
:102BB0000E9439148FA498A8C4010E942F1480E6A3
:102BC0000E9432148FEF0E943214682EC4010E94BA
:102BD0002C14F0E2F61508F056C062EEC4010E9413
:102BE000391462E070E080E090E00E9443157CAA16
:102BF00097E0971538F06AE070E080E090E00E947E
:102C00004315BBCF8FA498A8F4018781472C871563
:102C100008F4482EF4019085911103C0382E341821
:102C200001C0312CC4010E942F1481E60E9432148D
:102C30003801450C461439F08FEF0E943214F3012D
:102C400081933F01F7CF732C772029F08FEF0E94FB
:102C500032147A94F9CFC4010E942C1440E767E043
:102C6000C4010E94581469857A85CB01009769F0E8
:102C7000282F2770263008F080CF53E0969587954F
:102C80005A95E1F7F3CF762CB2CF8D852AA93BA9CF
:102C900062177307E1F5823809F46FCF803881F449
:102CA00064327940D1F0BA86A98642E064E279E0E4
:102CB000CE010E9426076AE070E080E090E040C00C
:102CC000833C59F46115710541F078876F831A864A
:102CD000198640E060E070E063C099A5992319F07F
:102CE00087FF0CC002C0813C49F49CE6980F9330EA
:102CF00028F0883C19F0833809F056C0B801CE019D
:102D00000E940A09823009F038CF83E84DC0603450
:102D1000710509F044C0823CC9F48AA583FD2DCF1A
:102D2000243289E0380709F428CF8F8198859A8763
:102D3000898738872F83F601608170E080E090E01A
:102D40000E94431569857A8542E02AC0B801CE0108
:102D50000E940A09982E88818823E9F029A9222354
:102D600079F030E021503109C901880F991F280FEF
:102D7000391FB70102C0660F771F2A95E2F702C01C
:102D800060E070E083E0660F771F8A95E1F744E02A
:102D9000CE010E942607F2E09F12EFCEB6CF41E0AF
:102DA000CE010E942607E9CEDF91CF911F910F91AE
:102DB000FF90EF90DF90CF90BF90AF909F908F905B
:102DC0007F906F905F904F903F900895CF93DF93E7
:102DD000EC0160E00E94B31481FD0EC0482F4260F8
:102DE00060E0CE010E94581465E070E080E090E061
:102DF000DF91CF910C944315DF91CF910895CF933C
:102E0000DF93EC010E94E61660E0CE010E94B3144D
:102E1000482F416060E0CE010E94581440E767E00F
:102E2000CE010E94581461E0CE010E9408148985E9
:102E3000882349F02E85AE01475F5F4F6AE0CE01DF
:102E40000E947C1414C062E0CE010E94B314E4EB33
:102E5000F0E0E49121E030E001C0220FEA95EAF7CA
:102E60002095422F482362E0CE010E9458146DE164
:102E7000CE010E94B31481FF05C0CE01DF91CF9136
:102E80000C945514DF91CF9108952FB7F894609169
:102E90006706709168068091690690916A062FBF57
:102EA00008951F920F920FB60F9211242F933F9304
:102EB0008F939F93AF93BF9380916706909168061D
:102EC000A0916906B0916A063091660623E0230F4F
:102ED0002D3720F40196A11DB11D05C026E8230F52
:102EE0000296A11DB11D20936606809367069093FC
:102EF0006806A0936906B0936A0680916B0690916C
:102F00006C06A0916D06B0916E060196A11DB11DD3
:102F100080936B0690936C06A0936D06B0936E063B
:102F2000BF91AF919F918F913F912F910F900FBEC5
:102F30000F901F901895CF92DF92EF92FF92CF9350
:102F4000DF93EC010E9445176B017C018091E60341
:102F50009091E703DC01ED91FC910084F185E02D77
:102F60000995892B79F40E944517AB01BC014C19D6
:102F70005D096E097F0948395A436105710530F3CF
:102F800080E00DC08091E6039091E703DC01ED91B4
:102F9000FC910284F385E02D0995888381E0DF911F
:102FA000CF91FF90EF90DF90CF900895CF92DF9276
:102FB000EF92FF921F93CF93DF93CDB7DEB7C2544A
:102FC000D1090FB6F894DEBF0FBECDBFDC0112965B
:102FD0003C91129713964C91139714962C91149739
:102FE00015968C913FAF21964FAF219722962FAF28
:102FF000229711E023961FAF23972396CCACDDAC2C
:10300000EEACFFAC2397CBAADCAAEDAAFEAA39AF9F
:103010004AAF2BAF8CAF3DA74EA72FA718ABCDA4BF
:10302000DEA4EFA4F8A8CFA2D8A6E9A6FAA61EAB04
:10303000CBA8DCA8EDA8FEA8C9A2DAA2EBA2FCA24C
:103040003B8F4C8F2D8F8E8F1AA77FA168A559A516
:1030500091E07D8B6E8B5F8B988F1CA3C9A0DAA04B
:10306000EBA0FCA0CF86D88AE98AFA8A39874A87FA
:103070002B878C87262F652F1A8B8F859889A98996
:10308000BA898B839C83AD83BE83DB848C8593E874
:10309000E92E94E0F92ED7011496ED91FC91159745
:1030A00082831296ED91FC91139707A0F0A5E02D75
:1030B0000284F385E02DF0939706E0939606E2E90B
:1030C000F6E050E0532B5427452754275183408383
:1030D00090E09D2998278927982793838283EDE2A2
:1030E000F3E0822F90E0972B9227892798279183EE
:1030F0008083862F90E0916093838283E8E9F6E0F5
:103100008FEF9FEF918380838FEF90E09383828393
:103110001E838B819C81AD81BE818093330390930C
:103120003403A0933503B09336038EE390E0A0E020
:10313000B0E0F70183879487A587B6870E9445177B
:10314000D70117966D937D938D939C931A97109248
:10315000900610928F0610928A061093910680E0D6
:1031600094E09093700680936F06CE5BDF4F0FB6AE
:10317000F894DEBF0FBECDBFDF91CF911F91FF90BE
:10318000EF90DF90CF900895FC0182819381A4811C
:10319000B5818093770490937804A0937904B093D9
:1031A0007A048BE597E090937E0480937D041092DF
:1031B0007C0410927B0486EE93E008955F926F92F8
:1031C0007F928F929F92AF92BF92CF92DF92EF92B7
:1031D000FF920F931F93CF93DF931F92CDB7DEB76C
:1031E0004C0188EE93E00E949B17811126C022C0FB
:1031F0000F5F1F4F8981F801EA51FC4F8183282F0F
:103200002F7730E02C9DA0012D9D500D3C9D500D41
:103210001124A40EB51E37E0CC0CDD1CEE1CFF1CE7
:103220003A95D1F787FF15C0CE0101960E949B17F2
:103230008111DECF80E090E088C07090E8031982B1
:1032400001E010E0A12CB12CC12CD12C7601C3944B
:10325000EBCF872D807F55245394803309F0512C78
:103260008FEF800FD4018C93552021F1C801885134
:103270009C4F0E949B178823E9F2C80187519C4FFD
:103280000E949B178823B1F20E5F1F4FD401EC916F
:10329000F0E0EA51FC4FE380F12CFE2CEE24848117
:1032A000E80EF11C8091E80381FF08C0B2E0EB0E4C
:1032B000F11C04C080E0E12CF12C01C082E0C82E9A
:1032C000D12CC01AD10A9EEF692E77247A94C601B8
:1032D000800F911F8A159B0568F5CE0101960E940B
:1032E0009B17882309F4A6CF80917F0490918004D6
:1032F0000097A9F0552099F0F4012081A301421B09
:1033000051099A01200F311FE216F30640F4DC0147
:10331000ED91FC910190F081E02D698109950038D3
:10332000110528F48981F801EA51FC4F82830F5F6F
:103330001F4FCDCF80917F0490918004892B21F481
:103340000138110508F076CFC8010F90DF91CF91B9
:103350001F910F91FF90EF90DF90CF90BF90AF90B3
:103360009F908F907F906F905F9008958091E6037B
:103370009091E703009759F1DC01ED91FC910688EB
:10338000F789E02D0995811124C0809181049091E5
:103390008204892BE1F48DEF9FEF90938204809358
:1033A00081048091E6039091E703DC01ED91FC91AB
:1033B0000680F781E02D09958091E6039091E7035F
:1033C000DC01ED91FC910488F589E02D099580E000
:1033D000089581E00895CF93DF93DC014E5F5F4F46
:1033E000FC019F012A1B3B0B9191992339F0EB01C2
:1033F000C40FD51F98834F5F5F4FF3CFCA01821B65
:10340000930B680F791FFB0132973083319620832D
:10341000CA01DF91CF910895CF92DF92EF92FF9290
:103420000F931F93CF93DF9300D000D0CDB7DEB7BB
:103430009A01E0E0922F9F77220F232F221F330B58
:1034400031952115310509F0906801E00E0FA1E0DA
:10345000B0E0AC0FBD1FAE0FB11DFD019083211573
:10346000310511F0E02FE6CF10E0DB01A01BB10B1E
:1034700014968C93FE0131966F0180E090E08017E6
:10348000910764F4F601F1906F019C01201B310B50
:10349000260F371FF901F5820196F1CF8091E603DF
:1034A0009091E7034F5F5F4F040F151FFC012081D0
:1034B0003181F90122813381A801BD01F90109950A
:1034C0007C010E94451760936A0470936B0480939B
:1034D0006C0490936D0481E0E016F10609F080E041
:1034E0000F900F900F900F90DF91CF911F910F9140
:1034F000FF90EF90DF90CF90089590E0FC01EA53A9
:10350000FF4F3491FC01E056FF4F2491FC01E4573A
:10351000FF4FE491EE2309F43BC0332339F13330FC
:1035200091F038F43130A9F0323001F584B58F7D57
:1035300012C0373091F03830A1F03430B9F48091B6
:1035400080008F7D03C0809180008F778093800002
:103550000DC084B58F7784BD09C08091B0008F778E
:1035600003C08091B0008F7D8093B000F0E0EE0F3B
:10357000FF1FE858FF4FA591B4918FB7F894EC91D5
:10358000611103C020952E2301C02E2B2C938FBFD9
:103590000895CF93DF93CDB7DEB764970FB6F89455
:1035A000DEBF0FBECDBF789484B5826084BD84B584
:1035B000816084BD85B5826085BD85B5816085BD2E
:1035C00080916E00816080936E00109281008091E6
:1035D000810082608093810080918100816080936E
:1035E0008100809180008160809380008091B10093
:1035F00084608093B1008091B00081608093B000BE
:1036000080917A00846080937A0080917A00826051
:1036100080937A0080917A00816080937A00809113
:103620007A00806880937A001092C100E09147038D
:10363000F091480382E08083E0914303F0914403DA
:103640001082E0914503F091460380E1808310925F
:103650004F03E0914B03F0914C0386E08083E091AF
:103660004903F0914A03808180618083E09149039E
:10367000F0914A03808188608083E0914903F09152
:103680004A03808180688083E0914903F0914A0376
:1036900080818F7D808386E591E00E94F6118AE625
:1036A00091E090932A02809329020EE411E01A839C
:1036B00009838091D6039091D703A091D803B0914C
:1036C000D9038B839C83AD83BE83CE0101960E9478
:1036D000C4181A8309838091E2039091E303A091B7
:1036E000E403B091E5038B839C83AD83BE83CE015D
:1036F00001960E94D6171A8309838091DC0390916A
:10370000DD03A091DE03B091DF038B839C83AD8347
:10371000BE83CE0101960E94BA13E0912902F09176
:103720002A028091E503805D858788E791E00E9409
:10373000F611B4E2AB2EB9E0BB2E22242394312C37
:1037400003EC802E0091980410919904D8018D917A
:103750009C91119712962D913C9113978217930784
:1037600011F00E949B13F8018281938120813181A5
:103770002817390711F00E949B13FFB6F894809127
:103780002802811124C0E6E9F0E08491EAEAF0E041
:103790009491E82FF0E0EE0FFF1FEE57FF4FA59139
:1037A000B4918C91982321F461E08AE00E947D1A03
:1037B0008AE00E949B138CB580618CBD8CB58064BF
:1037C0008CBD8DE00E949B138BE00E949B13809127
:1037D00028028F5F80932802FFBE60E0C8010E942C
:1037E000081461E0C8010E94141465E070E080E0F4
:1037F00090E00E9443154CE060E0C8010E9458141C
:103800004FE564E0C8010E94581462E070E0C8010E
:103810000E94D314882321F081E0D80116968C935E
:1038200066E0C8010E94B31460E070E0C8010E9425
:10383000D314C8010E942F1480E50E94321483E73C
:103840000E943214C8010E942C1440E06DE1C801AE
:103850000E94581440E06CE1C8010E945814F8011D
:10386000108640E767E0C8010E9458144CE465E008
:10387000C8010E94581462EEC8010E943914C801A0
:103880000E945514C8010E94E61660E0C8010E941B
:10389000B314482F4E7F60E0C8010E945814F1E62F
:1038A000F093A50441E665E0809198049091990415
:1038B0000E94581460E070E08091980490919904FF
:1038C0000E94D31400919A0410919B0481E0D801C6
:1038D00099968C93809194048823C1F0B0929304BC
:1038E000A092920467E180919804909199040E94BB
:1038F000B31480FD1FC064E670E080E090E00E9499
:1039000043158BE891E00E94F6111CCF86E090E011
:103910000E946422909396048093950410929704D9
:10392000109293041092920460E070E0C8010E942B
:103930006E1278C180919804909199040E940E159E
:10394000E0919A04F0919B0482A5826082A76AE0CC
:1039500070E080E090E00E94431564E279E080919D
:103960009A0490919B040E946E12B0929304A092CC
:1039700092040E9445172B013C01C12CE12C20E44C
:1039800030E03C872B8780910001909101019C01E0
:103990002F5F3F4F30930101209300019E878D8759
:1039A00032EC3F8780919A0490919B04DC01D2967F
:1039B0002D913C91D3973A872987EE2081F02E2DC7
:1039C00030E021503109A901440F551F240F351F44
:1039D000810102C0000F111F2A95E2F702C000E02A
:1039E00010E020E030E040E050E0BE01675F7F4F34
:1039F0000E9421080E944517698B7A8B8B8B9C8BC8
:103A0000F12C80919A0490919B040E947F15823C36
:103A100089F4FE013196EF0DF11DEF0DF11DA0911E
:103A20009A04B0919B0417968D919C91189791835D
:103A30008083F3940E944517DC01CB0129893A89E0
:103A40004B895C89821B930BA40BB50BC897A1050E
:103A5000B10520F433E03F15A0F633C0F11031C0BA
:103A60000E944517DC01CB0184199509A609B70905
:103A700081369A4EA105B10508F03DCF2C2D30E0DE
:103A80002F5F3F4F8E2D90E00196289FB001299F18
:103A9000700D389F700D1124675E7F4F660F771F82
:103AA000072E000C880B990B0E94431581E08E0DA8
:103AB0008370E82E81E08C0D6AE00E941C22C92EE2
:103AC0005ECFD12C912CDF1408F045C08F868091F9
:103AD0009404888BFE013196ED0DF11DED0DF11D65
:103AE000008111811C870B8720E030E040E050E02E
:103AF000BE01675F7F4F80919A0490919B040E9462
:103B000021080E944517698B7A8B8B8B9C8B0E94B6
:103B10004517DC01CB0129893A894B895C89821BD5
:103B2000930BA40BB50B813E9105A105B10558F48B
:103B300080919A0490919B040E947F15982E40E8F2
:103B40008413E5CFDF2C65E070E080E090E00E9418
:103B50004315D394B8CF30E8931282CFE0919A0402
:103B6000F0919B0487859089009709F479CF368579
:103B700020919404321374CF909393048093920411
:103B800080919804909199040E940E156AE070E06B
:103B900080E090E00E94431560919204709193043C
:103BA00080919A0490919B040E946E121C861B8641
:103BB000B1E8BF8797E0F92E08E310E020E030E09D
:103BC00040E050E0BE01675F7F4F80919A04909182
:103BD0009B040E942108811117C0FA94F1100DC0B6
:103BE00064E279E080919A0490919B040E946E12A5
:103BF000B0929304A092920433CF63E070E080E02F
:103C000090E00E944315D8CFE0919A04F0919B0474
:103C100082A58D7F82A78091920490919304892B35
:103C200009F469CE8DE092E00E94F61107E02E01C2
:103C3000E8E04E0E511C8CEF282E33243A9462E9B2
:103C400071E087E393E00E94AB010E94B6198111F5
:103C500006C06FE971E087E393E00E94AB01E0905A
:103C60002902F0902A020E94B6198111CAC06091FF
:103C70007B0470917C048091E6039091E70340916E
:103C80007D0450917E04DC01ED91FC91611571057C
:103C900021F00088F189E02D16C00684F785E02D1B
:103CA0002EE431E03A832983809077049090780461
:103CB000A0907904B0907A048B829C82AD82BE82FF
:103CC000BE016F5F7F4F09958130910509F092C069
:103CD0009093690480936804E8E0F1E0DE011196B6
:103CE000802F01900D928A95E1F7FE013196ADEE9D
:103CF000B3E081918D93E415F505D9F732E0309367
:103D0000F4031092F5038FE08093F6034FE050E048
:103D100068EE73E0C7010E94EB19AC0145505109F0
:103D200068EE73E080E10E940C1A0E9445176093D0
:103D30006A0470936B0480936C0490936D04609399
:103D40006E0470936F04809370049093710480915B
:103D5000E6039091E703DC01ED91FC910084F1858D
:103D6000E02D0995892BD1F40E944517C0906E046F
:103D7000D0906F04E0907004F0907104DC01CB01EE
:103D80008C199D09AE09BF0988399A43A105B1056F
:103D9000F0F2309282042092810420C0CE01099674
:103DA0000E94DE180497D1F48091EB03811111C0B9
:103DB0000E94451760936E0470936F0480937004A3
:103DC00090937104109272041092820410928104F4
:103DD00018C090E090938204809381048091E60360
:103DE0009091E703DC01ED91FC910488F589E02DC9
:103DF000099562C0EEEFFFEFF0938204E093810437
:103E00005BC08DEB91E00E94F6110E94B6198823E9
:103E100001F145E050E068EE73E087EC91E00E942C
:103E2000EB19A8EDB1E020E030E04D91F901E80F89
:103E3000F91FEA51FC4F42832F5F3F4F2B30310572
:103E4000A1F7AC014A5F5F4F68EE73E080E30E9428
:103E50000C1A0E94B619882309F45DC08091680489
:103E600090916904019629F0909369048093680405
:103E700006C021E030E0309369042093680480910B
:103E80006804909169049093ED038093EE0347E0FA
:103E900050E068EE73E084EE91E00E94EB19FC01C3
:103EA000EA51FC4F1282AC014450510968EE73E0B4
:103EB00082E80E940C1A2FC06CEE71E087E393E059
:103EC0000E94AB01C0908104D09082040D2C000CA4
:103ED000EE08FF08F7FE0EC06DE287E393E00E9454
:103EE000980044275527BA014C195D096E097F09CE
:103EF0002AE003C02AE0B701A60187E393E00E940D
:103F0000C00188EF91E00E94F61160ED77E080E05B
:103F100090E00E9443150E94B619882309F43CC121
:103F20000E9445174B015C0180916E0490916F04D3
:103F3000A0917004B0917104A5019401281B390B64
:103F40004A0B5B0BDA01C90189399A43A105B10516
:103F5000A8F480916A0490916B04A0916C04B091D4
:103F60006D04A5019401281B390B4A0B5B0BDA0188
:103F7000C90189399A43A105B105B8F120917204AC
:103F80008091E6039091E703222361F0309282044E
:103F900020928104DC01ED91FC910488F589E02DEB
:103FA0000995FAC020EC2093E8031092E903DC01A4
:103FB000ED91FC910280F381E02D42E050E068EE4B
:103FC00073E0099580926A0490926B04A0926C044D
:103FD000B0926D0480926E0490926F04A09270046F
:103FE000B092710481E0809372048091E603909115
:103FF000E703DC01ED91FC910084F185E02D09954A
:10400000892B09F4C9C0CE0101960E94DE186C010B
:10401000892B09F4C1C080926E0490926F04A09223
:104020007004B09271041091E803812F807F803377
:1040300009F097C060907304709074046114710467
:1040400009F4AAC02DB73EB73A8B298BE981F0E07D
:10405000DF01AA51BC4F13964C91139750E0542F97
:10406000442714968C91480F511DCA010196ADB793
:10407000BEB7A81BB90B0FB6F894BEBF0FBEADBF3D
:104080008DB79EB70196BC0120E030E024173507BC
:1040900069F0D901AE0FBF1FAA51BC4F1596FC9015
:1040A000DB01FD92BD012F5F3F4FF0CFDC01A20F7E
:1040B000B31F1C9216701230E9F5B9016E0F7F1F05
:1040C000DB01AA51BC4F1596EC901597F12CFE2CF4
:1040D000EE2416964C91E40EF11C4BEF5FEF4E1B55
:1040E0005F0B421B530B4C0D5D1D63517C4FF30165
:1040F000099580E48093E8031093E903F092EA03C2
:10410000E092EB038091E6039091E703DC01ED91EF
:10411000FC910280F381E02D44E050E068EE73E012
:10412000099580926A0490926B04A0926C04B092FC
:104130006D040FC04DEF5FEF4E1B5F0B421B530B27
:104140004C0D5D1D2E0F3F1FB90165517C4FF301D2
:10415000099529893A890FB6F8943EBF0FBE2DBF45
:104160001BC0803CA9F480ED8093E8031092E90322
:104170008091E6039091E703DC01ED91FC910280D0
:10418000F381E02D42E050E068EE73E0099504C051
:10419000803D11F4109272040E949F0150CDFC01E9
:1041A0002381260F20932903A72FBB2792819A0FE3
:1041B0009093280331813093270340814093260355
:1041C000E92FF0E0EA17FB0748F481E0830F8093C2
:1041D0002703811103C04F5F4093260330E0772708
:1041E0002617370788F49F5F9093280391110CC01E
:1041F000809127038F5F80932703811105C08091F1
:1042000026038F5F809326030895CF93DF93C09199
:104210002203D0912303BC01CE0108960E94CF2037
:10422000E6E2F3E0808188878181898782818A87BD
:1042300083818B87DF91CF9108950F931F93CF9345
:10424000DF93EAEAF4E08EE491E0918380831282C6
:10425000138214821582E1E3F3E09183808312825A
:10426000138214821582E0EBF4E091838083128242
:10427000138214821582E6EBF4E09183808312822C
:10428000138214821582ECEBF4E091838083128216
:10429000138214821582E7E3F3E01382128248EE60
:1042A00053E060E070E044835583668377832AE1BE
:1042B00031E03183208325EC30E03587248724ECFE
:1042C00030E03787268720EC30E0318B208B21ECE3
:1042D00030E0338B228B22EC30E0358B248B26ECC4
:1042E00030E0378B268B118E128E138E148EEAE5FA
:1042F000F6E0918380831282138214821582E2E4B5
:10430000F6E027E030E03183208328E030E033839B
:104310002283168220E22783108625E0268705E087
:1043200010E020E030E0048B158B268B378B118654
:10433000A0EDB4E0D096FC93EE939F9725E035E096
:104340003093A00520939F052DEA35E03093AC050E
:104350002093AB0521EA35E098963C932E939797EE
:104360009B961D921D921D921C929E979A961C924E
:104370009A9799961C9299971C9222E934E0E90148
:10438000FF83EE83B987A887C3E8D4E0F983E88385
:10439000BB83AA833D832C83E2ECF4E01382128278
:1043A00044835583668377832CE231E03183208315
:1043B0001586148690937604809375041092770482
:1043C000109278041092790410927A042FEF3FEF44
:1043D0003093820420938104F093E703E093E60393
:1043E0001092800410927F04E0EEF3E091838083CA
:1043F0002AE02283238332E0348349E04583EAEDD7
:10440000F3E0918380832283238334833583E4ED37
:10441000F3E0918380832283238334833583E0E632
:10442000F6E0918380831282138214821582DF91D9
:10443000CF911F910F910895991B79E004C0991FA6
:10444000961708F0961B881F7A95C9F780950895EE
:10445000AA1BBB1B51E107C0AA1FBB1FA617B707AA
:1044600010F0A61BB70B881F991F5A95A9F78095C6
:104470009095BC01CD010895A1E21A2EAA1BBB1B89
:10448000FD010DC0AA1FBB1FEE1FFF1FA217B30720
:10449000E407F50720F0A21BB30BE40BF50B661F36
:1044A000771F881F991F1A9469F7609570958095FA
:1044B00090959B01AC01BD01CF010895EE0FFF1F48
:1044C0000590F491E02D0994CF93DF93823091050C
:1044D00010F482E090E0E0919E06F0919F0620E0CB
:1044E00030E0C0E0D0E0309711F1408151814817B1
:1044F0005907C0F04817590761F4828193812097CA
:1045000019F09B838A832BC090939F0680939E060D
:1045100026C02115310519F04217530718F49A01E6
:10452000BE01DF01EF010280F381E02DDCCF211518
:10453000310509F1281B390B2430310590F412960E
:104540008D919C9113976115710521F0FB01938367
:10455000828304C090939F0680939E06FD0132964D
:1045600044C0FD01E20FF31F819391932250310962
:104570002D933C933AC020919C0630919D06232BAD
:1045800041F4209104013091050130939D06209360
:104590009C0620910201309103012115310541F45F
:1045A0002DB73EB74091060150910701241B350BF2
:1045B000E0919C06F0919D06E217F307A0F42E1BF4
:1045C0003F0B2817390778F0AC014E5F5F4F241777
:1045D000350748F04E0F5F1F50939D0640939C0691
:1045E0008193919302C0E0E0F0E0CF01DF91CF91A1
:1045F00008950F931F93CF93DF93009709F48CC016
:10460000FC0132971382128200919E0610919F0640
:104610000115110581F420813181820F931F2091B2
:104620009C0630919D062817390779F5F0939D0671
:10463000E0939C0671C0D80140E050E0AE17BF0780
:1046400050F412962D913C911397AD01211531052F
:1046500009F1D901F3CF9D01DA013383228360810F
:104660007181860F971F8217930769F4EC012881E7
:104670003981260F371F2E5F3F4F318320838A8178
:104680009B8193838283452B29F4F0939F06E093CB
:104690009E0642C01396FC93EE931297ED0149914A
:1046A00059919E01240F351FE217F30771F48081A1
:1046B0009181840F951F029611969C938E9382810F
:1046C000938113969C938E931297E0E0F0E0D801CB
:1046D00012968D919C911397009719F0F8018C0117
:1046E000F6CF8D919C9198012E5F3F4F820F931FC3
:1046F00020919C0630919D062817390769F4309760
:1047000029F410929F0610929E0602C01382128214
:1047100010939D0600939C06DF91CF911F910F91FE
:10472000089581E090E0F8940C949F23FB01DC0154
:1047300002C001900D9241505040D8F70895F8946E
:02474000FFCFA9
:1047420001000000A006800000044D51545404C32F
:104752003C33CE3EE3EC0000000036019F00CE0069
:104762007D01FF00DD00F100000000007A04750405
:10477200CB00D40A1B03070BE90A6C03B902F6103B
:104782004C03BC023803A702CE020000000009025B
:1047920000000000A9014265666F7265206C696EB7
:1047A2006B69742073657475700061726475696EEB
:1047B2006F436C69656E74004166746572206C6942
:1047C2006E6B6974207365747570004661696C65FF
:1047D200640041726475696E6F204C6F6F700041A6
:1047E2007474656D7074696E67204D515454206302
:1047F2006F6E6E656374696F6E2E2E2E00636F6E20
:104802006E656374656400736D617274666163746E
:104812006F72792F6674730068656C6C6F20776FA6
:10482200726C6400696E546F706963006661696CD2
:1048320065642C2072633D002074727920696E20B9
:10484200696E2032207365636F6E6473004F4B2C68
:104852002041726475696E6F2D53657475702064A2
:084862006F6E65000D0A0000F5
:00000001FF
