:100000000C946E000C9496000C9496000C94960040
:100010000C9496000C9496000C9496000C94960008
:100020000C9496000C9496000C9496000C949600F8
:100030000C9496000C9496000C9496000C949600E8
:100040000C9471070C9496000C94BB080C949508C2
:100050000C9496000C9496000C9496000C949600C8
:100060000C9496000C949600E50D1B0C770E7E0FF9
:10007000A30FBE0FC80F720F00000008000201009E
:100080000003040700000000000000000000000062
:10009000250028002B0000000000240027002A0073
:1000A000040404040404040402020202020203031E
:1000B0000303030301020408102040800102040826
:1000C000102001020408102000010203040511128F
:1000D000131415160A0B0C0D0E0FA32211241FBEAC
:1000E000CFEFD8E0DEBFCDBF12E0A0E0B1E0E2E6A6
:1000F000FAE402C005900D92A033B107D9F726E0CB
:10010000A0E3B2E001C01D92AD3AB207E1F710E002
:10011000CEE6D0E004C02197FE010E94EE23CD364A
:10012000D107C9F70E9412210C942F250C940000CE
:100130008230910538F0880F991F880F991F059715
:100140000197F1F708953FB7F894809135029091A7
:100150003602A0913702B091380226B5A89B05C09F
:100160002F3F19F00196A11DB11D3FBFBA2FA92F36
:10017000982F8827820F911DA11DB11DBC01CD01B3
:1001800042E0660F771F881F991F4A95D1F708959F
:10019000DC01ED91FC910190F081E02D0994CF926A
:1001A000DF92EF92FF920F931F93CF93DF936C0137
:1001B0007A018B01C0E0D0E0CE15DF0589F0D801CF
:1001C0006D918D01D601ED91FC910190F081E02DB2
:1001D000C6010995892B11F47E0102C02196ECCF4E
:1001E000C701DF91CF911F910F91FF90EF90DF90AA
:1001F000CF900895089580E090E00895FC01538D1C
:10020000448D252F30E0842F90E0821B930B5417F0
:1002100010F0CF96089501970895FC01918D828D7D
:10022000981761F0828DDF01A80FB11D5D968C914A
:10023000928D9F5F9F73928F90E008958FEF9FEF55
:100240000895FC01918D828D981731F0828DE80F11
:10025000F11D858D90E008958FEF9FEF0895FC01CB
:10026000918D228D892F90E0805C9F4F821B910998
:100270008F739927089586E793E00E942F0121E06C
:10028000892B09F420E0822F0895FC01848DDF0181
:10029000A80FB11DA35ABF4F2C91848D90E00196F9
:1002A0008F739927848FA689B7892C93A089B189E8
:1002B0008C9180648C93938D848D981306C00288F2
:1002C000F389E02D80818F7D80830895EF92FF92E6
:1002D0000F931F93CF93DF93EC0181E0888F9B8D69
:1002E0008C8D981305C0E889F989808185FD24C02B
:1002F000F62E0B8D10E00F5F1F4F0F731127E02EAE
:100300008C8DE8120CC00FB607FCFACFE889F9898A
:10031000808185FFF5CFCE010E944501F1CF8B8D05
:10032000FE01E80FF11DE35AFF4FF0820B8FEA89BF
:10033000FB898081806207C0EE89FF896083E8893C
:10034000F98980818064808381E090E0DF91CF91A2
:100350001F910F91FF90EF900895CF93DF93EC01E1
:10036000888D8823C9F0EA89FB89808185FD05C0D5
:10037000A889B9898C9186FD0FC00FB607FCF5CF0F
:10038000808185FFF2CFA889B9898C9185FFEDCF57
:10039000CE010E944501E7CFDF91CF91089580E023
:1003A00090E0892B29F00E943B0181110C94000000
:1003B00008950E942125FC01208131818281938151
:1003C0002817390719F0822F0C94670A0895CF93E4
:1003D000DF93EC019CB59F7D9CBD9CB5937F9CBD3C
:1003E0009CB59C7F9CBD9DB591609DBD8A810E94FE
:1003F000670A8C899D89DF91CF910C94980061E008
:100400000C94E70160E00C94E7018EBD00000DB490
:1004100007FEFDCF8EB50895EF92FF921F93CF9305
:10042000DF931F92CDB7DEB77C0169830E94020281
:100430006981862F0E940502182FC7010E94FF01C3
:10044000812F0F90DF91CF911F91FF90EF90089532
:1004500061EE0C940C02EF92FF921F93CF93DF9307
:1004600000D0CDB7DEB77C014A8369830E940202C7
:100470006981862F8F7180620E940502182F4A8140
:10048000842F0E940502C7010E94FF01812F0F9057
:100490000F90DF91CF911F91FF90EF900895CF9231
:1004A000DF92EF92FF920F931F93CF93DF9300D0D1
:1004B0001F92CDB7DEB77C01142F2A835B8369833B
:1004C0000E9402026981862F8F7180620E9405025C
:1004D000082FC12E5B81D52E2A81120F1C1531F0F9
:1004E000F60181916F010E940502F8CFC7010E94B9
:1004F000FF01802F0F900F900F90DF91CF911F91F0
:100500000F91FF90EF90DF90CF900895EF92FF92C0
:100510001F93CF93DF931F92CDB7DEB77C01698322
:100520000E9402026981862F8F710E9405028FEF5F
:100530000E940502182FC7010E94FF01812F0F9012
:10054000DF91CF911F91FF90EF900895EF92FF926E
:100550000F931F93CF938C017B0166E00E9486026C
:10056000C82FC77D82E0E816F10431F4C0628BE940
:1005700090E0A0E0B0E00DC0EA94EF2829F085E516
:1005800090E0A0E0B0E005C0C86081E490E0A0E0A9
:10059000B0E0F801808B918BA28BB38B4C2F66E07F
:1005A000C8010E942B0266E0C8010E94860291E009
:1005B0008C1390E0892FCF911F910F91FF90EF90B6
:1005C0000895CF93DF93EC0160E00E94DB018889FE
:1005D00099890E9498006DE1CE010E94860281FFF8
:1005E00007C0888999890E949800CE010E9428023C
:1005F00060E0CE010E948602482F4E7F60E0CE016F
:100600000E942B0262E0CE010E948602E8ECF0E03C
:10061000E49141E050E001C0440FEA95EAF7482B2D
:1006200062E0CE01DF91CF910C942B028F929F92CA
:10063000AF92BF92CF92DF92EF92FF920F931F93F0
:10064000CF93DF93EC017B01CCA8D12C860108501D
:100650001109DB0116969C918CE6890F833020F0FE
:10066000983C09F0CFC003C0943909F4E4C08BE68C
:10067000890F823018F0983C09F08EC06E0159ED58
:10068000C50ED11CD6012D913C91A801420F531FDC
:100690004139510520F0C852DF4F1882B1C05E01C8
:1006A000B8EDAB0EB11CF5018081882309F415C1AA
:1006B000963929F0D70117969C919813A1C0FE0195
:1006C000EB52FF4F40815181F7018481958148179A
:1006D000590709F095C04E01FBED8F0E911CD40116
:1006E0008D919C91A801BE01615F7F4F820F931F86
:1006F0000E942625F60180819181080F191F118320
:100700000083D70116968C91863929F0F5018081F6
:100710008150808373C0D5011C92F7018781FE014F
:10072000E952FF4F8083833809F483C07E01FFECD8
:10073000EF0EF11CF701A081B181CE018A1B9B0B4A
:100740008B539F4F80179107F8F032968AE0019003
:100750000D928A95E1F7D7018D919C91F40160810A
:100760007181D6014D915C910A960E942625F60171
:10077000808191810A96D7012D913C911197820F2A
:10078000931F8D939C933AC08FA598A90E94E10274
:100790008AA581608AA734C07E01BFECEB0EF11CF4
:1007A000F701A081B181CE01C5969D01281B390BAF
:1007B000C901800F911F8B39910510F5E85CF10993
:1007C00088E001900D928A95E1F7D701ED91FC91B7
:1007D0001197118700878D919C91BE01615F7F4FBA
:1007E000A8010A960E942625B2E0CB0ED11CF70183
:1007F00080819181C80ED91ED182C08281E06DC0F6
:1008000080E06BC0933841F6DE01AF52BF4FFE016E
:10081000379688E001900D928A95E1F7FE01E55246
:10082000FF4FCE010F9691838083C752DF4F19830C
:10083000088382E052C0F7018781873008F02BCF10
:10084000FE01EB52FF4F40815181D70114962D914B
:100850003C91159734976F014217530739F4408143
:1008600051812D913C914217530741F2F8E18F9F3E
:10087000C0011124FE01E153FF4F20813181AE01FF
:10088000421B530B9A012B533F4F281739073CF457
:100890008AA581608AA78FA598A90E94E102FE011E
:1008A000379688E0D60101900D928A95E1F7FE0116
:1008B000E552FF4FBE01615F7F4FA80180819181AA
:1008C0000E942625FE01E752FF4F11830083C85284
:1008D000DF4F88818150888391CFDF91CF911F9125
:1008E0000F91FF90EF90DF90CF90BF90AF909F90CF
:1008F0008F9008958F929F92AF92BF92CF92DF9286
:10090000EF92FF926B017C010E94A3004B015C01FE
:10091000C114D104E104F10401F10E9491170E9475
:10092000A300DC01CB0188199909AA09BB09883EFB
:100930009340A105B10560F321E0C21AD108E10896
:10094000F10888EE880E83E0981EA11CB11CC1142A
:10095000D104E104F10419F7DBCFFF90EF90DF90B1
:10096000CF90BF90AF909F908F9008953F924F92FD
:100970005F926F927F928F929F92AF92BF92CF922F
:10098000DF92EF92FF920F931F93CF93DF93EC01CF
:100990009AA5892F827091FD17C0FE01E153FF4F88
:1009A000AE014B5C5F4F90FD07C020813181241B5D
:1009B000350B2937310544F0208131814217530727
:1009C00008F429C19E7F9AA78E01095F1F4F502E00
:1009D000EE24E394F12C6E0181E9C81A8EEFD80A57
:1009E00074E2A72E79E0B72E8FA498A8F401808135
:1009F00091818F3F910511F480E00DC1F401828156
:100A000093818F3F9105C1F367E1C4010E94860283
:100A1000982F9170792E80FDEFCF6FEFC4010E9467
:100A20000C028FA498A8C4010E94020280E60E94D2
:100A300005028FEF0E940502682EC4010E94FF018B
:100A4000F0E2F61508F056C062EEC4010E940C02F6
:100A500062E070E080E090E00E947A047CAA97E077
:100A6000971538F06AE070E080E090E00E947A0428
:100A7000BBCF8FA498A8F4018781472C871508F471
:100A8000482EF4019085911103C0382E341801C00E
:100A9000312CC4010E94020281E60E940502380145
:100AA000450C461439F08FEF0E940502F301819343
:100AB0003F01F7CF732C772029F08FEF0E940502BA
:100AC0007A94F9CFC4010E94FF0140E767E0C401B6
:100AD0000E942B0269857A85CB01009769F0282F47
:100AE0002770263008F080CF53E0969587955A9569
:100AF000E1F7F3CF762CB2CF8D852AA93BA96217F7
:100B00007307E1F5823809F46FCF803881F46432DD
:100B10007940D1F0BA86A98642E064E279E0CE015C
:100B20000E94081C6AE070E080E090E040C0833CD6
:100B300059F46115710541F078876F831A8619861B
:100B400040E060E070E063C099A5992319F087FF49
:100B50000CC002C0813C49F49CE6980F933028F009
:100B6000883C19F0833809F056C0B801CE010E94C4
:100B70001603823009F038CF83E84DC06034710528
:100B800009F044C0823CC9F48AA583FD2DCF2432EC
:100B900089E0380709F428CF8F8198859A8789875B
:100BA00038872F83F601608170E080E090E00E943A
:100BB0007A0469857A8542E02AC0B801CE010E9494
:100BC0001603982E88818823E9F029A9222379F039
:100BD00030E021503109C901880F991F280F391FB2
:100BE000B70102C0660F771F2A95E2F702C060E0E6
:100BF00070E083E0660F771F8A95E1F744E0CE014D
:100C00000E94081CF2E09F12EFCEB6CF41E0CE0169
:100C10000E94081CE9CEDF91CF911F910F91FF90A8
:100C2000EF90DF90CF90BF90AF909F908F907F908C
:100C30006F905F904F903F900895CF93DF93EC01BA
:100C400060E00E94860281FD0EC0482F426060E095
:100C5000CE010E942B0265E070E080E090E0DF9121
:100C6000CF910C947A04DF91CF910895CF93DF93C5
:100C7000EC010E941D0660E0CE010E948602482F12
:100C8000416060E0CE010E942B0240E767E0CE01A8
:100C90000E942B0261E0CE010E94DB01898588233E
:100CA00049F02E85AE01475F5F4F6AE0CE010E949A
:100CB0004F0214C062E0CE010E948602E8ECF0E030
:100CC000E49121E030E001C0220FEA95EAF7209597
:100CD000422F482362E0CE010E942B026DE1CE013B
:100CE0000E94860281FF05C0CE01DF91CF910C9456
:100CF0002802DF91CF9108952FB7F89460913102C7
:100D00007091320280913302909134022FBF089586
:100D10002F923F924F925F926F927F928F929F920B
:100D2000AF92BF92CF92DF92EF92FF920F931F93F9
:100D3000CF93DF93EC017B015A01690148010E94C6
:100D40007C064BA45CA46DA47EA4DC01CB018419B9
:100D50009509A609B7094997A105B10528F4CE015F
:100D60000E94B60487FFEBCF8BE193E00197F1F788
:100D700089E1C816D104B0F488E08C0D8CAB8401F5
:100D80009601A501B701CE010E94CA1C182F882325
:100D900011F011E092C00E947C066BA77CA78DA782
:100DA0009EA78BC0E1E9CE16D10408F085C0C6012C
:100DB00068E170E00E94B82321E0892B09F420E06B
:100DC000C60168E170E00E94B823722E760EF7012A
:100DD000828193818034910539F08AA584608AA745
:100DE0008FA598A90E94E102F7014680512C612C41
:100DF00084E9282E96E9392EF7017782F1E07F12F7
:100E000004C0F7013682478208C0611003C0F701B1
:100E1000268203C085E9F7018683E8E16E9EA00182
:100E200011249601241B350B2931310510F028E1DE
:100E300030E088E0820F8CAB4A0D5B1D8401B70166
:100E4000CE010E94CA1C182F81110BC062E070E015
:100E500080E090E00E947A045394F2E0F51560F689
:100E600006C07A946394772011F0512CC5CFF70116
:100E700046828AA582FF12C049815A816B817C819A
:100E80008FA598A90E94C220182F8FA598A90E940B
:100E9000360660E08FA598A90E94AD208AA58B7FB9
:100EA0008AA7112349F0772009F473CF0E947C06AA
:100EB0006BA77CA78DA79EA710E0812FDF91CF9114
:100EC0001F910F91FF90EF90DF90CF90BF90AF9068
:100ED0009F908F907F906F905F904F903F902F905A
:100EE00008951F920F920FB60F9211242F933F93E4
:100EF0008F939F93AF93BF93809131029091320271
:100F0000A0913302B09134023091300223E0230FDC
:100F10002D3720F40196A11DB11D05C026E8230F31
:100F20000296A11DB11D209330028093310290934F
:100F30003202A0933302B093340280913502909133
:100F40003602A0913702B09138020196A11DB11D61
:100F50008093350290933602A0933702B093380203
:100F6000BF91AF919F918F913F912F910F900FBEA5
:100F70000F901F9018956115710579F0FB01019094
:100F80000020E9F73197AF01461B570BDC01ED91CB
:100F9000FC910280F381E02D099480E090E00895B7
:100FA0004F925F926F927F92EF92FF920F931F93F7
:100FB000CF93DF93CDB7DEB7A1970FB6F894DEBF1E
:100FC0000FBECDBF7C01FA01CB0119A2223008F47B
:100FD0002AE08E010F5D1F4F422E512C612C712C87
:100FE000BF01A30192010E94CC23F901CA01015063
:100FF00011096A3014F4605D01C0695CD8016C931A
:10100000232B242B252B61F7B801C7010E94BB07B6
:10101000A1960FB6F894DEBF0FBECDBFDF91CF9182
:101020001F910F91FF90EF907F906F905F904F9086
:1010300008958F929F92AF92BF92CF92DF92EF92DC
:10104000FF920F931F93CF93DF937C018B016C0171
:1010500082E0C80ED11C4701E5E08E0E911CC0E075
:10106000D0E0F60141916F0150E060E070E02AE0CD
:10107000C8010E94D0075C016EE2C8010E94C8004E
:101080008A0D9B1DC80FD91FC814D90451F7F70149
:10109000458150E060E070E02AE0C8010E94D0077E
:1010A0008C0F9D1FDF91CF911F910F91FF90EF90BB
:1010B000DF90CF90BF90AF909F908F900895EF9268
:1010C000FF920F931F93CF93DF93EC017B018A0173
:1010D00062EC71E086E793E00E94BB07BE0186E701
:1010E00093E00E94BB0764ED71E086E793E00E9405
:1010F000BB07E7010E0D1F1DC017D10731F0699125
:1011000086E793E00E94C800F7CF67ED71E086E7BD
:1011100093E00E94BB078AED91E0DF91CF911F9190
:101120000F91FF90EF900C942E091F920F920FB623
:101130000F9211242F933F934F935F936F937F935D
:101140008F939F93AF93BF93EF93FF9386E793E0C3
:101150000E944501FF91EF91BF91AF919F918F91B7
:101160007F916F915F914F913F912F910F900FBEA3
:101170000F901F9018951F920F920FB60F92112487
:101180002F938F939F93EF93FF93E0918603F091BA
:1011900087038081E0918C03F0918D0382FD12C062
:1011A000908180918F038F5F8F73209190038217BE
:1011B00051F0E0918F03F0E0EA58FC4F958F809357
:1011C0008F0301C08081FF91EF919F918F912F91AB
:1011D0000F900FBE0F901F9018950F931F93CF93F2
:1011E000DF9300916D0210916E02F801C281D0E090
:1011F000DC2FCC278381C80FD11DB801645F7F4FDE
:1012000048E050E0CE010E970E946C17AE014451A9
:101210005109B8016C5E7F4F0E946C17009721F056
:1012200098278927982702C08FEF9FEFDF91CF91F2
:101230001F910F91089560916D0270916E0244E1CB
:1012400050E080E090E00E946C17009721F0982712
:101250008927982708958FEF9FEF0895CF93DF9305
:10126000EC010E94D01D882329F0CE01DF91CF919F
:101270000C9498150E94BC128111F7CFDF91CF9189
:101280000895FC01248130E0322F22278581282B0C
:10129000322723273227AEE7B2E09281892F90E0F0
:1012A000982F88274381842B982789279827119680
:1012B0009C938E9313963C932E9312970895CF92FE
:1012C000DF92EF92FF921F93CF93DF93CDB7DEB7FC
:1012D000C254D1090FB6F894DEBF0FBECDBFDC01FA
:1012E00012963C91129713964C91139714962C9149
:1012F000149715968C913FAF21964FAF2197229668
:101300002FAF229711E023961FAF23972396CCACE3
:10131000DDACEEACFFAC2397CBAADCAAEDAAFEAA0B
:1013200039AF4AAF2BAF8CAF3DA74EA72FA718AB55
:10133000CDA4DEA4EFA4F8A8CFA2D8A6E9A6FAA669
:101340001EABCBA8DCA8EDA8FEA8C9A2DAA2EBA22E
:10135000FCA23B8F4C8F2D8F8E8F1AA77FA168A583
:1013600059A591E07D8B6E8B5F8B988F1CA3C9A0D4
:10137000DAA0EBA0FCA0CF86D88AE98AFA8A39875E
:101380004A872B878C87262F652F1A8B8F85988904
:10139000A989BA898B839C83AD83BE83DB848C85CA
:1013A00092ECE92E94E0F92ED7011496ED91FC9180
:1013B000159782831296ED91FC91139707A0F0A5E3
:1013C000E02D0284F385E02DF0936E02E0936D0230
:1013D000EAE7F2E050E0532B542745275427518386
:1013E000408390E09D2998278927982793838283BB
:1013F000EEE7F2E0822F90E0972B9227892798273B
:1014000091838083862F90E0916093838283E6E7C7
:10141000F2E08FEF9FEF918380838FEF90E09383D3
:1014200082831E838B819C81AD81BE8180937203F8
:1014300090937303A0937403B09375038EE390E0CD
:10144000A0E0B0E0F70183879487A587B6870E9464
:101450007C06D70117966D937D938D939C931A9775
:1014600010927502109274021092670210936C022F
:1014700080E094E090934D0280934C02CE5BDF4F6E
:101480000FB6F894DEBF0FBECDBFDF91CF911F9195
:10149000FF90EF90DF90CF900895FC0182819381BF
:1014A000A481B5818093B6049093B704A093B80447
:1014B000B093B9048BE597E09093BD048093BC048E
:1014C0001092BB041092BA0485E294E0089590E073
:1014D000FC01E858FF4F3491FC01EC54FF4F24917C
:1014E000FC01E056FF4FE491EE2309F43BC03323A7
:1014F00039F1333091F038F43130A9F0323001F560
:1015000084B58F7D12C0373091F03830A1F034307F
:10151000B9F4809180008F7D03C0809180008F7727
:10152000809380000DC084B58F7784BD09C0809101
:10153000B0008F7703C08091B0008F7D8093B000A2
:10154000F0E0EE0FFF1FE457FF4FA591B4918FB766
:10155000F894EC91611103C020952E2301C02E2B2D
:101560002C938FBF0895AF92BF92CF92DF92EF92EC
:10157000FF920F931F93CF93DF9300914A02109134
:101580004B02C0916D02D0916E026E0128E2C20E34
:10159000D11CD0924902C0924802D0924702C09218
:1015A0004602833081F4D80159968C9159978F70F7
:1015B000833009F084C550968D919C915197892B69
:1015C00009F07DC584C0823009F087C08091440253
:1015D0008F5F80934402811113C0809143028F5F1B
:1015E0008093430281110CC0809142028F5F8093EF
:1015F0004202811105C0809141028F5F80934102B8
:101600001092400210923F0210923E0210923D0250
:10161000F801818D982F9D7F953041F4828D8F5FE9
:10162000828F883709F04BC5118E49C5882309F48C
:1016300046C520893189232B09F445C0928D2FEFAF
:10164000290F228F91113BC5938D9A3031F02FEFE6
:10165000280F223058F4933049F4F801118E80E8B5
:10166000809345020E94701984E16CC3953038F470
:1016700028E0092E01C0220F0A94EAF701C020E8F1
:10168000D8015A962C935A979F5F5B969C938F70C4
:10169000833099F040F4813009F4D7C1823009F0E9
:1016A0000EC519A2D4C1863009F44BC3883009F4A1
:1016B00048C3843009F003C544C384E080934502E5
:1016C0000E947019DEC38F70833009F0F8C488E07F
:1016D000809345020E94701982C38881853409F085
:1016E000EEC4EA80F12CFE2CEE248B81E80EF11C76
:1016F00080913F02909140028E159F0508F4DFC44F
:10170000F0924002E0923F028E818F7309F0D7C4BD
:101710008F818111D4C4A0907A02B0907B02A11471
:10172000B10431F480917C0290917D02892B81F08B
:10173000888999898A159B0509F0C1C42A893B8942
:1017400080917C0290917D022817390709F0B7C477
:101750000E941B09019609F0B2C48985863021F1E7
:10176000813009F0ACC48C89883009F0A8C41C8A87
:101770008E899F89873FEFEF9E0710F0099601C081
:1017800008969F8B8E8B8C859D85998B888B8E85FB
:101790009F859B8B8A8BBD86AC8680917C029091C5
:1017A0007D029F878E878FC40E94ED08019609F005
:1017B00086C49091670289A1992329F14E895F8996
:1017C000209152023091530242175307E1F44C89A1
:1017D0005D8920915402309155024217530799F4C4
:1017E0004C855D8520914E0230914F024217530780
:1017F00051F44E855F85209150023091510242177D
:10180000530709F43AC18F73823001F52E893F895D
:1018100030937302209372024091740250917502CA
:101820002417350709F05CC4911159C010926C025D
:101830000EE412E05EC08091450280FDDFC180E2CF
:10184000809345020E9470191092670289A182FD5F
:1018500036C484E189A388E290E0909340028093AB
:101860003F0280E588A33B8D8F8D8B8F2A8D8E8DD7
:101870008A8F2E8F998D8D8D898F9D8F888D8093E6
:101880006C024C8D488F8C8F3F5F3F8F31110AC0A7
:101890002F5F2E8F211106C09F5F9D8F911102C077
:1018A0008F5F8C8F8C899D899093730280937202D5
:1018B0002E893F893D8B2C8B9F8B8E8B8C859D85B4
:1018C000998B888B8E859F859B8B8A8BBD86AC86FA
:1018D00080917C0290917D029F878E87C1C3973053
:1018E00019F000E010E002C00EE412E081E0809305
:1018F0006C020115110509F4E2C310934B02009329
:101900004A0288E0D8015A968C935A9758968C933D
:10191000589756961C92569784E057968C935797F3
:101920005B961C925B978E899F8915969C938E93EC
:1019300014978C899D8917969C938E9316978C8506
:101940009D8511969C938E938E859F8513969C936F
:101950008E93129781E059968C935997809141020A
:101960001C968C931C97809142021D968C931D9718
:10197000809143021E968C931E97809144021F967D
:101980008C931F9781E090E051969C938E93509793
:101990008B8D1B968C931B978A8D1A968C931A9716
:1019A000898D19968C931997888D18968C9381E060
:1019B00090E00E94552288A1982F907F913508F4DD
:1019C00044C010926C0282958F7090E00597880F4A
:1019D000991F880F991F2091710230916C02E32F9B
:1019E000F0E0E817F9077CF5EC0FFD1F20A52111A9
:1019F00003C01092710229C0213011F43F5F20C052
:101A00002230D1F441A54430B9F42093710282A56B
:101A100090E0982F882723A5822B909373028093C0
:101A200072028836910510F087E690E0F801938BFA
:101A3000828B958B848B09C041A5442321F0340F00
:101A400030936C02CACF2093710280E189A3E091A8
:101A50006D02F0916E0281A1826081A382E080A775
:101A600084E081A712A687E683A78CE290E090939A
:101A7000400280933F0280E69EC22EE432E0309323
:101A80004B0220934A021092450282FF04C010923A
:101A9000670280E22EC228A122952F70220F220F0A
:101AA00020936C02E21AF108870104511109109386
:101AB000400200933F029F70923021F4982F9F7351
:101AC0009231D1F00115110519F4982F9370A1F0FE
:101AD000288D9091560229135BC2298D909157024F
:101AE000291356C22A8D90915802291351C22B8D69
:101AF0009091590229134CC284FF57C060915E0235
:101B000070915F026115710509F44FC08AE592E09A
:101B10000E946D223C8D80913902381346C02D8D74
:101B200080913A02281341C09E8D80913B02981308
:101B30003CC08F8D40913C02841337C030935A02D1
:101B400020935B0290935C0280935D028091690216
:101B5000811120C0909164028091660220916802F8
:101B6000821B292F269526952695821B980F9093E8
:101B7000640287FD819520916502322F3695369556
:101B8000231B820F80936502969596959695890FF3
:101B90008093660281E08093450280916602809383
:101BA000680210925F0210925E0220916702E22F9B
:101BB000EF708E2F90E0FC013197E830F10508F0CE
:101BC0007EC2EC5CFF4F0C94EE238091450280FFB7
:101BD00076C283E08093670280E48093450210928E
:101BE0005F0210925E020115110509F477C082E4CC
:101BF00080934502C8010E94552270C089A18F734D
:101C0000823109F01CCE88A1982F907F913508F47D
:101C100047C010926C0282958F7090E00597880FF4
:101C2000991F880F991F2091710230916C02E32F48
:101C3000F0E0E817F90794F5EC0FFD1F20A521113E
:101C400003C0109271022CC0213011F43F5F23C0F9
:101C50002230E9F441A54430D1F42093710282A5E9
:101C600090E0982F882723A5822B9093730280936E
:101C700072028836910510F087E690E09093610239
:101C800080936002909363028093620209C041A531
:101C9000442321F0340F30936C02C7CF209371029C
:101CA00083E080936702888D80935602898D8093AC
:101CB00057028A8D809358028B8D8093590281E060
:101CC00090E00E94552282E48093450210925F02C8
:101CD00010925E021092400210923F0210923E0259
:101CE00010923D020E9470190EE412E078C089A1A2
:101CF00080FF2AC024FD28C080915E0290915F027F
:101D0000892B09F0DCC1C70143970E9455228091BD
:101D10004502982F906190934502012B19F0826142
:101D2000809345020E94701981E090E090935F02D9
:101D300080935E0288E080936702109269020EE44D
:101D400012E081E189A32CC185FF12C08EA190E031
:101D5000982F88273FA1832BC80ED91ED092490205
:101D6000C0924802081B190B1093400200933F02D7
:101D700040913F02509140024115510551F024FD20
:101D800008C090914502926090934502CA010E945A
:101D900055228AA190E0982F88272BA1820F911DB0
:101DA00090937302809372022091620230916302D9
:101DB0002817390710F0892B21F4309373022093F0
:101DC00072028091720290917302909361028093EB
:101DD000600280914502837009F471C17FCF8091C8
:101DE000450285FF0DC010923E0210923D02D801BF
:101DF00059961C92E0916D02F0916E0284E113C03D
:101E000084FF13C010923E0210923D0281E090E0E8
:101E1000F801918B808B84E0818F138EE0916D02AD
:101E2000F0916E0281E181A3BBC020913D0230910F
:101E30003E022115310519F180FF05C0D8015196E8
:101E40001C921E925097F80180899189009799F40D
:101E5000828993898217930720F490933E0280939E
:101E60003D0280913D0290913E02D80151969C9393
:101E70008E93509704C090933E0280933D02F801E8
:101E8000138E80914602909147029093490280936D
:101E9000480280913D0290913E02892B91F0D80139
:101EA00050968D919C915197009759F088969093F8
:101EB000400280933F02E0916D02F0916E0288E152
:101EC0000FC08091450281FFFAC088E290E09093B4
:101ED000400280933F02E0916D02F0916E0280E13A
:101EE00081A364C08091450280FFE9C0109267021F
:101EF00080E1809345020E947019E1C0011511052F
:101F000019F0C8010E94552299A18091450290FFC5
:101F100010C080FF0AC087E08093670210926802B9
:101F200010925F0210925E021CC086E080936702EE
:101F300018C080FF20C085E08093670210925F0286
:101F400010925E02BCC00115110519F0C8010E9473
:101F5000552289A180FF0FC087E08093670210920D
:101F6000680281E090E00E94552280E18093450262
:101F70000E9470190DC0012B59F4A1C08091450237
:101F800080FF9DC087E0809367021092680297C02F
:101F9000E0916D02F0916E0280E181A30EE412E007
:101FA00088E290E09093400280933F02E0916D02BE
:101FB000F0916E0280E580A3E0916D02F0916E02D7
:101FC000D80118968C911897848F19968C9119972F
:101FD000858F1A968C911A97868F1B968C911B97DA
:101FE000878F1C968C911C97808F1D968C911D97C6
:101FF000818F1E968C911E97828F1F968C911F97B2
:10200000838F86E0818714968D919C911597958B8F
:10201000848B16968D919C911797978B868B8091C8
:102020007A0290917B029587848780917C029091BF
:102030007D02978786878D919C911197918B808BDC
:1020400012968D919C911397938B828B59968C91BC
:1020500084FF03C013A212A203C012A28DE583A3C2
:10206000C0916D02D0916E0280E4888780913F021A
:10207000909140029A838B831FA21EA21DA21CA2D4
:102080000E94ED08809590959DA38CA385E488839C
:1020900019821F821E8280916F02909170020196B8
:1020A0009093700280936F029C838D831B861A86A7
:1020B0000E941B09809590959B878A8704C0109287
:1020C000400210923F0210924502DF91CF911F9182
:1020D0000F91FF90EF90DF90CF90BF90AF90089559
:1020E00081E080936C02B2CB90E0FC01EC54FF4F96
:1020F0002491FC01E056FF4F8491882399F090E0F1
:10210000880F991FFC01EA56FF4FA591B491FC017D
:10211000E457FF4F859194918FB7F894EC91E22B9F
:10212000EC938FBF08958F929F92AF92BF92CF9200
:10213000DF92EF92FF921F93CF93DF93CDB7DEB77D
:1021400028970FB6F894DEBF0FBECDBF6C010E947A
:10215000D01D182F8111D0C06091BA047091BB04BA
:10216000A0912504B09126044091BC045091BD0477
:10217000ED91FC9111976115710521F00088F189AD
:10218000E02D16C00684F785E02D8EE491E09A8359
:1021900089838090B6049090B704A090B804B09062
:1021A000B9048B829C82AD82BE82BE016F5F7F4F7D
:1021B000CD0109958130910509F098C09093A8044C
:1021C0008093A70487E0E8E0F1E0DE01119601903A
:1021D0000D928A95E1F7FE013196ACE2B4E07E0102
:1021E00028E0E20EF11C81918D93EE15FF05D9F7E1
:1021F00082E080933304109234048FE0809335049E
:102200004FE050E067E274E0C6010E943E1DAC0161
:102210004550510967E274E080E10E945F1D0E9411
:102220007C066093A9047093AA048093AB049093F6
:10223000AC046093AD047093AE048093AF049093AC
:10224000B0048091250490912604DC01ED91FC916D
:102250000084F185E02D0995892BE1F40E947C062C
:102260008090AD049090AE04A090AF04B090B00404
:10227000DC01CB0188199909AA09BB0988399A435D
:10228000A105B105F0F28CEF9FEF9093C10480930C
:10229000C00420C0C7010E94591E0497D9F42091A0
:1022A0002A04211112C00E947C066093AD04709331
:1022B000AE048093AF049093B0041092B1041092D6
:1022C000C1041092C00411E017C030E03093C10483
:1022D0002093C0048091250490912604DC01ED91A7
:1022E000FC910488F589E02D099506C08EEF9FEFDB
:1022F0009093C1048093C004812F28960FB6F89460
:10230000DEBF0FBECDBFDF91CF911F91FF90EF9049
:10231000DF90CF90BF90AF909F908F9008957F9265
:102320008F929F92AF92BF92CF92DF92EF92FF92E5
:102330000F931F93CF93DF93CDB7DEB728970FB6D8
:10234000F894DEBF0FBECDBFFC019B012115310506
:1023500059F0822F8770863008F0FAC0A3E03695D6
:102360002795AA95E1F7F2CF62AB73AB87A590A949
:10237000DC012D913C912F3F310509F4E9C0DC01CE
:1023800012962D913C9113972F3F310509F4E0C02F
:10239000E72EF62E8F0160E00E94AD20F801C7A461
:1023A000D0A86DE1C6010E948602482F44606DE10D
:1023B000C6010E942B026CE1C6010E948602482FD2
:1023C0004F636CE1C6010E942B0281E0D601189692
:1023D0008C93F80182A993A966E070E00E94B8236B
:1023E000482F440F4B5FF0E14F9FA001112445603F
:1023F00064E0D8019F968D919C91D0970E942B020A
:1024000089E190E0A0E0B0E0F80181839283A383AA
:10241000B4838BE490E09683858382A993A940E0FE
:102420002FEF3FEFB90168237923672B39F073E071
:10243000220F331F7A95E1F74F5FF4CFF80141ABDC
:1024400020953095E059FE4F3183208363E0369527
:1024500027956A95E1F73397A901482359235183BA
:1024600040832115310559F043E0969587954A95AB
:10247000E1F753E0369527955A95E1F7F2CFF80149
:10248000E159FE4F808386E0782E88248394912C36
:102490007A94FFEF7F1609F454C0672D8F2D9E2D7F
:1024A0000E94F01AD8019F96CD90DC90D097298396
:1024B0003A834B835C836D837E838F839887A72CBD
:1024C000B12C71100BC0F601468550E0BE016F5F64
:1024D0007F4FC60109960E94262503C0F1E07F12B6
:1024E00008C0F501EC52FF4F6491D6011E962C9165
:1024F00005C0F501EC52FF4F649121E0AE014F5F42
:102500005F4FC6010E944F02F501E253FF4F6491F5
:10251000F6014781C6010E942B0262E0C6010E94BB
:102520008602F501E853FF4FE491940101C0220FA8
:10253000EA95EAF7482F422B62E0C6010E942B027F
:10254000A7CFD8019F968D919C91D0970E94360677
:1025500028960FB6F894DEBF0FBECDBFDF91CF91A6
:102560001F910F91FF90EF90DF90CF90BF90AF90B1
:102570009F908F907F9008952F923F924F925F92FD
:102580006F927F928F929F92AF92BF92CF92DF9283
:10259000EF92FF920F931F93CF93DF93CDB7DEB7E8
:1025A00064970FB6F894DEBF0FBECDBFB3E0AB2E7D
:1025B000B12C10E4212E312CE090D704F090D804F7
:1025C000F70180819181228133818217930711F075
:1025D0000E947410F7018281938120813181281734
:1025E000390711F00E947410DFB6F89480918502CB
:1025F000811124C0EAEAF0E08491EEEBF0E09491DE
:10260000E82FF0E0EE0FFF1FEA56FF4FA591B491BF
:10261000EC91E92321F461E08AE00E94670A8AE0F4
:102620000E9474108CB580618CBD8CB580648CBDAB
:102630008DE00E9474108BE00E94741080918502DE
:102640008F5F80938502DFBE60E0C7010E94DB01DF
:1026500061E0C7010E94E70165E070E080E090E082
:102660000E947A044CE060E0C7010E942B024FE513
:1026700064E0C7010E942B0262E070E0C7010E9483
:10268000A602882319F081E0F701868366E0C7017E
:102690000E94860260E070E0C7010E94A602C701A6
:1026A0000E94020280E50E94050283E70E94050263
:1026B000C7010E94FF0140E06DE1C7010E942B02AB
:1026C00040E06CE1C7010E942B02F701108640E751
:1026D00067E0C7010E942B024CE465E0C7010E943D
:1026E0002B0262EEC7010E940C02C7010E94280261
:1026F000C7010E941D0660E0C7010E948602482FA4
:102700004E7F60E0C7010E942B0281E68093E404C3
:1027100041E665E08091D7049091D8040E942B0295
:1027200060E070E08091D7049091D8040E94A602E6
:102730000091D9041091DA0481E0F80181A7809119
:10274000D304882381F004E219E01093D2040093AB
:10275000D10467E18091D7049091D8040E94860249
:1027600080FF3BC06DC086E090E00E94F423909310
:10277000D5048093D4041092D6041092D2041092FF
:10278000D10460E070E0C8010E948F11AEC163E027
:1027900070E080E090E00E947A0408E310E020E01E
:1027A00030E040E050E0BE01675F7F4F8091D90488
:1027B0009091DA040E948806882309F484C1E0918C
:1027C000D904F091DA0482A58D7F82A78091D1048B
:1027D0009091D204892B09F088C1109284028091D3
:1027E0008202909183020E9493106EE571E080E076
:1027F00090E00E947A040E94D01D182F8823D1F007
:102800008091840281110BC08CEE91E00E94051E24
:1028100083EF91E00E94461E81E08093840285E070
:1028200092E00E94051E84E192E00E94461E0E94F2
:10283000311F64C141E0A41AB10809F0BDCE5EC1E8
:102840008091D7049091D8040E94E102E091D904CC
:10285000F091DA0482A5826082A76AE070E080E0ED
:1028600090E00E947A0464E279E08091D90490912A
:10287000DA040E948F111093D2040093D1040E94B5
:102880007C062B013C01C12CE12C9AE0892E3C8670
:102890002B8680910001909101019C012F5F3F4F99
:1028A00030930101209300019E878D8722EC2F87B2
:1028B0008091D9049091DA04FC0122A933A93A87C6
:1028C0002987EE2089F02E2D30E021503109A90111
:1028D000440F551F240F351F01E010E002C0000F08
:1028E000111F2A95E2F702C000E010E020E030E07E
:1028F00040E050E0BE01675F7F4F0E9488060E9463
:102900007C06698B7A8B8B8B9C8BF12C8091D90404
:102910009091DA040E94B604823C89F4FE0131965B
:10292000EF0DF11DEF0DF11DA091D904B091DA0466
:1029300017968D919C91189791838083F3940E94B0
:102940007C06DC01CB0129893A894B895C89821B91
:10295000930BA40BB50BC897A105B10520F433E088
:102960003F15A0F633C0F11031C00E947C06DC0197
:10297000CB0184199509A609B70981369A4EA1059C
:10298000B10508F02ACF2C2D30E02F5F3F4F8E2D60
:1029900090E00196289FB001299F700D389F700D1F
:1029A0001124675E7F4F660F771F072E000C880B80
:1029B000990B0E947A0481E08E0D8370E82E81E0ED
:1029C0008C0D682D0E94AC23C92E61CFD12C912C87
:1029D000DF1408F046C043EC4F878091D304888B06
:1029E000FE013196ED0DF11DED0DF11D00811181FE
:1029F0001C870B8720E030E040E050E0BE01675FBD
:102A00007F4F8091D9049091DA040E9488060E9439
:102A10007C06698B7A8B8B8B9C8B0E947C06DC01FD
:102A2000CB0129893A894B895C89821B930BA40BC2
:102A3000B50B813E9105A105B10558F48091D904EB
:102A40009091DA040E94B604982E50E88513E5CFE1
:102A5000DF2C65E070E080E090E00E947A04D3947F
:102A6000B7CF30E8931281CFE091D904F091DA0426
:102A700087859089009709F478CF36852091D30413
:102A8000321373CF9093D2048093D1048091D704F2
:102A90009091D8040E94E1026AE070E080E090E04A
:102AA0000E947A046091D1047091D2048091D9047B
:102AB0009091DA040E948F111C861B8651E85F8773
:102AC00087E0F82E6ACEFA94F11061CE64E279E0E4
:102AD0008091D9049091DA040E948F1184E299E0E8
:102AE0009093D2048093D10440CF80918202909140
:102AF00083020E949310811172CE6FCE812F649653
:102B00000FB6F894DEBF0FBECDBFDF91CF911F91FE
:102B10000F91FF90EF90DF90CF90BF90AF909F907C
:102B20008F907F906F905F904F903F902F9008957F
:102B30000F931F93CF93DF938C01EC01099000203A
:102B4000E9F72197C81BD90B0E94D01D882361F19A
:102B5000CE0147968138910538F545E050E067E2AF
:102B600074E08FE192E00E943E1DF80120E030E029
:102B70002C173D0759F04191D901A80FB91FAB5D42
:102B8000BB4F12964C932F5F3F4FF2CF2550310928
:102B9000A901480F591F67E274E080E3DF91CF91EC
:102BA0001F910F910C945F1D80E0DF91CF911F91D9
:102BB0000F910895CF93DF93EC01E881F981008CA8
:102BC000F18DE02D0995882339F0EC85FD85118282
:102BD000EA51FF4F11821082DF91CF910895CF9378
:102BE000DF93EC01E881F9810084F185E02D0995FE
:102BF000892B71F0EC85FD85DF01AC51BF4F8D91C4
:102C00009C91E80FF91FE358FF4F808190E002C0CC
:102C10008FEF9FEFDF91CF910895CF93DF931F92B6
:102C2000CDB7DEB7DC01ED91FC910288F389E02D90
:102C300041E050E0BE016F5F7F4F099597FD03C0F3
:102C4000898190E002C08FEF9FEF0F90DF91CF91CD
:102C50000895FC01448555854115510551F0FB014E
:102C6000248535852115310521F081E04217530770
:102C700009F080E0089580E090E00895DC011C9662
:102C8000ED91FC911D97309739F08181811106C03B
:102C9000808182958170089580E0089581E0089593
:102CA000DC01ED91FC91028CF38DE02D099591E012
:102CB00089270895CF93DF93DC01FB01EC01C35911
:102CC000DE4F68817981229698818281408151818D
:102CD000823028F0BA0181E0838390E027C0ED01C3
:102CE000C059DE4F28813981EA01C223D323D2960D
:102CF0000D90BC91A02DCA17DB07C1F4C9018095C6
:102D0000909563E0880F991F6A95E1F784239523D6
:102D1000892B51F083E0220F331F8A95E1F727605A
:102D2000BA016223732301C0BA0195E07183608305
:102D3000928381E0DF91CF9108950F931F93CF93FA
:102D4000DF93CDB7DEB728970FB6F894DEBF0FBE7E
:102D5000CDBF1C821B8280910001909101019C01DA
:102D60002F5F3F4F30930101209300019E838D839D
:102D700083E88F8320913F023091400240916D02A1
:102D800050916E0208E310E0BE016F5F7F4F8091AB
:102D9000C4049091C5040E94880628960FB6F89442
:102DA000DEBF0FBECDBFDF91CF911F910F91089570
:102DB000CF92DF92EF92FF920F931F93CF93DF9307
:102DC00000D0CDB7DEB78C017B01DC01ED91FC9129
:102DD000008CF18DE02D49835A83099549815A81F0
:102DE000882309F46CC0F801A485B58511968C91EF
:102DF0001197882309F463C0FD01EA51FF4F8081D8
:102E000091816A018C159D0508F46C01FD01EC515E
:102E1000FF4F2081318123583F4FBD01620F731F47
:102E2000A601C7010E942625D8011C96ED91FC91B0
:102E30001D97DF01AA51BF4F8D919C9111978C195D
:102E40009D0911969C938E9312972D913C91119709
:102E50002C0D3D1D11963C932E93892B71F51182FB
:102E60001D921C928081A82FAF709EE1A99FD00176
:102E70001124A25BBD4F59969C9194FF0EC0982FD0
:102E8000907659F480688083D8011C96ED91FC916E
:102E90001D971286138614861586D8011C96ED910F
:102EA000FC911D978181811108C0808186FF05C03A
:102EB00010821D961C921E921C97C60102C08FEFB5
:102EC0009FEF0F900F90DF91CF911F910F91FF9087
:102ED000EF90DF90CF900895FB0141505109460FCC
:102EE000571FE417F50778F4208130E0322F2227AE
:102EF0006181260F311D820F931F8217930708F4FB
:102F000001963296EECFE417F50751F4208130E0B8
:102F1000322F2227820F931F8217930708F40196FE
:102F20000895CF92DF92EF92FF920F931F938091BB
:102F3000C4049091C5040E94B604833869F4E091FA
:102F4000C404F091C50407A0F0A5E02D808591850B
:102F50009093400280933F0280913F029091400203
:102F6000892B89F081E00E94B30A80913F02909101
:102F70004002892BD9F11F910F91FF90EF90DF90C4
:102F8000CF900C949D160E947C06C090C904D090EE
:102F9000CA04E090CB04F090CC040091CD041091D1
:102FA000CE042091CF043091D004AB01BC014C1968
:102FB0005D096E097F094017510762077307B0F07A
:102FC000D901C8018C0D9D1DAE1DBF1D8093C90484
:102FD0009093CA04A093CB04B093CC048EE492E007
:102FE00090934B0280934A0282E0BDCF1F910F91D4
:102FF000FF90EF90DF90CF900895CF93DF93EC0197
:103000000E949117E881F981008CF18DE02DCE01AD
:103010000995882351F0EC85FD858181882329F06D
:10302000EA51FF4F8081918102C080E090E0DF9102
:10303000CF9108957F928F929F92AF92BF92CF923D
:10304000DF92EF92FF920F931F93CF93DF93EC01E8
:103050006B017A018A014836510510F007E610E04D
:103060000E947C06812C912C5E01E8EEAE0EB11C14
:10307000772473940E949117209781F18881982F6B
:10308000907661F584FF2AC08B819C819801280F7E
:10309000391F2836310570F7F50120812111EACF5B
:1030A0004696B601680D791DA8018C0F9D1F0E94E0
:1030B00026257A828B819C81800F911F9C838B8334
:1030C000800E911E8E149F0470F48701081919094F
:1030D0000836110578F207E610E0CCCFC851DF4F73
:1030E00018828FEF9FEFDF91CF911F910F91FF908B
:1030F000EF90DF90CF90BF90AF909F908F907F9098
:103100000895FC01848595850C941A18CF93DF935C
:103110001F92CDB7DEB7698341E050E0BE016F5F1B
:103120007F4FFC01848595850E941A180F90DF91CE
:10313000CF910895CF93DF93EC010E949117EC8516
:10314000FD85309729F0808186FF04C0818103C00E
:1031500080E001C081E0DF91CF910895CF93DF93AC
:10316000DC011C96ED91FC911D97309779F09081D0
:10317000992361F01182EF01CA51DF4F1982188241
:1031800096FF02C0108202C0906290831D961C922E
:103190001E921C97DF91CF910C949117EF92FF92A2
:1031A0000F931F93CF93DF938C017B01EA010E9461
:1031B0007C06D801ED91FC910488F589E02DC801C9
:1031C0000995F701828190E0982F88272381822B2F
:1031D000982789279827248130E0322F222745819C
:1031E000242B322723273227FC2FED2F60914C020E
:1031F00070914D0250916702C0915202D0915302DA
:103200006F5F7F4F61154DE7740710F060E070E16C
:10321000B62FA72F552319F0CA17DB0789F3709330
:103220004D0260934C02511105C010926C02CEE425
:10323000D2E00AC0573019F0C0E0D0E002C0CEE4BE
:10324000D2E041E040936C02209719F480E090E0D6
:1032500040C042E0498F409141024C874091420278
:103260004D87409143024E87409144024F8767E665
:1032700070E07B8B6A8B7D8B6C8B41E050E0598BCF
:10328000488B1B8E4A8F48E0488F1E8A40E14F8B47
:1032900060914C0270914D027627672776277D83D7
:1032A0006C83FF83EE83998388833B832A83898D94
:1032B0008F7061F20E949117898D8F708330B9F7FA
:1032C0008C8D9D8DD8011D969C938E931C9781E0CB
:1032D00090E0DF91CF911F910F91FF90EF900895B3
:1032E0000F931F93CF93DF93E0914A02F0914B022B
:1032F000C48DD58D80914502209701F586FF6BC165
:1033000090918602911167C190E19093860210928C
:1033100087021092880210926D0310926C03109233
:103320006B0310926A0310928A0210928902109223
:103330006E0326E832E0358F248FE90181FF4FC00C
:10334000DE01A751BF4F8C91882331F01A82198674
:103350001C821B8211971C9280913F029091400227
:10336000892B09F4ECC08881807609F0E8C0818D52
:103370008061818F88818F77888319860E947C067F
:103380006A877B878C879D876A8B7B8B8C8B9D8BD9
:103390008E010A511F4FF8012081318132978081BF
:1033A0009181820F931F83589F4F609148027091C3
:1033B000490240913F02509140028C0F9D1F0E9494
:1033C000262520913F0230914002F80180819181B1
:1033D000820F931F9183808381E08983B0C084FD35
:1033E00004C087FD02C085FF10C01A82898188232E
:1033F00041F0848195819B838A838881806488835E
:1034000001C01882158E148E9AC080FF15C0888165
:103410008F7788831A8219861C821B82FE01E851ED
:10342000FF4F10820E947C066A877B878C879D876E
:103430006A8B7B8B8C8B9D8B809145028C7009F401
:1034400066C08A81882309F14B815C8150934002D8
:1034500040933F02BE016A5E7F4F50933E0240930D
:103460003D02141615064CF48091460290914702D5
:103470006817790711F00E94262581E0FE01E851C6
:10348000FF4F8083319680835AC08881982F907631
:10349000F1F599859923D9F187FF39C00E947C06FF
:1034A0000A851B852C853D85DC01CB01801B910B9A
:1034B000A20BB30B0E851F852889398908171907B8
:1034C0002A073B0708F465C022C08E859F85A8891E
:1034D000B9898C509E4FAF4FBF4F8935FBE19F0795
:1034E000A105B10520F088E59BE1A0E0B0E08E8762
:1034F0009F87A88BB98B809145028260809345029B
:10350000E0914A02F0914B02818D8F7E818F8881FC
:1035100085FF15C08A8181110BC01882E0914A0293
:10352000F0914B02158E148E80E18093450207C006
:10353000E0914A02F0914B02818D8061818F8881F8
:1035400087FF49C09985911146C0807609F043C034
:1035500080914502826080934502E0914A02F09199
:103560004B02818D8F7E818F81E089878EE194E18E
:10357000A0E0B0E08E879F87A88BB98B0E947C0665
:103580006A8B7B8B8C8B9D8B6A877B878C879D87D7
:1035900022C00E947C066A877B878C879D870E9459
:1035A0007C060A891B892C893D89DC01CB01801BA3
:1035B000910BA20BB30B80339547A105B10508F41D
:1035C00084CF19861882E0914A02F0914B02158E41
:1035D000148E80E2AACFDF91CF911F910F910895B1
:1035E000CF93DF93CDB7DEB728970FB6F894DEBF41
:1035F0000FBECDBFAC019CEC99839A839B839C83C7
:103600009D831E821F8218869A01E1E021153105F3
:10361000C9F0611103C04115510569F4D901A770C2
:10362000BB27A15FBE4F8C91A1E0B0E0AC0FBD1FE6
:10363000AE0FB11D8C9383E0369527958A95E1F7FF
:10364000EF5FE4CF611102C0452B39F4E62FF0E0C3
:10365000E15FFE4F8081898305C0F0E0E25FFE4FAD
:1036600080818A8329813A814B815C816D817E8151
:103670008F81988528960FB6F894DEBF0FBECDBF18
:10368000DF91CF9108956F927F928F929F92AF9228
:10369000BF92CF92DF92EF92FF920F931F93CF933F
:1036A000DF93CDB7DEB728970FB6F894DEBF0FBE15
:1036B000CDBF8C01CB01D22E642F0E94F01A3901AC
:1036C0004A015B017C01F80182A582FD04C087A547
:1036D00090A90E94E102F80187A590A9DD2011F0D0
:1036E00060E001C061E00E94AD20F801C7A4D0A84D
:1036F00069827A828B829C82AD82BE82EF82F8865A
:10370000F6012685AE014F5F5F4F6AE0C6010E9459
:103710004F02F6012685AE014F5F5F4F60E1C601A3
:103720000E944F02F601478161E1C6010E942B020F
:10373000F801B4A8C7A4D0A86FEFC6010E940C027C
:1037400080FF0DC06FEFC6010E940C0284FFF4CF12
:1037500040E167E0C6010E942B02F12C30C0F60167
:10376000F780EF2CBF1408F4EB2CF6018085811153
:1037700002C0FE1801C0F12CC6010E94020280EABC
:103780000E9405025801F7E0AF0EB11CEA0CEA14E2
:1037900031F0F50181915F010E940502F8CFFF2011
:1037A00029F080E00E940502FA94F9CFC6010E9438
:1037B000FF0161E0C6010E94DB01FF24F394F801E0
:1037C00082A582FD0FC0418152816381748187A5EA
:1037D00090A90E94C220F82E60E0F80187A590A968
:1037E0000E94AD208F2D28960FB6F894DEBF0FBE35
:1037F000CDBFDF91CF911F910F91FF90EF90DF90A0
:10380000CF90BF90AF909F908F907F906F900895D2
:10381000CF92DF92EF92FF920F931F93CF93DF939C
:1038200000D000D0CDB7DEB7FC0195859B012115F6
:10383000310561F0822F8770863030F483E0369551
:1038400027958A95E1F7F3CF80E097C09154EE2455
:10385000E3949F3708F0E12CF42E6B018F0119825D
:103860001A821B821C827A8369834B83BE016F5F3D
:103870007F4FCF010E945A1669817A812C814B813A
:10388000C8010E94431BF1E0FF1227C0811102C052
:10389000F12C6AC089819A818C159D0501F5EE2075
:1038A000F1F081ECF8018587878190859287818787
:1038B0009A838983FB821C82BE016F5F7F4FC801A0
:1038C0000E945A1688E0F80184AB69817A812C81C4
:1038D0004B81C8010E94431B02C08823C9F2898121
:1038E0009A818C159D0519F4FF24F3943DC0FF20A7
:1038F00019F0F3E0FF12F8CFEE20B1F3F80182A542
:1039000082FF11C0418152816381748187A590A992
:103910000E94C220F80182A58B7F82A760E087A564
:1039200090A90E94AD20F80187A590A90E943606B3
:103930000E947C066B017C01C8010E94B604813C98
:1039400099F20E947C06AB01BC014C195D096E091D
:103950007F09F80185819681A0E0B0E08417950782
:10396000A607B70748F794CFF80182A582FD04C0E7
:1039700087A590A90E9436068F2D0F900F900F906B
:103980000F90DF91CF911F910F91FF90EF90DF90FB
:10399000CF900895EF92FF920F931F93CF93DF93F1
:1039A000EC017B01BA018AA99BA9F701918380836D
:1039B000DE01179688E001900D928A95E1F72115B6
:1039C000310529F0A901CE010F960E942625F701A5
:1039D000628173810833110561F06034710511F45F
:1039E00044E001C043E06017710709F442E0B80108
:1039F00001C040E0CE01DF91CF911F910F91FF9068
:103A0000EF900C94081CCF92DF92EF92FF92CF932D
:103A1000DF93EC010E947C066B017C018091250400
:103A200090912604DC01ED91FC910084F185E02D5C
:103A30000995892B79F40E947C06AB01BC014C19D5
:103A40005D096E097F0948395A436105710530F3F4
:103A500080E00DC08091250490912604DC01ED9159
:103A6000FC910284F385E02D0995888381E0DF9144
:103A7000CF91FF90EF90DF90CF900895CF93DF9399
:103A8000DC014E5F5F4FFC019F012A1B3B0B9191B4
:103A9000992339F0EB01C40FD51F98834F5F5F4F17
:103AA000F3CFCA01821B930B680F791FFB0132977A
:103AB000308331962083CA01DF91CF910895CF9250
:103AC000DF92EF92FF920F931F93CF93DF9300D07B
:103AD00000D0CDB7DEB79A01E0E0922F9F77220F9A
:103AE000232F221F330B31952115310509F09068E2
:103AF00001E00E0FA1E0B0E0AC0FBD1FAE0FB11D95
:103B0000FD0190832115310511F0E02FE6CF10E083
:103B1000DB01A01BB10B14968C93FE0131966F0153
:103B200080E090E08017910764F4F601F1906F0156
:103B30009C01201B310B260F371FF901F5820196DE
:103B4000F1CF80912504909126044F5F5F4F040FC1
:103B5000151FFC0120813181F90122813381A801E7
:103B6000BD01F90109957C010E947C066093A904BE
:103B70007093AA048093AB049093AC0481E0E016A8
:103B8000F10609F080E00F900F900F900F90DF91F9
:103B9000CF911F910F91FF90EF90DF90CF900895FC
:103BA0008091250490912604009759F1DC01ED9154
:103BB000FC910688F789E02D0995811124C0809138
:103BC000C0049091C104892BE1F48DEF9FEF909395
:103BD000C1048093C0048091250490912604DC01E7
:103BE000ED91FC910680F781E02D099580912504E7
:103BF00090912604DC01ED91FC910488F589E02D7B
:103C0000099580E0089581E00895CF93DF93FC014A
:103C100001900020E9F79F01281B390B285F3F4FD7
:103C20002138310578F5EC010E94D01D882351F12F
:103C30008091A7049091A804019611F481E090E08E
:103C40009093A8048093A7048091A7049091A8045E
:103C500090932C0480932D0447E050E067E274E0D9
:103C6000CE010E943E1DFC01EB5DFB4F21E0228353
:103C7000AC014450510967E274E082E8DF91CF91D2
:103C80000C945F1D80E0DF91CF910895CF93DF9377
:103C9000BC0186E793E00E94BB07EC0167ED71E091
:103CA00086E793E00E94BB078C0F9D1FDF91CF91A9
:103CB00008955F926F927F928F929F92AF92BF9280
:103CC000CF92DF92EF92FF920F931F93CF93DF93E8
:103CD0001F92CDB7DEB74C0187E294E00E94031D2E
:103CE000811126C022C00F5F1F4F8981F801EB5D53
:103CF000FB4F8183282F2F7730E02C9DA0012D9D35
:103D0000500D3C9D500D1124A40EB51E37E0CC0C77
:103D1000DD1CEE1CFF1C3A95D1F787FF15C0CE01C4
:103D200001960E94031D8111DECF80E090E088C0E3
:103D300070902704198201E010E0A12CB12CC12C55
:103D4000D12C7601C394EBCF872D807F55245394DB
:103D5000803309F0512C8FEF800FD4018C935520C4
:103D600021F1C801895D9B4F0E94031D8823E9F260
:103D7000C801885D9B4F0E94031D8823B1F20E5F2E
:103D80001F4FD401EC91F0E0EB5DFB4FE380F12C91
:103D9000FE2CEE248481E80EF11C8091270481FF23
:103DA00008C0B2E0EB0EF11C04C080E0E12CF12C65
:103DB00001C082E0C82ED12CC01AD10A9EEF692E14
:103DC00077247A94C601800F911F8A159B0568F5A8
:103DD000CE0101960E94031D882309F4A6CF80918D
:103DE000BE049091BF040097A9F0552099F0F4010A
:103DF0002081A301421B51099A01200F311FE216B5
:103E0000F30640F4DC01ED91FC910190F081E02D8E
:103E1000698109950038110528F48981F801EB5D65
:103E2000FB4F82830F5F1F4FCDCF8091BE049091D7
:103E3000BF04892B21F40138110508F076CFC801A1
:103E40000F90DF91CF911F910F91FF90EF90DF9036
:103E5000CF90BF90AF909F908F907F906F905F902A
:103E600008952F923F924F925F926F927F928F921E
:103E70009F92AF92BF92CF92DF92EF92FF920F93F9
:103E80001F93CF93DF9300D01F92CDB7DEB72DB62F
:103E90003EB60E94D01D982E882309F442C10E948C
:103EA0007C066B017C018091AD049091AE04A091E1
:103EB000AF04B091B004A7019601281B390B4A0B3F
:103EC0005B0BDA01C90189399A43A105B105A8F450
:103ED0008091A9049091AA04A091AB04B091AC0484
:103EE000A7019601281B390B4A0B5B0BDA01C901AC
:103EF00089399A43A105B105D0F12091B10480918F
:103F0000250490912604222379F02CEF3FEF309383
:103F1000C1042093C004DC01ED91FC910488F58973
:103F2000E02D0995912CFDC020EC209327041092E0
:103F30002804DC01ED91FC910280F381E02D42E048
:103F400050E067E274E00995C092A904D092AA04F7
:103F5000E092AB04F092AC04C092AD04D092AE04F7
:103F6000E092AF04F092B00481E08093B1048091BC
:103F7000250490912604DC01ED91FC910084F185EB
:103F8000E02D0995892B09F4CCC0CE0101960E9441
:103F9000591E8C01892B09F4C4C0C092AD04D09283
:103FA000AE04E092AF04F092B00470902704872D25
:103FB000807F803309F09AC0E091B204F091B3049D
:103FC000FB83EA83EF2B09F4ACC04DB65EB6A98142
:103FD000B0E0CD018B5D9B4FFC01638170E0762FDB
:103FE00066278481680F711DCB0101962DB73EB7FE
:103FF000281B390B0FB6F8943EBF0FBE2DBF4DB72F
:104000005EB74F5F5F4F5A0120E030E02617370759
:1040100069F0C9018A0F9B1F8B5D9B4FFC01858155
:10402000FA018193AF012F5F3F4FF0CFC501820F9F
:10403000931FFC011082F72DF6708F2E42E0F413CF
:104040003EC0B9016A0F7B1FAB014B5D5B4FFA01AC
:10405000858190E0982F882746813C01640E711C71
:104060004BEF5FEF4A1B5B0B421B530B400F511F83
:10407000645D7B4FC501EA81FB81099580E48093F3
:104080002704809228047092290460922A04809167
:10409000250490912604DC01ED91FC910280F381CE
:1040A000E02D44E050E067E274E00995C092A90475
:1040B000D092AA04E092AB04F092AC0411C04DEF90
:1040C0005FEF4A1B5B0B421B530B400F511F2A0F24
:1040D0003B1FB901665D7B4FC501EA81FB810995F4
:1040E0000FB6F8945EBE0FBE4DBE1BC0803CA9F457
:1040F00080ED8093270410922804809125049091EC
:104100002604DC01ED91FC910280F381E02D42E078
:1041100050E067E274E0099504C0803D11F410920C
:10412000B104892D0FB6F8943EBE0FBE2DBE0F9080
:104130000F900F90DF91CF911F910F91FF90EF9013
:10414000DF90CF90BF90AF909F908F907F906F90B7
:104150005F904F903F902F9008951F93CF93DF93E0
:10416000EC01162F61E00E948602482F112311F006
:10417000416001C04E7F61E0CE01DF91CF911F9180
:104180000C942B028F929F92AF92BF92CF92DF92AC
:10419000EF92FF92CF93DF93EC014A015B010E9403
:1041A0007C066B017C0167E1CE010E94860284FDE2
:1041B00029C06FEFCE010E940C0284FFF4CF40E1D2
:1041C00067E0CE010E942B0260E0CE010E94DB017D
:1041D00061E0CE010E94DB010E947C06DC01CB0184
:1041E0008C199D09AE09BF0988159905AA05BB055B
:1041F000D0F260E0CE010E94DB01CE010E942802D5
:1042000080E005C060E0CE010E94DB0181E0DF912B
:10421000CF91FF90EF90DF90CF90BF90AF909F90A5
:104220008F900895CF93DF9300D000D000D0CDB70A
:10423000DEB7789484B5826084BD84B5816084BD26
:1042400085B5826085BD85B5816085BD80916E0034
:10425000816080936E001092810080918100826065
:1042600080938100809181008160809381008091A2
:1042700080008160809380008091B1008460809391
:10428000B1008091B00081608093B00080917A008D
:10429000846080937A0080917A00826080937A00B3
:1042A00080917A00816080937A0080917A008068A2
:1042B00080937A001092C100E0918603F091870309
:1042C00082E08083E0918203F09183031082E09189
:1042D0008403F091850380E1808310928E03E09146
:1042E0008A03F0918B0386E08083E0918803F0914C
:1042F0008903808180618083E0918803F091890344
:10430000808188608083E0918803F09189038081B7
:1043100080688083E0918803F091890380818F7D9C
:10432000808386E591E00E94461E109284028AE610
:1043300091E090938302809382020EE411E01A834D
:1043400009838091150490911604A0911704B091EF
:1043500018048B839C83AD83BE83CE0101960E949B
:104360004D0A8FE598E09093B3048093B2041A83CA
:1043700009838091210490912204A0912304B0919B
:1043800024048B839C83AD83BE83CE0101960E945F
:104390005F091A83098380911B0490911C04A091EA
:1043A0001D04B0911E048B839C83AD83BE83CE011C
:1043B00001960E944109E0918202F091830280916E
:1043C0002404805D85870E94BC12811107C06AEFBA
:1043D00070E080E090E00E947A04F5CF88E791E0F9
:1043E0000E94461E0E94D01D882349F10E947C062F
:1043F0000091E9041091EA042091EB043091EC045F
:10440000DC01CB01801B910BA20BB30B803D9740CD
:10441000A105B10508F444C08BE891E00E94461E56
:1044200085E991E00E942E090E947C066093E904D0
:104430007093EA048093EB049093EC0431C061EA3A
:1044400071E086E793E00E94BB07C090C004D09063
:10445000C1040D2C000CEE08FF08F7FE0EC06DE243
:1044600086E793E00E94C80044275527BA014C19FB
:104470005D096E097F092AE003C02AE0B701A601A1
:1044800086E793E00E94D0078DEA91E00E94461EE5
:1044900060ED77E080E090E00E947A040E94BC1218
:1044A0000E94311F0E94CF019DCFCF93DF93C09117
:1044B0004A02D0914B02BC01CE0108960E946D22A7
:1044C000E9E3F2E0808188878181898782818A8718
:1044D00083818B87DF91CF910895FC012381260F83
:1044E00020933C02A72FBB2792819A0F90933B0207
:1044F000318130933A02408140933902E92FF0E054
:10450000EA17FB0748F481E0830F80933A02811198
:1045100003C04F5F4093390230E0772726173707F3
:1045200088F49F5F90933B0291110CC080913A02F6
:104530008F5F80933A02811105C0809139028F5FAD
:104540008093390208950F931F93CF93DF93EDEE7D
:10455000F4E08EE491E091838083128213821482CE
:104560001582E3EFF4E09183808312821382148238
:104570001582E0E7F3E09183808312821382148234
:104580001582E9EFF4E09183808312821382148212
:104590001582EFEFF4E091838083128213821482FC
:1045A0001582E6E7F3E01382128248EE53E060E002
:1045B00070E044835583668377832AE131E0318359
:1045C000208325EC30E03587248724EC30E03787E2
:1045D000268720EC30E0318B208B21EC30E0338BD0
:1045E000228B22EC30E0358B248B26EC30E0378BAD
:1045F000268B118E128E138E148EEDE9F6E09183C8
:1046000080831282138214821582E5E8F6E027E0A7
:1046100030E03183208328E030E033832283168228
:1046200020E22783108625E0268705E010E020E0C1
:1046300030E0048B158B268B378B1186A3E1B5E018
:10464000D096FC93EE939F9728E435E03093E305F2
:104650002093E20520EF35E03093EF052093EE053F
:1046600024EE35E098963C932E9397979B961D9257
:104670001D921D921C929E979A961C929A979996BB
:104680001C9299971C9221ED34E0E901FF83EE839F
:10469000B987A887C2ECD4E0F983E883BB83AA83F7
:1046A0003D832C83E5E0F5E0138212824483558339
:1046B000668377832CE231E031832083158614866C
:1046C0009093B5048093B4041092B6041092B7048A
:1046D0001092B8041092B9042FEF3FEF3093C10449
:1046E0002093C004F0932604E09325041092BF04A5
:1046F0001092BE04EFE1F4E0918380832AE02283EC
:10470000238332E0348348E04583E9E1F4E0918398
:1047100080832283238334833583E3E1F4E0918330
:1047200080832283238334833583E3EAF6E0918315
:10473000808312821382148215820E947C06609309
:10474000E9047093EA048093EB049093EC04DF9106
:10475000CF911F910F910895991B79E004C0991F83
:10476000961708F0961B881F7A95C9F780950895CB
:10477000AA1BBB1B51E107C0AA1FBB1FA617B70787
:1047800010F0A61BB70B881F991F5A95A9F78095A3
:104790009095BC01CD010895A1E21A2EAA1BBB1B66
:1047A000FD010DC0AA1FBB1FEE1FFF1FA217B307FD
:1047B000E407F50720F0A21BB30BE40BF50B661F13
:1047C000771F881F991F1A9469F7609570958095D7
:1047D00090959B01AC01BD01CF010895EE0FFF1F25
:1047E0000590F491E02D0994CF93DF9382309105E9
:1047F00010F482E090E0E091AB06F091AC0620E08E
:1048000030E0C0E0D0E0309711F14081518148178D
:104810005907C0F04817590761F4828193812097A6
:1048200019F09B838A832BC09093AC068093AB06D0
:1048300026C02115310519F04217530718F49A01C3
:10484000BE01DF01EF010280F381E02DDCCF2115F5
:10485000310509F1281B390B2430310590F41296EB
:104860008D919C9113976115710521F0FB01938344
:10487000828304C09093AC068093AB06FD01329610
:1048800044C0FD01E20FF31F81939193225031093F
:104890002D933C933AC02091A9063091AA06232B70
:1048A00041F420910401309105013093AA06209330
:1048B000A90620910201309103012115310541F42F
:1048C0002DB73EB74091060150910701241B350BCF
:1048D000E091A906F091AA06E217F307A0F42E1BB7
:1048E0003F0B2817390778F0AC014E5F5F4F241754
:1048F000350748F04E0F5F1F5093AA064093A90654
:104900008193919302C0E0E0F0E0CF01DF91CF917D
:1049100008950F931F93CF93DF93009709F48CC0F2
:10492000FC013297138212820091AB061091AC0603
:104930000115110581F420813181820F931F20918F
:10494000A9063091AA062817390779F5F093AA0627
:10495000E093A90671C0D80140E050E0AE17BF0750
:1049600050F412962D913C911397AD01211531050C
:1049700009F1D901F3CF9D01DA01338322836081EC
:104980007181860F971F8217930769F4EC012881C4
:104990003981260F371F2E5F3F4F318320838A8155
:1049A0009B8193838283452B29F4F093AC06E0939B
:1049B000AB0642C01396FC93EE931297ED0149911A
:1049C00059919E01240F351FE217F30771F480817E
:1049D0009181840F951F029611969C938E938281EC
:1049E000938113969C938E931297E0E0F0E0D801A8
:1049F00012968D919C911397009719F0F8018C01F4
:104A0000F6CF8D919C9198012E5F3F4F820F931F9F
:104A10002091A9063091AA062817390769F4309722
:104A200029F41092AC061092AB0602C013821282D7
:104A30001093AA060093A906DF91CF911F910F91C1
:104A4000089581E090E0F8940C942F25FB01DC019F
:104A500002C001900D9241505040D8F70895F8944B
:024A6000FFCF86
:104A620001000000AD06800000044D51545404C3FF
:104A72003C33CE3EE3EC000000006601CF00FE00B6
:104A8200AD012F010D0121010000000086188118DF
:104A9200FB00DA15FD170D16EF15CE183B16D816CA
:104AA200AE183E169A182916501600000000190872
:104AB20000000000D9014265666F7265206C696E64
:104AC2006B69742073657475700061726475696EC8
:104AD2006F436C69656E74004166746572206C691F
:104AE2006E6B697420736574757000636F6E6E65AA
:104AF200637465640068656C6C6F20776F726C64B8
:104B0200006661696C65642C2072633D00207472DA
:104B12007920696E20696E2032207365636F6E643E
:104B220073004D65737361676520617272697665A2
:104B320064205B005D20000D0A0063616C6C6261A1
:104B4200636B20726563696576656400245359530B
:104B52002F23007375627363726962656420746FD8
:104B62002053595300736D617274666163746F727E
:104B7200792F2300737562736372696265640073CF
:104B82006D617274666163746F72792F66747300FB
:00000001FF
